S01B00006275696C642F72656C656173652F7A69676265652E73333714
S21400400008100020557B0000E9C20000854D030023
S214004010854D0300F1C20000F9C20000854D030083
S214004020854D0300854D0300854D0300854D030037
S214004030FDC2000014930400854D0300854D030067
S214004040854D0300854D0300854D03006D76000009
S214004050854D0300854D0300854D0300854D030007
S214004060854D0300854D0300FDC70000854D030008
S214004070854D0300854D0300854D0300854D0300E7
S214004080854D0300854D0300854D0300854D0300D7
S214004090854D0300854D0300854D0300854D0300C7
S2140040A0854D03001D7F0000017F0000854D030045
S2140040B0854D0300854D0300854D03004D17020016
S2140040C077A9030073A90300B10E02008DA90300AF
S2140040D07BA903000D1702007FA9030041FB010026
S2140040E08D170200854D0300854D0300854D0300A6
S2140040F0854D0300854D0300854D0300854D030067
S214004100854D0300854D0300854D0300854D030056
S214004110854D0300854D0300854D0300854D030046
S214004120854D0300854D0300854D0300854D030036
S208004130854D0300B1
S214004134F0B5114A114C124E00F00105E3695F0711
S21400414413D40DB9334213D103EA00078F4207D1C3
S2140041540B4A1A40002A14BF6FF001000020F0BD7D
S214004164013AEBD16FF00200F9E74FF0FF30F6E7C3
S2140041746FF00100F3E700BF80969800000003503C
S214004184020001000B4B70B5D96911F480310DD1D2
S21400419401244FF48072084E084DF46020462C64C7
S2140041A41A61FFF7C5FF3464EC6070BD6FF0010060
S2140041B4FBE700BF0000035000100350002003502C
S2140041C438B541F6713301220C4C0021E569E363EE
S2140041D40B4B05F48035DA600223606121202361ED
S2140041E4FFF7A6FF10B92120FFF7A2FF0122054B17
S2140041F4DA600DB10023E36338BD00BF000003504E
S214004204001003500020035070B5134C6061E3693E
S2140042145B071ED40E4656F8043B8D18A361AE42C7
S2140042240BD10423002121202361FFF781FF58B915
S214004234BDE870402120FFF77BBF08210846FFF742
S21400424477FF10B10423236170BD56F8043BA361C5
S214004254E5E74FF0FF30F7E7000003502DE9F84399
S214004264154641F67132164B8946DF69DA63012238
S214004274064603F58053DFF8508007F48037DA608B
S21400428455B9284601220F4BDA601FB10022A3F568
S2140042940053DA63BDE8F88306F5005404EA08041C
S2140042A4A41BAC4228BF2C46494622463046FFF79C
S2140042B4ABFF0028E6D12644A1442D1BE0E700BF4F
S2100042C4000003500020035000E0FFFF45
S2140042D02DE9F04F4FF0FD0BC9B09A460DF11B09C2
S2140042E09DF8503108AFCDF80C90CDF808B0019786
S2140042F0059303890446009383790E4690464188C9
S2140043008288407811F040FF054650B10090A3889F
S214004310002062883A4912F07BFA284649B0BDE888
S214004320F08F99F8000033F044FE38B12846A38891
S2140043306288344912F06CFA8D25EEE75A46394603
S21400434099F8000033F0DDFD8346002851D0529BDB
S2140043501BB1BDF84C3198424BD8002399F8009019
S2140043600793A9F14102012A5FFA8BF123D8384658
S2140043700139254ADFF898C05FFA81FE734513DBE2
S214004380059B04210792C3B907AF18221F489FED6B
S2140043901A7B02FB060420460A460830394684ED9E
S2140043A0027B16F08BFF11E010F8011F013351401D
S2140043B00CFB01F2E2E7059B33B123464A4638463A
S2140043C000960FF009FEA8E70829DED9B8F1000F1D
S2140043D001D088F80090BAF1000F01D0AAF800B01A
S2140043E0529B002B99D05A46184608A916F066FF2D
S2140043F093E7012591E700BF0000000000000000E1
S214004400A73C0400DC3C0400C59D1C8180100020F5
S21400441093010001000000002DE9F04F93B0CDE9B4
S2140044200A32DDE91C530E9353EC102BCDE908013C
S214004430104619468DED060B1E9E16F0C9F980B182
S214004440DDE906014FF0FF32C54B16F0E9F940B939
S214004450DDE906014FF0FF326FF4801316F0C2F963
S21400446070B1DDE908019DED060B0E9B1E96CDE9A9
S2140044701C53DDE90A3213B0BDE8F04F00F088B9EE
S2140044800022DDE90601002316F0ACF9002800F052
S2140044903381DDE906A303F1004BCBF30A5016F493
S2140044A08063A0F2FF3008BF06250F9315F0BEFE0E
S2140044B09BA3D3E9002315F023FF9BA3D3E9002396
S2140044C015F068FDCBF31304894644F07F5180460F
S2140044D00022A44B504641F4401115F059FD94A318
S2140044E0D3E9002315F00CFF02460B46404649462A
S2140044F015F050FD16F09EF9044615F097FE8EA3B3
S214004500D3E900238046894615F0FAFE0022964B32
S21400451015F040FD16F08EF989A3D3E9002307466F
S2140045204946404615F0ECFE80463846894615F06A
S2140045307DFE85A3D3E9002315F0E2FE02460B4676
S2140045404046494615F024FD02460B46CDE90C23AD
S21400455015F0D6FEDDE90C2380468946104619463E
S21400456015F018FD0022CDE91001804B4046494663
S21400457015F0F0FF00227E4B15F00CFD02460B46B0
S2140045804046494615F0E6FF00227A4B15F002FD3C
S21400459002460B464046494615F0DCFFDDE90C2393
S2140045A08046894600204FF0804115F0F1FC024617
S2140045B00B464046494615F0EDFC02460B46DDE943
S2140045C0100115F0C7FF07F2FF3700226A4B15F0FF
S2140045D0E1FC00223B0515F093FE52465B46804602
S2140045E0894616F01DF9002840F08980CDE90C892F
S2140045F004F16303C62B8CBF0527042731051BD5A2
S21400460053A3D3E900235046594616F0FFF8002876
S2140046107FD051A3D3E900235046594616F0E2F85E
S214004620002876D00027A542C6BF2C1B04F1FF3514
S21400463000253C4646F480660E9B9F422CBF4FF0FA
S2140046400008A3EB070816F0020903D0002F18BFD6
S2140046504FF000083CB1DDE90C235046594615F0F2
S21400466079FF82468B46DDE906010022002316F01C
S214004670B9F810B10BF100439B46DDE9080126F4BA
S2140046800063CDE90183DDE90A324BEC10AB0095FF
S21400469000F07EF802465FB3DDE9091316F0200F3E
S2140046A000F10105089E0CBF65204520B047DDE9F6
S2140046B008010523002205930A23002CCDE90232C7
S2140046C007F1FF374FEAD473B8BF64422A46019316
S2140046D004970A9B009435F0C6FA0246B9F1000F1B
S2140046E006D00B9BC41A0B9B1A190E9BA34245D8E7
S2140046F0104613B0BDE8F08FDDE906ABCDE600222C
S214004700404649461A4B15F025FF013CCDE90C0101
S2140047106EE7002D90D00F9B002B8DD0013D8BE7D0
S214004720FB799F501344D33FB3C8608B288AC63F9B
S21400473061436F63A787D23F71A379094F930A40FD
S2140047401655B5BBB16B0240EF39FAFE422EE63F76
S2140047502D431CEBE2361A3F0000000080842E41F9
S214004760FFFFEF7F0000F83F0000E03F00002C4016
S21400477000002440000018400000F03F2020DDE943
S2140047800913089DA8470134ADE700BF00000000EC
S2140047902DE9F04F5BEC10AB97B0CDE90501DDE9F4
S2140047A02058CDE90723504652465B465946229F7D
S2140047B016F00EF870B90323CDE902870193AA4BD1
S2140047C00093DDE90501DDE9072335F07EF917B032
S2140047D0BDE8F08F4FF0FF326FF480135046594615
S2140047E016F000F828B10423CDE9028701939F4B09
S2140047F0E6E74FF0FF32504659469D4B16F010F84C
S21400480068B19C4A07F00403002B08BF03229A4BAA
S2140048101CBF13460422CDE902870192D0E750461A
S2140048208DA3D3E90023594615F0FAFF38B98CA3B7
S214004830D3E900235046594615F0D4FF68B1DDE9A8
S2140048400723DDE905014BEC10ABCDE92187209568
S21400485017B0BDE8F04FFFF7DFBD0022002350463B
S214004860594615F0BFFF002800F091805B4652467F
S2140048700020002115F08CFB012382468B4609930D
S21400488017F4806400F08580092D40F285800024AE
S21400489030210EABA5F109020134202C03F8011BD0
S2140048A0A5EB040901D09442F6D15946504615F0BE
S2140048B0C1FF724B054603EBC90393ED007B8DEDFC
S2140048C00A7B15F0B3FC02460B465046594615F0D7
S2140048D05FFBDDE90A2315F013FD02460B46CDE922
S2140048E00C2315F0CFFF064615F090FC02460B464B
S2140048F0DDE90C0115F04CFB02460B46CDE90C2316
S21400490000225F4B15F08CFF002848D00136304659
S21400491015F07CFC02460B46DDE90A0115F06CFF3B
S21400492008B100260135B9F1000F45D1284615F02B
S2140049307DFC02460B465046594615F029FB0022E0
S2140049404F4B15F04FFF10B9E90700D501350A2186
S2140049500EAB1A19202C0AD095FBF1F001FB10556E
S214004960303502F8015B013405460028F2D107F025
S2140049700302012A55D1B8F1000F52D0099A12B994
S21400498017F00C0F01D008F1FF38302240E00990F4
S21400499076E74FF0060988E7A946002485E7002257
S2140049A0DDE90C01364B15F01DFF0028BBD10EB11A
S2140049B0F007B8D50136B6E70A210EAB1A19202C37
S2140049C00DD0B6FBF1F001FB1063092E03F13003A6
S2140049D009F1FF3904F1010402F8013B11D8302136
S2140049E0A1440EAA202CB2D04C4504F101030AD1F2
S2140049F004F158020DEB02042E2204F8202C1C466B
S214004A00A5E70646DBE7A1541C46EBE71A5501343A
S214004A10444506D2202CF9D1CDE9028701940EAB8D
S214004A20CEE6202CF8D0099B3BB12D2204F158038A
S214004A306B4403F8202C0134EEE77A0704D504F122
S214004A4058032B226B44F4E73B07E5D504F15803E3
S214004A5020226B44EDE700BF0000000065CDCD418D
S214004A600000000065CDCDC1965A04009A5A040095
S214004A70FFFFEF7F8D5A0400925A040050A20400F4
S214004A800000E03F0000000070B58EB02C22002130
S214004A9003A816F083FA64234FF002320893CDE998
S214004AA005230B2301218DF834305B4B8DF8101055
S214004AB01D880D4040F0A980084639F093FB0A2275
S214004AC0564B574C1A704FF42873ADF812304FF00F
S214004AD0FF332360534B54491B8820460B82534BAD
S214004AE0534A1B68CD828B61524B0D621B884B82EA
S214004AF0514B1B68CB611CF0BFFE20B14FF41B71FD
S214004B004E483AF0B0FC0521206835F095FA20B101
S214004B1040F27D2149483AF0A6FC206815F0F4F9E9
S214004B20474B2068196835F04AFB0C2539F0C2FF60
S214004B306843099039F0BEFF68430DEB0501079006
S214004B40206817F0EDF820B140F295213B483AF086
S214004B508AFC25681FF03AFA00220146284635F0FE
S214004B60A6FB20B140F2972134483AF07CFC40F294
S214004B700353344D344E2B80052396F90000AB705A
S214004B807F2801D11CF06EFF3378EB7039F092FF6E
S214004B9000EB80008000A88039F08CFF0023C00066
S214004BA04FF0FF31E880AB604FF0FF3018A3D3E939
S214004BB0002339F069FC2549206835F031FB206870
S214004BC002A935F04DFF20B14FF434711B483AF07E
S214004BD04AFC042220680DEB020135F0C5FA0428D1
S214004BE004D040F2D72115483AF03DFC01A9012037
S214004BF034F0D0FE07F0BCFB01201DF0C5FB30F002
S214004C00B9FE1DF0EBFB1CF0C5FE0EB070BD00BF7C
S214004C100A0020FF420300001A5E00207165002093
S214004C204056002082BB04002C6C002088BB040089
S214004C300DE2030080BB040084BB0400C5910400A1
S214004C407C69002034560020496F002081E2030072
S214004C500348044B834202D0034B03B11847704706
S214004C607C6F00207C6F002000000000064B074988
S214004C70C91A891048BF0131491003D0044B0BB143
S214004C8001481847704700BF7C6F00207C6F0020EB
S214004C900000000010B5064C237843B9FFF7D8FF94
S214004CA0044B13B10448AFF300800123237010BDFA
S214004CB0681600200000000028DF040008B5044B3A
S214004CC01BB104490448AFF30080BDE80840CDE7B7
S214004CD0000000006C16002028DF0400A3F5803AD0
S214004CE0704700BF154B002B08BF114B9D46FFF7C2
S214004CF0F5FF00218B460F461148124A121A16F08D
S214004D004DF90C4B002B00D098470B4B002B00D0D6
S214004D1098470020002104000D000B4816F084FC84
S214004D2016F014F9200029002FF08EFC16F06AFC0D
S214004D30000008000000000000000000081000202E
S214004D4008100020D465002091B6010007B50121A7
S214004D5020200DF1070201F027F850B10121202094
S214004D600DF107028DF8071001F02EF803B05DF87C
S214004D7004FB9DF807100129F8D00122084814F01A
S214004D80FBFF01210DF1070220208DF8071001F02E
S214004D901BF82FF0DBFB4FF4FA6000F04FFEE5E760
S214004DA0A8F8030038B501F097F9012805D001F0FE
S214004DB093F9022801D001F0B5F9064D2B783BB9DE
S214004DC001F08AF90128044602D12FF034FC2C7039
S214004DD038BD00BF065F002010B5044600882FF0DF
S214004DE089FBA37884F84400834202BF0123E37062
S214004DF02371074B04F11C00C4E9073401F02AF8BC
S214004E00224620880349BDE8104000F067BF00BF77
S214004E108B4203005542030070B5C37804460D4626
S214004E201646002B34D1D1B1214814F0A5FF01233A
S214004E30E370E36CA6600BB1E06D9847E368F61A82
S214004E4063699E4221D2217E1A480131C9B2217679
S214004E5014F092FFA36D13B1217EE06D9847E570C4
S214004E602FF087FB15B3237903BBA268238A801A29
S214004E7083421BD801231048237114F07DFF236D55
S214004E80A3B1E06DBDE87040184701232376E6E73E
S214004E900029E4D1094814F06FFF636DE660E57001
S214004EA02571002BDBD0E06D9847D8E770BD00BFBA
S214004EB0D0F80300E1F803000FF90300FCF8030044
S214004EC070B51E46838804460D46C18002810BB12C
S214004ED0868070BD817800882FF0F8F90123E37092
S214004EE0064BA680C4E903340C34204600F0B2FF1B
S214004EF029462046BDE870402FF032BBD74203005B
S214004F0010B501790446B1FA81F1008849092FF0FD
S214004F1054FA21796088B1FA81F149092FF04DFAE7
S214004F20034B1A68A24204BF00221A6010BD00BFDD
S214004F308416002070B543790446A3B100880E4E4F
S214004F4004F10805336813B10C4B1B786BB121795B
S214004F502FF033FA64210A4B3460A3602846BDE87C
S214004F6070402FF0FDBA4088E9E7064814F004FFC9
S214004F70054B3221A360F1E784160020075F00206E
S214004F80014F000025F90300354F000010B5044618
S214004F90E0B10F4814F0F0FE01236371A37953B912
S214004FA0217920882FF009FA236B7BB1606B0121F1
S214004FB0BDE8104018472046FFF7A2FF04F108009E
S214004FC02FF0D3FA2046FFF7B5FFEDE710BD00BF80
S214004FD05BF9030010B50446F8B1104814F0CCFE97
S214004FE000236371A3796BB921792088B1FA81F126
S214004FF049092FF0E2F9236B7BB1606B0021BDE815
S214005000104018472046FFF77BFF04F108002FF0FA
S214005010ACFA2046FFF78EFFEDE710BD66F90300F9
S21400502010B5044668B1074814F0A6FE637920461A
S2140050301BB1BDE81040FFF7CDBFBDE81040FFF73D
S214005040A5BF10BD72F9030010B50E4C0E482146E0
S21400505014F092FE82210D4814F08EFE822102206A
S214005060A21E00F0B1FE014630B134F8022C08480A
S214005070BDE8104014F080BE0648BDE8104014F0AD
S2140050807BBE00BF9257002081F903009CF9030005
S214005090A7F90300EBF9030038B5114C822122462C
S2140050A0022000F081FEA51C014688B122880D482A
S2140050B014F062FE2A460C4B03F1240153F8040B4D
S2140050C08B4242F8040BF9D11B78137024232380FB
S2140050D035F8021C054A0648BDE8384014F04CBEB8
S2140050E090570020F6F9030076FA03009257002046
S2140050F054FA0300034B1B781BB18B4201D82FF0E8
S21400510025BA7047EA6E002010B5044601460E48E0
S21400511014F032FE012C11D10C4B0D481A884FF6B4
S214005120FF739A421EBF0022094B5A742FF02BF9C8
S21400513001F0BEFEBDE8104001F090BD0448BDE899
S21400514010402FF022B900BF9BFA03009C6E00208F
S2140051500869002070B500241A4D1B4E3378A34210
S2140051601BDC0024194D1A4E3378A3421BDC0024A6
S214005170184D194E3378A3421BDC00F0ADFF012812
S21400518016481CD12FF0FFF801F092FE01F066FDE4
S214005190BDE87040124800F0BFBF2846FFF71CFE6F
S2140051A001346035DAE728462FF0D3F80134343579
S2140051B0DAE728462FF006F901343835DAE72FF01B
S2140051C0E4F8E5E7742300200D5F00209427002014
S2140051D00E5F0020442100200C5F0020086900209C
S2140051E0095100002DE9F04F87B0FFF755FFB34B8C
S2140051F005A805932FF00AF9054615F0CBFDB04C2F
S214005200C2B21F2A627004D9AE4814F0B5FD00F091
S21400521009FC2946A01C16F051F805A82FF0F6F850
S214005220054615F0B7FDC2B21F2A84F8212001D921
S214005230A548EAE7294604F1220016F03FF805A83B
S2140052402FF0E4F83226044600272578002D40F09B
S21400525092809E4CFFF77EFF2378DFF8ACA2DFF843
S214005260AC829B4E00939AF8003098F80020317874
S214005270984814F081FD327898F800109AF80000EB
S21400528053180344944F20782C4603443846DBB228
S214005290AA4200F3D882012B38BF0123DFF840B2C0
S2140052A002935A4600235D464FF482714FF6FF7410
S2140052B002980133834213705180948002F10C02ED
S2140052C0F6DB864B86497E48AB6000F0DBFFE8796C
S2140052D0AB6800EB400003EB800000F0AFFDEB791D
S2140052E00133EB717F4B1B88A34203D07C497E4879
S2140052F001F0CAF84FF00009784C32784A4500F3BE
S214005300CB8200274FF00C09784ADFF8D4B198F822
S21400531000003178B84200F3D48247180C210025EB
S21400532001FB07B19AF800009423A842704A00F3E4
S214005330E6820C2598F8003000274FF482783678FD
S214005340DFF8CCA11E44064405FB06B55F4B1B7870
S214005350BB4200F3E7820299614800F0FDFD059B21
S21400536056491A468B4240F0F082624807B0BDE8C4
S214005370F04F14F001BD532D0FD163784C2B40F045
S2140053804781A378502B40F0438101225A4B1A7074
S21400539005A82FF03BF8044657E7442D13D1637851
S2140053A0303B092BF4D8601C2FF03DF8534B544A81
S2140053B01978002386B2994202F16002E8DD22F8ED
S2140053C0466C0133F7E7422D0BD16378542B55D149
S2140053D0A01C00F0D1FC434B188018462EF017FF97
S2140053E0D6E7582D34D8412DD2D9433D152DCFD8E8
S2140053F001A353F825F000BFB357000091530000F7
S2140054009153000091530000915300009153000007
S214005410635500009153000091530000155500009D
S2140054206354000091530000915300009153000014
S214005430915300009556000011560000915300004D
S2140054409153000091530000915300000B57000049
S214005450692D9DD1601C2EF0E6FF80B22FF072F809
S21400546096E71B4B0120197800231B4A994202F14C
S214005470A8028DDD02F8A60C0133F7E7601C00F0E9
S2140054807BFC0546E01C2FF046F801210246284624
S2140054902EF0FDFF60211948194C03785943621815
S2140054A065524FF4FA6111824FF448715161154903
S2140054B056831165013303706AE700BF92570020D8
S2140054C01C680020BAFA0300D1FA0300085F002027
S2140054D00B5F0020E1FA0300981E00205017002002
S2140054E0D81600209C6E002088160020981D0020EC
S2140054F0DC1B002031FB0300075F00200D5F00204F
S21400550074230020F7430300095F00200A5F002091
S214005510D0180020601C00F02FFC00224FF034084A
S2140055208146CD4F11462EF0B2FF3878CB4D08FBA2
S21400553000F325F80390EA18E3781046693B18BF95
S214005540012393702EF005FF0021C54A3B78516079
S214005550012103FB08550B443B7015600F46117480
S21400556016E7601C00F008FC0022114681462EF06B
S2140055708EFF3422B84DDFF8E482287802FB00F371
S21400558028F8039008EB0301E3780846693B18BF48
S21400559001238B702EF0DDFEB24A00231046916B7D
S2140055A031BB00EB831034232A7802FB038383632A
S2140055B0AD4A00231046D2F8A410F9B9A82202FB7F
S2140055C0030034232A7802FB0383C0F8A4305FB9B3
S2140055D0A34A3B46114652F8040BA8B93422287851
S2140055E000FB028241F823202B7801332B70CFE694
S2140055F00133042B02F14002D1D1D9E70133042B49
S21400560002F1A802D7D1E2E70133042BE3D1EBE79E
S214005610601C00F0B1FB8046E01C2EF07CFF0121F0
S214005620024640462EF033FF60219048904D0278A7
S214005630DFF858C251436B1825F801804FF44871C3
S214005640198259618B495E839965E178A82464299B
S21400565004BF012199709CF80030DFF80CE25C432F
S2140056600EEB04010EF804304FF400744C80032453
S2140056700C718C7102EB420405EB441532240133A5
S214005680DBB201324B718D6081F8A04002708CF85D
S21400569000307DE6601C00F06FFB00224FF0380AF9
S2140056A08146DFF8E08111462EF0F1FE98F80030D2
S2140056B0714D0AFB03F325F803904FF00109EA1831
S2140056C082F80490E37873B1E01C00F055FB0022EA
S2140056D0044611462EF0DBFE98F800300AFB035312
S2140056E05C8083F8069065485E4A037899015354B7
S2140056F098F8001002EB8314C1EBC10205EBC2055B
S2140057004A1C656388F80020D4E6601C00F034FB71
S2140057108046E01C00F030FB0546601D2EF0FBFEC8
S21400572004460246012140462EF0B1FE2246284697
S21400573001212EF0ACFE60204FF4487CDFF82CE10F
S2140057404B4A9EF8003000FB03F422F80480DFF892
S21400575024811119A1F810C0C1F814C04E83C1F8F5
S2140057605880591CC9B248431418A4F810C0C4F88D
S21400577014C06683C4F8588094241552404D981C73
S2140057808EF800002878DFF808C1444303EB430393
S21400579001EB41010CEB040E02EB431302EB41124A
S2140057A00CF80400CEF80430CEF80820013028703B
S2140057B0EEE5601C00F0E0FA8046E01C00F0DCFA43
S2140057C000220546114640462EF061FE002238248F
S2140057D0114628462EF05BFE2A48274A03784FF0EB
S2140057E0000E04FB03FC22F80C804FF0010802EBCD
S2140057F00C0181F806E081F8048003EB0801C9B2C9
S2140058004C4302EB040C15539C1C04704FF482743A
S2140058101D4D8CF806E028788CF804804443DFF8A9
S21400582074C0C3EBC303C1EBC1010CEB040E02EB67
S214005830C30302EBC1020CF80400CEF80430CEF825
S21400584008204044B3E790F805C001358C4584BF76
S21400585004714471A8301BE50E5F002094270020D9
S21400586008690020981D0020981E00200D5F00206B
S21400587074230020F5500000442100200A5F002019
S214005880095F00200C5F0020085F00200B5F0020EF
S214005890DC1B0020D0180020B9F1000F07D01BF841
S2140058A0052C02EB420204EB8204CBF80840594672
S2140058B0384601F0D1FC09F10109A8370BF10C0BB1
S2140058C01BE579180AD0481E09FB00B0C07900EB2A
S2140058D0400004EB800409FB01B08460104609FB1D
S2140058E00151039201F076FA31781C48394409FBDD
S2140058F0015101F099F9039A0137403207E5FD425C
S21400590018BF11F8050C03911EBF00EB400004EB16
S21400591080048C6003FB052001F09EF80399013596
S2140059200C31FFE4F74218BF15F8053C29461CBFAA
S21400593003EB430304EB830408FB07A018BFAC602B
S21400594000F03CFF01370C3500E513F8011D002977
S2140059507FF406AD3B2102F8011C01E5382100204A
S21400596007B5012121200DF1070200F01DFA18B934
S2140059709DF80720024B1A7003B05DF804FB00BFC9
S214005980EA6E002007B5064B8DF807001870012157
S2140059900DF10702212000F017FA03B05DF804FBB2
S2140059A0EA6E002007B5022101200DF1060200F084
S2140059B0FBF938B9044814F0DFF9BDF8060003B067
S2140059C05DF804FB0020FAE74EFB030007B5022152
S2140059D0ADF806000DF10602012000F0F5F90146CB
S2140059E010B1034814F0C8F903B05DF804FB00BF1B
S2140059F06FFB030010B5FFF7D5FF044601460748C6
S214005A0014F0BAF90121064814F0B6F924B9BDE835
S214005A1010400120FFF7DABF10BD00BF9FFB030058
S214005A20B1FB030008B5044814F0A6F900F0DCF951
S214005A302EF08CFD2EF087FDC7FB030038B504461C
S214005A40084D094B28462B6000F004FA002C18BFBE
S214005A5021462846BDE8384008BF4FF496712EF020
S214005A607FBD00BF98280020454403002DE9F04381
S214005A70384D91B008AC0746894690460FCD0FC406
S214005A8095E80F00002684E80F0001250323324C1A
S214005A903248CDE90366CDE905668DF80E300796E7
S214005AA0029539F089FC2E4839F086FC32462D499D
S214005AB020468DF8176004F0F7FC334632462A4934
S214005AC08DF81900009020468DF82390CDF82C8094
S214005AD08DF8216004F002FD0A9020468DF80970CA
S214005AE004F064FC204608AA05A904F01DFD02AADD
S214005AF0204603A92FF09AFE4FF400721B4B5A6201
S214005B00194BE560626A920510D46BB94FF40072C7
S214005B10164B11485A6204F049FC114839F04FFC04
S214005B20002011B0BDE8F083013BEBE7002BEDD081
S214005B30094908A82FF0ADFE4FF400720B4B06483B
S214005B405A6204F033FC064839F039FCBDF82000F0
S214005B50E7E700BFCC9204000040005A74950400AA
S214005B607095040080841E0040420F000060005ABA
S214005B700122034B1870034B1980034B1A707047B1
S214005B80105F0020A46E00200F5F0020F8B5454B84
S214005B901B780BB90020F8BD434B1B78012B03D1B3
S214005BA0BDE8F8402EF051BC404B1C884FF6FF7302
S214005BB09C42EFD03E4839F0FFFB0023260AE4B2B1
S214005BC01A462146304604F0B1FB012E354604F055
S214005BD0010335D015D9B51E012DDBD8002B0BBF20
S214005BE04FF480754FF080754FF470614FF0706120
S214005BF00BBF01274FF480370F204FF470202D4B3A
S214005C0011E0002B0BBF4FF480754FF080754FF4FA
S214005C1070614FF070610BBF01274FF480370F2083
S214005C204FF47020244B1A6802401CD0BA421AD097
S214005C301A680A4032D11A6822EA01022A4316E09C
S214005C40002B0BBF4FF480754FF080754FF47061DA
S214005C504FF070610BBF01274FF480370F204FF4D1
S214005C607020164BDFE71A6822EA00023A431A60F1
S214005C702EF0EBFB054600288CD0083644EA0610CA
S214005C802A460321C0B2FFF7F1FE40F6FF736843D1
S214005C9000F2FF70B0FBF3F080B27CE795427FF431
S214005CA079AFC8E70F5F0020105F0020A46E0020C9
S214005CB07495040028C3035020C3035024C3035024
S214005CC010B5044C237823B9034839F075FB01233B
S214005CD0237010BD125F0020749504002DE9F04378
S214005CE01F4C85B0074688469146FFF7E9FF2378A4
S214005CF01BB901F0CBFF012323707BBAADF80C3043
S214005D0030220023174E02FB03F4315DA51901BBB8
S214005D10012333554FF0FF3304F11000124930448D
S214005D20AB606F80C5F80480C5F80C9009F040FAA7
S214005D3004F10801042231440C4B009503A802F03C
S214005D407BF8A96802460A4814F016F805B0BDE8C4
S214005D50F0830133102BD6D1064814F00DF8F5E782
S214005D60115F0020C02800206F4403008144030018
S214005D70D4FB030002FC030080B10278A2F14103C9
S214005D80032B0BD840783038C0B2082806D8054B0D
S214005D90134413F8413C40EA032070474FF6FF7067
S214005DA0704700BFEC92040008B50B4642B10146AE
S214005DB00448006803F084F9BDE808402EF0BCBB38
S214005DC0022008BD7469002008B50B4642B10146A2
S214005DD00448006803F0FCFABDE808402EF0ACBBAF
S214005DE0022008BD74690020F0B50026124F8DB061
S214005DF0FF2300930A223346386802A92FF0D3FA0D
S214005E00C0B102AB1D4603EB800404E055F8043B2A
S214005E10B34228BF5E1CAC423868E9D9296803F053
S214005E205DFC0028F2D02D28F0D00DB0BDE8F04083
S214005E302EF082BB0DB0F0BD7469002028B1034B74
S214005E400360034B43600023836070471900000320
S214005E501C690020FF2307B50021044A0093083080
S214005E6009F02AF903B05DF804FB00BF5B450300A8
S214005E700B460449024608680349097808B12EF023
S214005E807FBB7047CC2B0020145F0020F7B50C4674
S214005E9018B12921194839F0E6FA246823685E7992
S214005EA05F8830463946FFF7E3FFF0B18568E5B115
S214005EB0A089227D3946904291BF0020801AA368AF
S214005EC080B294BF03469B18E27C00903046A847F9
S214005ED00138032803D8DFE800F0080F0B0D002474
S214005EE0204632F0D0FD204600E0812003B0F0BD11
S214005EF08024F5E79324F3E78724F1E72AFC0300E0
S214005F00F8B515460D4A044610680D4A0B4611783A
S214005F1050B122462EF034FB034628B100210C2750
S214005F20C678B14201DB0020F8BD07FB01F45A68D1
S214005F301019125BAA42F7D00131F2E7CC2B0020F1
S214005F40145F002008B5034B1B6803B19847002078
S214005F5008BD00BFC82B00202DE9F74F04460D46AC
S214005F600026454B454F1860454B197033010021FC
S214005F70F85C01360FF0F6FE0C2EF7D10C2D28BF7C
S214005F800C254FF0000901953C4EDFF800A13D4D71
S214005F90DFF8FC80019B4B4502DC03B0BDE8F08FC8
S214005FA023784FF0000B337063887380A388B38028
S214005FB0A379C6F80880B371E379C8F8005088F86A
S214005FC004304FF00003A768A8F80630E3795B4575
S214005FD00ADC012116F8100B0FF0C4FE08F10808C1
S214005FE009F101090C34D5E74FF0000338886B81BE
S214005FF02880FB784FF0000C2B81BA78C5F804A0F7
S214006000002A00920CBF802240222A7379680AF187
S2140060100C02634513DC03EB43030AEB830ABB68FD
S21400602043B1009A4FF6FF71B2FA82F2164B52094C
S21400603032F0B9FC14350BF1010B0C37C6E7B1F89A
S21400604000E00CF1010C22F80CEC91F802E00C32A6
S21400605002F816EC91F804E00C3102F815EC11F891
S21400606009ECBEF1010F14BF4FF0100E4FF0110EE9
S21400607002F814ECCDE700BFCC2B002094420020A1
S214006080145F0020D03100208D5E0000D02B002051
S21400609050340020014B1860704700BFC42B00200E
S2140060A070B5128805460E46FFF72AFF044670B103
S2140060B002790499806814F0C3FF064B1B680BB97D
S2140060C0002070BD3146284622889847F8E786208B
S2140060D0F7E700BFC42B002008B50EF0DFFE02284D
S2140060E006D0012806D0044B18784000C0B208BD80
S2140060F00120FCE70220FAE7135F0020054B10B5ED
S2140061001C682CB1FFF7E8FF2346BDE8104018478F
S21400611010BD00BFC02B0020014B1860704700BFA9
S214006120C02B0020034B1A781AB901221A700AF005
S214006130BBBE7047135F00200022024B1A70FFF7A9
S214006140DDBF00BF135F002037B50446002832D0FD
S2140061500EF0A4FE022830D1608933F011F8E07901
S214006160237A003818BF0120012B637A08BF40F05D
S21400617008000BB140F0100063890BB140F004003A
S214006180257CA188A2790DB1E36873B90C4B10F099
S214006190C5F92178084610F03DFA32F0FDFA0028DD
S2140061A014BF0320002003B030BDCDE90035054BF9
S2140061B010F0B4F9EDE70220F5E70120F3E700BFA1
S2140061C0C0490400C318040008B50CF0CBFF014614
S2140061D030B1044813F0D0FDBDE808400DF066BBB2
S2140061E008BD00BF9CFC0300034B044A5B7C0121F6
S2140061F003201370FFF7E8BD08690020155F002034
S21400620010B50446FFF7F0FFB4F57F4F0BD100241E
S2140062100F4B1A8813449C70FEF716FF2046BDE805
S2140062201040FFF70BBC4FF601739C4204D1BDE84B
S214006230104008482EF08FB84FF602739C4205D1E6
S214006240BDE81040044B1878FFF79CBB10BD00BF9C
S2140062509057002008690020EA6E002010B5074C11
S214006260012122460320FFF79FFD28B92378044A20
S214006270003B18BF0123537410BD00BF155F0020FC
S21400628008690020F8B5564B32251A884FF6FF737A
S2140062909A4218BF03234FF00802524C18BF2370CF
S2140062A0514B1A7030225D70DD7036259A705A7127
S2140062B0DA7137221D7135251A724FF400129D715E
S2140062C04A4D4264C5644A4D01220565494D86180B
S2140062D08565494DC667C565484D494E4566494D75
S2140062E080F848208566484D80F854200567474D5D
S2140062F080F860204567202580F8785080F8845024
S21400630000F12105C0F88850414D80F86C20C0F897
S2140063108C50C0F8806080F89020C0F89440C0F898
S214006320B8303C4B3C4CC0F8BC300223C0F8984018
S2140063303A4C80F8C030C0F8A4400F24384B80F8A0
S214006340A840C0F8C430374B374CC0F8C83082235A
S214006350C0F8AC40354C80F8CC30C0F8B0400924CA
S214006360334B344DC0F8D030334B80F8B440C0F8CF
S214006370D4302C7C314B80F89C20C0F8A00080F8EC
S214006380D820C0F8DC3044B12D4B80F8E420C0F8AB
S214006390E03005F11103C0F8E8304FF0000CCA7980
S2140063A08E6802EB42039F00443006EB830326F818
S2140063B007C0586001200D349870DC701318CB713C
S2140063C0FFF7CEFAFFF74AFFFFF786FE012806D151
S2140063D02B7C23B1BDE8F84016482DF0BCBFF8BDB5
S2140063E09C6E0020EB6E0020165F002005930400D4
S2140063F00100200004930400020020000393040020
S214006400050042000300200002930400040042003E
S21400641007003000FDFF210012001001004042007E
S2140064200093040000FF4401F092040006004200BE
S214006430905700200869002002FF2001EA6E002025
S21400644001FF100113B504460D482DF0EBFE642243
S214006450C0F30F43637083B2B3FBF2F3A0782370EC
S214006460202201212EF0AEF8A078212201212EF064
S214006470A9F80449201D02B0BDE810402EF070B8FF
S2140064809C6E0020E09304000B7870B583704CF689
S2140064901E0303804FF02013C362012380F83030C0
S2140064A080F83C30C3180364124B0446436402234E
S2140064B0114A80F84830114B8263C3644063CA793E
S2140064C08D6802EB420305EB830004F12C06466060
S2140064D00B4E45F8236000238360531CCB71094B99
S2140064E0201DC4E90134FFF7B5FC2046BDE8704026
S2140064F0FFF7A8BFFDFF210021002000069304003F
S2140065000100010345640000F8B54FF6FF73994299
S21400651004460D4609D0B0F87E308B4205D04FF6C3
S214006520FE729142037B01D10BB9F8BDEBB1204658
S2140065302EF015F920462EF0D1F84FF6FE739D4248
S21400654013D1A068FEF746FD6068FEF743FD2EF007
S21400655010F800232373A0674FF47F4260784FF44F
S2140065608171BDE8F8402EF02DB8B4F87E60237B2C
S214006570AE422CBF02260126B34218D0D4E901074A
S214006580637B13B13B4607461846012E45D1FEF7FE
S214006590FDFC3846FEF71EFD2DF0EBFF4FF47F4264
S2140065A0A0674FF48171607826732EF00BF8E389AC
S2140065B0A4F8805004F1B4050BB9238A9BB3B4F851
S2140065C07E30A4F888302DF0D4FF012EC4F8840065
S2140065D0B4F87E20B4F880003CD1821A022EE389FB
S2140065E003D1218A002918BF0B4603EB830303EB74
S2140065F08303990042F2107389B25143B1FBF3F161
S21400660008B1984201D101F6B83128462DF0A8FF0E
S2140066102046BDE8F8402EF0ADB8FEF7DBFC384665
S214006620FEF7B4FCB8E742F21072012E08BF13461C
S214006630A4F87E3014BF0023642360784FF4817181
S214006640A37508222DF0BEFF2846BDE8F840024993
S2140066502DF086BF121AC1E7E0930400094A437B77
S2140066600C211370C3895380038A9380438AD38096
S214006670838A1381B0F87E30538100781130C0B21F
S214006680FFF7A2BB1258002038B5044600780D4D1F
S21400669011302A460C21C0B2FFF786FB80B92B7852
S2140066A0204663736B88E381AB882382EB88638222
S2140066B02B89A3826B89A4F87E302DF0D9FFA075B4
S2140066C038BD00BF12580020024B53F820002EF0B1
S2140066D002B900BFB034002010B50446052923D8FF
S2140066E0DFE801F003080C22221020462EF0E8F81E
S2140066F0002010BD20462EF0E7F8F9E720462EF0E1
S214006700E6F8F5E7E18911B9218A0029F0D082B1CF
S2140067107BB1117864290ED820462DF0C6FF0146BD
S21400672020462EF0BEF8E3E7044813F025FB0120D0
S214006730DFE70320DDE70220DBE700BFC9FC03003C
S21400674010B4054C114654F820001A46BDF8043023
S2140067505DF8044BFFF7C0BFB034002000234FF0B5
S214006760967210B5C0E903233222044682750F4A9A
S2140067708382C267C0F88430A0F888308367A0F8A8
S21400678080308C30FFF766FB094B04F1B400C4E997
S2140067902334FFF75FFB074B04F1DC00C4E92D341C
S2140067A0FFF758FB044BC4E9373410BDFFFF8813CE
S2140067B0B1480300BD470300A547030038B50446AB
S2140067C00B78294A43700D4642F82300FFF7C6FFB0
S2140067D02046FFF759FF4FF44013A36101232377A8
S2140067E084F8283084F8343084F8403004F10D03FF
S2140067F063641E4B1E4AA364022322621D4A84F869
S2140068004C30626204F11602E2621B4A84F8583089
S214006810226304F10C02A263184A84F86430E2632F
S21400682004F10E022265164A84F87030626504F19F
S2140068301002E265134A04F11403226604F1120200
S214006840A266114A6367E266EA79A86802EB420329
S21400685000EB830118344C600C4C40F823400C4B82
S2140068608B60531CEB7138BDB034002002FF210151
S2140068701F5F00200800200000FF300001FF10010D
S21400688003FF210104FF210105FF21010201010888
S2140068904167000010B44FF48274427B0C48013A02
S2140068A0012904FB020006D0022908D059B95DF878
S2140068B0044B2EF005B85DF8044B2EF005B85DF8D5
S2140068C0044B2EF004B803485DF8044B13F054BA9A
S2140068D0D0180020E5FC0300B0F85C302DE9F0414C
S2140068E08B4204460E4639D0437B077C93B31C4A42
S2140068F012789A422ED34FF482751A4A013B05FB52
S214006900032390F80F801B7B42462DF0FDFFB84511
S214006910054601D1FF281FD13A463146204694F855
S21400692090302DF0F1FF2F46054655221221607853
S214006930A4F85C602DF046FEFF2F03D039462046B3
S214006940FFF7A8FFFF2D09D029462046BDE8F041F5
S2140069502EF01AB8FF25DFE70746E6E7BDE8F08128
S214006960085F0020D018002041688268C978D27875
S21400697049B112B10321FFF7AFBF837B002B0CBFD9
S21400698001210221F7E72AB1837B002B0CBF0221ED
S2140069900121F0E7014813F0EFB900BFF6FC030051
S2140069A0037BD3B14368DA7812B18268D278A2B991
S2140069B01B7933B1837B002B0CBF04210521FFF725
S2140069C08BBF83681B792BB1837B002B0CBF052103
S2140069D00421F4E7014813F0CFB9704728FD0300FF
S2140069E0084A437B05211370837B5370C37B9370E7
S2140069F0037CD370037B137100780E30C0B2FFF7B0
S214006A00E3B900BF205F002038B5044600780C4D7F
S214006A100E302A460521C0B2FFF7C6F920B1BDE800
S214006A203840084813F0A8B92B7863736B78A373C3
S214006A30AB78E373EB7823742B79237338BD00BFF0
S214006A40205F002064FD0300024B53F820002DF069
S214006A50E5BF00BFD8340020F8B504460B78424A9C
S214006A6043700D4642F82300404E2DF0F5FFFFF729
S214006A70CBFF6268A3683E483E49D6641165D4657C
S214006A805065C3E91410DE64DC654FF09873022687
S214006A906361012304F10C01E16137491032216280
S214006AA004F10D01A16235492376E16204F10E017D
S214006AB06163334984F82430A16304F10F01216433
S214006AC0304984F83030616404F11001E1642E49E5
S214006AD084F83C3084F84830216584F85460A26518
S214006AE0E879A96800EB400201EB820704F1140C78
S214006AF0C7F804C04FF4817C244F41F82270C218B6
S214006B00D2B202EB420241F822C001EB8207002219
S214006B107A601F4A84F8703022661E4A84F88830ED
S214006B20A2661D4A1D4BE2661D4AC4F88C30626799
S214006B301C4A8319A26704F15C02C4F88020DBB209
S214006B40194A03EB4303C4F8842084F8646084F88D
S214006B507C6001EB830260345460144A033041F8D1
S214006B602320E871F8BD00BFD83400206969000012
S214006B70DF490300A16900000100200102001001A6
S214006B8003003001040030010500210101FC01066C
S214006B904A00210008930400510010000A930400E4
S214006BA00B930400550021006F001800120001042A
S214006BB070B50D460646144613460A460146164864
S214006BC013F0DAF825B92046BDE87040FFF718BB89
S214006BD0072D05D121463046BDE8704000F000BBC9
S214006BE04FF601439D4205D121463046BDE8704030
S214006BF0FFF72ABF062D05D121463046BDE8704076
S214006C0000F0A2B8B5F5817F05D121463046BDE833
S214006C107040FFF759BD70BD93FD03000148FFF7B4
S214006C2039BA00BFB16B00004FF4C01330B5036033
S214006C3001230371074B8C688360CA7902EB420319
S214006C4004EB83056860044844F82300531CCB71AA
S214006C5030BD00BF0C9304000400010138B50024C9
S214006C60044D55F8040B08B12DF006FF01340A2C2C
S214006C70F7D138BD00350020042908B50AD172B115
S214006C806BB113781BB92DF022FF002008BD2DF044
S214006C9014FFFAE7034813F06FF80120F6E7032025
S214006CA0F4E700BFC6FD030010B4054C114654F8C7
S214006CB020001A46BDF804305DF8044BFFF7DCBF31
S214006CC0003500200229024608B50ED004D839B98E
S214006CD010462DF0FCFE06E04029F9D0412907D1E8
S214006CE010462DF0EAFE002008BD2DF0FAFEFAE769
S214006CF0024813F041F80120F6E700BFE6FD030066
S214006D0010B4054C114654F820001A46BDF804305D
S214006D105DF8044BFFF7D6BF00350020426B094BE9
S214006D2052791A7082785A70C2789A70826B12B151
S214006D3090F83C20DA70007804210930014AC0B28D
S214006D40FFF742B8255F0020024B53F820002DF0D5
S214006D50E4BE00BF0035002038B504460078084D74
S214006D6009302A460421C0B2FFF71EF830B96B7806
S214006D70A370AB78E370EB7884F83C3038BD00BF86
S214006D80255F002038B504460078114D09302A46A4
S214006D900421C0B2FFF708F8C8B9A3782A78022BF6
S214006DA00CD004D863B920462DF091FE01E0FF2BED
S214006DB00AD02046BDE838402DF05EBE002AF2D14B
S214006DC020462DF07AFEF4E7002AF9D1EBE738BD2D
S214006DD0255F0020F8B504460B78284A0D4642F891
S214006DE023004370FFF7B8FF636B254A5C631A63A2
S214006DF02046FFF7C7FF20462DF03EFE4FF48013D7
S214006E0063600123626BA66B0532E2601D4A237243
S214006E102261A21C2375A26166B11B4A84F8203049
S214006E20E261E21C6262194A84F82C3004F13C03E9
S214006E30A26223630627EA79A96802EB4203002EC2
S214006E4021F8237001EB83000CBF02230423C370D8
S214006E50012383700E4B04348360531C4460DBB202
S214006E600C4C03EB430341F8234001EB8300002363
S214006E704360094B02328360EA71F8BD003500209A
S214006E80F74A03000340300101FF300102FF100102
S214006E90016D000008000100A96C000028B1034B3A
S214006EA01B78834234BF0020012070470A5F002011
S214006EB070B500250A4C0B4E3378AB4200DC70BD33
S214006EC0D4F8A42042B123791BB16079FFF7E6FF1E
S214006ED010B910462DF030FA0135A834ECE700BFA3
S214006EE0981E00200B5F002008B542790146104628
S214006EF0FFF7D4FFA8B1CB780A48013A042B00EB81
S214006F0082100ED8012B08D81BB9BDE808402DF01A
S214006F10D4BDBDE808402DF0DABDBDE808402DF030
S214006F20E0BD08BD981D002008B542790146104610
S214006F30FFF7B4FFA8B1CB780A48013A042B00EB60
S214006F4082100ED8012B08D81BB9BDE808402DF0DA
S214006F50BEBDBDE808402DF0B0BDBDE808402DF030
S214006F60C0BD08BD981D002010B586B00446FFF7CA
S214006F70B3F8012830D1E278042A2DD8DFE802F0F1
S214006F8013323403030061790846FFF787FF58B3CE
S214006F901648032A00EB811050F80C3C58791DD196
S214006FA0003818BF012063784FF480728DF80430E3
S214006FB04FF48273ADF806300623ADF8083001238F
S214006FC08DF80B3000238DF80A0001A8CDE90323C5
S214006FD08DF81430FFF7B8F806B010BDB0FA80F0A0
S214006FE04009E0E70020DEE70220DCE7981D0020ED
S214006FF010B586B00446FFF76FF8012830D1E27866
S214007000042A2DD8DFE802F0131332030300617957
S2140070100846FFF743FF48B31548032A00EB8110E4
S21400702050F80C3C5B791DD11A1E18BF01226378FC
S2140070308DF80A208DF804304FF48273ADF80630D0
S2140070400623ADF8083001234FF480728DF80B301C
S214007050002301A8CDE903238DF81430FFF774F858
S21400706006B010BDB3FA83F25209E0E70222DEE76B
S214007070981D002010B586B00446FFF72DF80128AD
S21400708012D16378094A8DF804304FF48273ADF854
S21400709006304FF48073CDE90223002301A8049341
S2140070A08DF81430FFF750F806B010BD0800070141
S2140070B010B586B00446FFF70FF8012820D1627895
S2140070C0104B8DF804204FF4827294F8A01094F8B8
S2140070D0A10059701870ADF8062004934FF4807222
S2140070E00223094901A88DF81430CDE90212FFF7F2
S2140070F02BF894F8A130013B18BF012384F8A13087
S21400710006B010BD295F00200800050110B5837881
S214007110044603B30379022B0AD142791046FFF7DF
S214007120BDFE28B10C48013A00EB82102DF0D9FCC8
S214007130A379022B02D12046FFF716FF2046FFF761
S214007140B7FF02236078A4F86C305522BDE81040E3
S21400715012212DF037BA10BD981D00204388094A29
S214007160082113808388538083681B8A938090F855
S214007170A03093718379D37100780430C0B2FEF7E3
S21400718023BE00BF1E58002038B50D4604460178C1
S214007190114812F0F1FD4FF602739D420ED10F4BCF
S2140071A01B782BB963712046BDE83840FFF7D6BF81
S2140071B062790AB19342F6D20123F3E7B5F57F4F21
S2140071C0F1D120462DF026FDA378022B0CBF01221C
S2140071D00022A3689A70E6E702FE03000A5F00201A
S2140071E0024B53F82000FFF7CFBF00BF2835002022
S2140071F038B504460078144D04302A460821C0B23B
S214007200FEF7D2FD20B1BDE83840104812F0B4BDFC
S2140072102B8863806B88E978A380AA88A3681A8283
S214007220AB7984F8A030EB79A371094B1B780BB9C6
S214007230637138BD09B19942FBD9064812F09CFD2E
S21400724023780133F4E700BF1E5800201CFE03001D
S2140072500A5F002045FE0300F8B504460B78474A4F
S2140072600D4642F823004370FFF7C2FFA268444B66
S214007270D465D364434B02265365434BA11C136568
S2140072804FF44013E36001236161E1623F4910322D
S21400729021632265211D3E4AA1633E483E49626540
S2140072A004F1A002A061E163E265E01C611D3B4AB7
S2140072B0206261643A483B492266A21D2374237704
S2140072C084F8283084F8343084F84030A16484F898
S2140072D04C6084F8583084F864306062A266E879BE
S2140072E0AA6800EB400102EB810704F10C0CC7F81A
S2140072F004C04FF0060C2C4F42F82170C118C9B2DA
S21400730001EB410142F821C002EB810700217960C0
S214007310264F84F880302767254F84F89830A76773
S214007320244F254BE767254F84F8746084F88C60FB
S214007330C4F89C3004F16C06831CC4F88470C4F84E
S21400734090601F4F1F4EDBB203EB4303C4F89460FC
S214007350C4F8887002EB83067034746008261A4CF2
S21400736042F82340C31CDBB203EB430302EB830467
S214007370043042F823606160E871F8BD28350020CB
S2140073806B4B0300B54B03000D71000001FF30018D
S21400739004FF20011000300102FF200105FF30012C
S2140073A000FF300103FF2101070001084A00210009
S2140073B00E93040051001000109304001193040073
S2140073C0550021006F0018001200010400239B6A7C
S2140073D0B3F5804F03D21968064A914203D00023C2
S2140073E0037083607047012202709A689B6942604E
S2140073F0F7E700BF07B0CD5E024B034A1A602FF0D6
S2140074002DB800BF0000002002020FF073B53F4BFE
S21400741004461A781AB102221A7002B070BDCDE97D
S21400742000220028F9D001261E7037F027FF384DBD
S214007430384B186017F082FA2B785BB902F0F2F935
S21400744040B935480823354A3549006801F038FE0A
S21400745000B92E70334B5A68E260334A9A601A6E4F
S21400746022605A6E6260D3F87021A2601B6E5C04C4
S2140074702CD52E4AD368D807FCD42D4B1A68531C3B
S21400748029D04FF4801393402A4A13660423294CCC
S2140074904FF0804223664FF48063236610232366F2
S2140074A04FF400536846236601A9226663662DF0F2
S2140074B0C9FB009B2366019B63662B78002BACD030
S2140074C0164B1A6822665B686366A6E71A4AD36894
S2140074D0D907FCD4D1E7194B1B78002BD6D1184B13
S2140074E05A68144B12B94FF480121A66154A52683D
S2140074F012B94FF400121A66134B5B68002BC5D105
S2140075004FF480020B4B1A66C0E700BF2C5F0020CA
S2140075102D5F00206035002074690020643500204F
S214007520007108000080004455CEAC000000044006
S2140075304069002000900044000004502B5F0020AB
S2140075400080055000C005500000065038B5224D9A
S21400755004462B78012B02D001232B7038BD00285F
S214007560FCD02DF094FB013009D02DF090FB40F2BA
S2140075700113984203D0194AD368DB07FCD422686B
S214007580174B1A6662685A66A268C3F87021E268EA
S214007590D40744BF00229A60124B1A68013213D1F6
S2140075A0114A127882B911494968C80748BF1A605B
S2140075B00F4A5268D10744BF01221A600D4A52682A
S2140075C0D20744BF02221A6017F0C0F90A4B1868A7
S2140075D037F04FFE0023C0E72C5F00200000044079
S2140075E000800044406900202B5F0020008005508A
S2140075F000C00550000006506035002070B500241D
S214007600A36AB3F5804F23D21A68134B9A421FD150
S214007610124E337813F0FD0518D14FF4803410481D
S214007620FFF7F4FE032004F04FFC0E4B0320DC6053
S21400763004F02EFC0C4B1C61AB6ADB6998470446D1
S2140076400748FFF783FF0CB901233370204670BD4F
S2140076504FF48174FAE700BF07B0CD5E2B5F0020C1
S2140076605035002000A000440090004413B5204B85
S2140076701B7803B9FEE700231E4CCDE900336A46AB
S21400768008231D49206801F01BFDF8B91B4AD2F8F3
S2140076904031D2F840211F2B4FF0010311D9203A78
S2140076A09340019A1A43019208236A4612492068B9
S2140076B001F08EFE124B134A1A602EF0CFFE02B077
S2140076C010BD9340009A1A430092EDE72D28F1D1A1
S2140076D00A4AD2F84031D2F840211F2B4FF001035E
S2140076E085BF203A93409340019398BF0093DBE711
S2140076F02C5F0020746900200071080000800044A0
S214007700000000200B020FF038B50025AB6A0446D7
S214007710B3F5804F10D21B6BB3F5804F0CD20748E1
S214007720FFF774FEAB6A20461B6B5B689847BDE8A4
S21400773038400248FFF70ABF38BD00BF6C3500204E
S21400774013B50024A36A0190B3F5804F13D21B6BC8
S214007750B3F5804F0FD20948FFF758FEA36A012100
S2140077601B6B01A89B69984704460448FFF7EEFE8A
S214007770204602B010BD4FF48174F9E76C35002046
S21400778070B50026B36A0446B3F5804F0D4612D294
S2140077901B6BB3F5804F0ED20848FFF737FEB36A6F
S2140077A020461B6B29469B69984704460348FFF70B
S2140077B0CDFE204670BD4FF48174FAE76C3500208C
S2140077C070B50026B36A0446B3F5804F0D4612D254
S2140077D01B6BB3F5804F0ED20848FFF717FEB36A4F
S2140077E020461B6B2946DB69984704460348FFF78B
S2140077F0ADFE204670BD4FF48174FAE76C3500206C
S214007800F8B50027BB6A0446B3F5804F0D4616460A
S21400781011D21B6B7BB10948FFF7F8FDBB6A204607
S2140078201B6B324629465B6A984704460348FFF7B7
S2140078308DFE2046F8BD4FF40174FAE76C35002043
S21400784070B50026B36A0446B3F5804F0D4612D2D3
S2140078501B6BB3F5804F0ED20848FFF7D7FDB36A0F
S21400786020461B6B29469B6A984704460348FFF749
S2140078706DFE204670BD4FF40174FAE76C350020AB
S214007880F0B50027BB6A0446B3F5804F0D46164692
S214007890ADF5337D20D21B6BB3F5804F1CD210485C
S2140078A0FFF7B4FDBB6A20461B6B40F2C1225B6A41
S2140078B001A99847044630B10948FFF747FE20461D
S2140078C00DF5337DF0BD836A32461B6B2946DB6AB5
S2140078D001A898470446EFE74FF40174EFE700BFAE
S2140078E06C35002010B50024A36AB3F5804F10D283
S2140078F01B6BB3F5804F0CD20748FFF787FDA36AD2
S2140079001B6B1B6B984704460348FFF71FFE204679
S21400791010BD0124FBE700BF6C350020F0B58FB02A
S214007920044601A80E461546FFF7EEFE9DF80C30FD
S214007930012B12D1B5F5402F27D8B4F5402F24D807
S2140079406319B3F5402F20D821462A46304613F057
S214007950B5FC002420460FB0F0BD0027BB6AB3F587
S214007960804F15D21B6BB3F5804F11D20A48FFF734
S2140079704DFDBB6A2A461B6B314620465B6B98471B
S21400798004460548FFF7E2FDE4E740F20244E1E77B
S21400799040F20114DEE700BF6C350020F0B58FB072
S2140079A0044601A80E461546FFF7AEFE9DF80C30BD
S2140079B0012B1FD1B5F5402F06D8B4F5402F03D8BC
S2140079C06319B3F5402F13D940F2024420460FB096
S2140079D0F0BDE258013225D104339D42F9D82A463B
S2140079E0314620462DF083F90028EDD00024EDE73F
S2140079F00023F2E70027BB6AB3F5804F15D21B6B56
S214007A00B3F5804F11D20A48FFF700FDBB6A2A463D
S214007A101B6B314620469B6B984704460448FFF78D
S214007A2095FDD3E740F20344D0E740F20114CDE7DA
S214007A306C35002070B58EB0044601A80D46FFF7E1
S214007A4063FE9DF80C30012B22D144EA0503C3F3F4
S214007A500C03002B33D1B5F5402F04D940F2024475
S214007A6020460EB070BDB4F5402FF7D82544B5F5C6
S214007A70402FF3D8204604F500542DF031F9AC42DF
S214007A8002D00028F6D1E9E70028E7D00024E7E78F
S214007A900026B36AB3F5804F14D21B6BB3F5804F44
S214007AA010D20A48FFF7B2FCB36A29461B6B204681
S214007AB0DB6B984704460548FFF748FDD0E740F2E1
S214007AC00444CDE740F20114CAE700BF6C3500203D
S214007AD0BFF34F8F0549064BCA6802F4E0621343B2
S214007AE0CB60BFF34F8F00BFFDE700BF00ED00E0A7
S214007AF00400FA0570B5D0B1C9B10E4E431E013967
S214007B0013F8014F2046325D02F00302012A11F8F5
S214007B10012F08BF04F12000B55C05F00305012D18
S214007B2008BF2032801A01D1002CE9D170BD012097
S214007B30FCE700BF71BA04000348044A0449121A5D
S214007B4092102DF020B900BF34410000D042000052
S214007B507066002008B5154B83F30A8800F030F8ED
S214007B60FFF7EAFF124B13498B4212D30020124B49
S214007B7012498B4218D3FDF7B5F8186850F8224022
S214007B80586840F82240013298688242F5D30C3398
S214007B90EAE70022F8E71C6844F8220001325C6835
S214007BA0A242F8D30833E4E70022F8E708000020F2
S214007BB030DF04003CDF04003CDF04003CDF040050
S214007BC0124B134A70B59A60D3F88820114D42F4D0
S214007BD07002C3F888206FF0010205F50054226693
S214007BE041F2FF7262660222C3F8D020BFF34F8FC5
S214007BF0BFF36F8F4FF44036032004F065F903207F
S214007C00E66004F045F92E6170BD00BF00ED00E0AF
S214007C100040000000800044014B1860704700BF21
S214007C2048690020054B1860054B1B6F03F00703DF
S214007C30032B01D135F0D4BB704700BF506900203C
S214007C40008000502DE9F04104464FF001080C2555
S214007C500D4E0CB9BDE8F08194FAA4F0B0FA80F0AD
S214007C600F2808FA00F2C8BF103824EA0204CABF78
S214007C7005FB006205FB0062B4325768002FE8D0AF
S214007C809168C0B2B847E4E77C35002008B50C48D8
S214007C9037F092FB192004F009F928B1192004F0F6
S214007CA013F9192004F0F4F81A2004F0FFF828B1AC
S214007CB01A2004F009F91A2004F0EAF8002008BD9A
S214007CC0749504002DE9F0410E461746054618B394
S214007CD00F2923D80378DBB1013BDBB2022B19D87E
S214007CE0104AD35C6A78D340DB0717D50E4BD3F81F
S214007CF01043ACB937F0C2FA80463A4628463146B9
S214007D0002F042FE404637F0B4FA2046BDE8F08165
S214007D107F23E7E70023E5E72224F6E72124F4E7BC
S214007D200224F2E76493040000C0035010B5044632
S214007D3010B30378E3B1013BDBB2022B1AD8104A2A
S214007D40D35C6278D340DB0718D537F097FA012268
S214007D50617823788A4030214B4341F2100103F1C9
S214007D60A04303F570335A5037F083FA002010BD55
S214007D707F23E6E70023E4E72220F8E72120F6E762
S214007D806493040010B5044610B30378E3B1013BD6
S214007D90DBB2022B1AD8104AD35C6278D340DB07DA
S214007DA018D537F06BFA0122617823788A403021A3
S214007DB04B4342F2100103F1A04303F570335A50CF
S214007DC037F057FA002010BD7F23E6E70023E4E7EC
S214007DD02220F8E72120F6E76493040038B50D4624
S214007DE0044618B311B30378E3B1013BDBB2022BB0
S214007DF01AD8104AD35C6278D340DB0718D537F020
S214007E003DFA30222378534303F1A04303F5703341
S214007E105B696278D34003F001032B7037F029FAD0
S214007E20002038BD7F23E6E70023E4E72220F8E7BA
S214007E302120F6E7649304002DE9F0410D4616462E
S214007E409846044600284FD000294DD001780029D6
S214007E5040D04B1EDBB2022B3ED8254AD25C63785C
S214007E60DA40D20701D4FF2940D1022E01D9042ED0
S214007E703CD137F003FA23780746FF2B05D032466D
S214007E802046296802F0C6FD28602B68013309D118
S214007E902378FF2B06D1174B6078D3F824142DF0E7
S214007EA04DFD286029684B1C18D00C23124A03FB92
S214007EB00122069BC2F8048093602378FF2B04D02F
S214007EC001230E4A8B40C2F82434384637F0D1F9E5
S214007ED0002007E07F22C2E70022C0E7384637F0DE
S214007EE0C8F92D20BDE8F0812220FBE72120F9E724
S214007EF06493040000C003507C35002000D003507B
S214007F0008B502F037FD044B00F05530C3F82004E6
S214007F10BDE80840FFF796BE00E0035008B502F043
S214007F2029FD044B00F0AA30C3F82004BDE8084041
S214007F30FFF788BE00E003502DE9F04F14460546D3
S214007F400E469B46C36B87B001225B6902A9606838
S214007F509847EB6B01225B6903A93046984702A855
S214007F602DF010FB074648B10023A37563754FF04C
S214007F70FF33A360002007B0BDE8F08F03A82DF004
S214007F800EFB0123A375237E04EBC303DE611F846F
S214007F906368B3420ED1206003A82DF022FB4FF099
S214007FA0FF332075A360237D043B022B26D80023D5
S214007FB0A375DFE723681A1A53425341A37503A833
S214007FC02DF00FFB237D834218BFA77503A82DF065
S214007FD0EAFA074602A82DF0E6FA874218BF002301
S214007FE003A818BFA3752DF0E6FA074602A82DF0E1
S214007FF0E2FA87421CBF0023A375D4E703A82DF03E
S214008000D2FA80B1EB6B022230465B6904A998472E
S21400801004A82DF0D7FA0346207D032839D8DFE8D8
S21400802000F03838040903A8F3E7CC22237E04EBDB
S214008030C3031A8401F06EFC109B187003A8277EF9
S2140080402DF0A5FA04EBC70787F82200237E03A8C5
S21400805004EBC303B3F8209093F822702DF0A3FA34
S214008060804603A82DF0A7FA8246B8F1000F15D077
S214008070EB6B022230465B6904A9984704A82DF0F2
S21400808066FA6075637D6BB90023A3754FF0000830
S21400809038E0227E04EBC2021384CBE703A82DF05F
S2140080A041FAEEE794F81680B8F1000FEED0B9F179
S2140080B0000F09D1DFB10123E375637E002B4FD19A
S2140080C0012F42D1677614E06B6C06EB0A015A4228
S2140080D086EA010010421CBF0022A2755A1E0A4002
S2140080E09B1A9945D0D8A37D002BE3D1CEE7E37D3C
S2140080F043B94FF000084B465246314628462CF00E
S2140081008CFFA060A27D12B123694B4423611A49FB
S214008110237E097899422AD901332376BBF1000FD2
S21400812027D032B3E37D23B3B8F1000F21D1032F5C
S2140081301FD0A1684B1C1CD0109B224600932846DB
S2140081400123FFF7F9FEA07513E095F8343063B904
S214008150EB6A0133CFD1032FCDD10123A376C8E735
S214008160012FCFD0032FC4D1F7E79846C3E70023EB
S214008170A375A07DFFE600BF889304002DE9F04FAD
S2140081800E46984600238BB004464FF0FF3110464B
S21400819017468DF8133001F0A7FBB6F5801F20D2E6
S2140081A0314605AA04F108002DF03EF9451C0146AB
S2140081B003D1237CBBB92D2010E0384601F094FB98
S2140081C00122394620460DF113032CF078FF0028D3
S2140081D0EFD09DF8133088F8003000200BB0BDE8D3
S2140081E0F08FB01CE5D1E56A691C36D12046616A7D
S2140081F02CF059FE0546B31C18BF0123DFF8CC90BF
S2140082000193636A626C0293236805A902FB053A30
S214008210E36B05225B695046984705A82DF04DFA9A
S2140082202DF070FA50462DF078FA4FF0000B82468B
S21400823001464B1C05D0636C81EA0A025B4213427E
S21400824011D0294620462CF02EFE029BAB422CD0A5
S214008250BBF1000F2CD10546D3E72368ED1A636CFB
S214008260B5FBF3F5C7E7484601F03EFB0DF11303F7
S21400827049462046019A2CF022FF034690B1B21CD4
S21400828003D0D9F80020B2420CD19DF813200393F6
S2140082900D4B88F8002049461A68384613F00EF849
S2140082A0039B9B46D9F80810C3E7BBF1000F82D0AA
S2140082B0B6F5801F91D2314698F800307A6804F1FE
S2140082C0080001F03FFA88E784930400583D002038
S2140082D02DE9F3410446174698460E46184D816A26
S2140082E0E36A8B4201D04B1C02D102B0BDE8F0819C
S2140082F0284601F0F9FA0122294620460DF1070327
S2140083002CF0DDFE38B14346294620469DF807206E
S214008310B8470028E9D0A9684A1C04D169682046F5
S2140083202CF04EFE0146012EDAD16B6881EA03027C
S214008330636C5B421A4218BF4FF0FF31D0E700BFB4
S2140083402C3D00202DE9F04F4FF0FF334FF6FF7223
S2140083500025044600F10806C0E909238BB0C36275
S21400836005620563304688462DF02FF820462CF02F
S2140083706AFD60BB204641462CF0E5FD20462CF009
S21400838062FD60BB5E200BB0BDE8F08F2368E26B39
S214008390606C576900FB0530052205A9B84705A89B
S2140083A02DF08BF9012807460CD1294620462CF0E3
S2140083B09BFD012F024600D10132294620462CF0B3
S2140083C061FD03E02DF0A3F90028EED10135E36945
S2140083D09D42DBD320462CF036FD0028CAD000256F
S2140083E04FF0FF394FF6FF73CA46A846C4E9085354
S2140083F0E36998450AD3A5EB0905012D2CD84FF65D
S214008400FF72636A93423CD16720BCE72368E26B45
S214008410606C576900FB0830052205A9B84705A817
S2140084202DF04BF9834605A82DF01EF90746584651
S2140084302DF068F968B1574538BFC4F82480B945AF
S21400844028BFB946BD4238BF3D46BA46236A013307
S214008450236208F10108CBE74FF6FF73002563623D
S214008460E3699D42CBD2676C2068E36B052207FB6D
S21400847005005B6905A9984705A82DF0F5F80135B4
S214008480EEE7E26B676C2068694607FB03005569F8
S2140084900522A84768462DF0E7F8626A2368606CF4
S2140084A04B4D00FB02302DF038F94FF0FF33A06241
S2140084B0E3622A466FF00101204605ABFFF75EFE39
S2140084C0002846D1AD6829462046E5622CF097FC88
S2140084D0206320B92046E16A2CF072FDE06229464E
S2140084E020462CF06DFD0546A36A9D4233D12046FA
S2140084F02CF058FC00278046B946E36999453CD3E2
S214008500B84559D92046616A2CF0CDFC00260546B0
S21400851004F1400AB74212D8626C2368694602FB2F
S2140085200539E36B05225B694846984768462DF097
S2140085309BF8534602464946E06B2DF0F0F8294674
S21400854020462CF0B0FC0136B0450546E2D164204A
S21400855019E7A56AB7E7294620462CF050FC236B9E
S214008560294603440746236320462CF029FD05468A
S214008570002FB9D1C4E90B07B6E7636C256805225E
S21400858003FB0955E36B05A95B692846984705A8D0
S2140085902DF093F82DF0B6F858B128462DF0BDF81A
S2140085A0014620462CF02BFC636C143B984208BF17
S2140085B0013709F10109A0E730462CF006FF002339
S2140085C020461946034AFFF783FE0020DBE600BF7D
S2140085D0843D0020AD5003002DE9F041036B90462A
S2140085E0826B07689A4288BF8363426C436A90B086
S2140085F002FB0377C36B0E46052201A95B6904469E
S2140086003846984701A82DF058F8012801463070E2
S21400861057D0656CE26B2368606AD2F814C005FB1D
S2140086200030052206A9E04706A82DF046F80128E6
S2140086304FF0000523D0D4E90A3201219342CDE958
S2140086400B458DF834800E958DF83C102AD11946CE
S21400865020462CF0B5FC236B626C14339B1AE06248
S21400866023630C9B53B99DF83C303BB1626A616C46
S2140086702368E06B01FB02312CF0D7FF0C9DE36B07
S21400868005225B6901A93846984701A82DF015F820
S21400869030702846236BA26B9A4288BFA36310B043
S2140086A0BDE8F081237C33B91C490BAA04F108000D
S2140086B001F096F8D5E72046194A0BABFFF708FEFF
S2140086C0CFE7237C23BB2246164904F1080001F0BD
S2140086D087F8616A20462CF007FC616A421C204637
S2140086E02CF0D0FB054620B9236B626C1344143B78
S2140086F023632046A16A2CF063FC2368A062C01A9C
S214008700636CB0FBF3F0606220462CF09CFCB6E78E
S21400871000232046044AFFF7DBFDDAE77D8E0000E3
S214008720F98D000047510300E350030073B50D4672
S214008730D11E4A421C461B7E4A419A4226D12968CF
S2140087402368994222D3636899421FD8114E0DF1CF
S21400875007033246FFF712FDC0B972686B689A428B
S21400876014D19DF80730DA1E53425341227E9342BD
S2140087700CD1636901336361D4E90323934205D2C4
S2140087802968A26842F8231001332361012002B051
S21400879070BD00BF843D00202DE9F04F9B4689B098
S2140087A09DF848309046514A0193136907465B4549
S2140087B00D46C0F09580D94653680093B9F1000F76
S2140087C07BD0FB6B01225B6905A90098984705A83A
S2140087D02CF0E5FE454B1B68984240F0848005A8C7
S2140087E02CF0E9FE0428064615D105A82CF0EAFE72
S2140087F0009B04461E44019B002B3ED1804512D9A7
S2140088001C46A8EB0008384600992CF0D9FBA9EBCB
S21400881004090090D2E7FB6B02225B69009806A968
S214008820984706A8E2E7A0EB08045C4528BF5C462C
S214008830032C4644ABEB040B1DD9FB6B2946304694
S2140088405B69A208984724F0030304F0030A1E4459
S2140088501D44DDF80480BAF1000FD4D0FB6B012272
S21400886006A930465B6998475246284606A912F084
S21400887025FD5544C7E7A246EBE7824600F0030312
S21400888002932B1803930644039BA6EB0A00A3EB64
S2140088900A05029B9A4514D1BAF1000FB3D0FB6BC0
S2140088A0012206A95B6998475246284606A912F097
S2140088B0C1FE0028DDD04FF03609484609B0BDE8B5
S2140088C0F08FFB6B012206A95B69984704222846B5
S2140088D006A912F0AFFE0028EDD1AAF1040AD3E7EC
S2140088E04FF06309E9E74FF06F09E6E7B03D002077
S2140088F02DE9F0410F4616469846044688B060B308
S21400890090F83450FDB101212CF092FA00210E9B14
S214008910CDE90511CDE902379DF83C30CDF804804D
S2140089208DF81C30237C04968BB90D4901AA04F1FE
S214008930080000F055FFDDE90553E06B002E08BF88
S2140089401D462CF00EFC284608B0BDE8F0812046F7
S214008950044A01ABFFF7BCFCEDE70546F3E700BFB2
S214008960115103002D8700007FB590F84260044641
S21400897001920DF10B030A46304611492CF0F9FB23
S214008980012E0546E36B17D132465B6903A998476B
S2140089909DF80B10039B019A59B19BB243EA024320
S2140089A0012228460393E36B03A99B69984704B00A
S2140089B070BD62F30F03F3E701229B6901A9F5E797
S2140089C0B03D00202DE9F04F99B00E460D920A6991
S2140089D0416C0B931439D31DB3FBF1F3013302EB57
S2140089E0C302036B04469342C0F001820023DFF803
S2140089F004940893E36A48461946059300F074FF0A
S214008A00D6E9033707930B9B022B4DD1CC2F40F0B2
S214008A10D7810D9B3BB1314620462CF000FC656C9F
S214008A201490012044E00120079B656C1B6814939A
S214008A3000F0010000280CBF04230823782F0E93B3
S214008A4049D8059A6B1E1340ED1A3B1D9D423CD239
S214008A50002F3DD0082D3ED80023042506934FF066
S214008A60040A336806990B98C9F80030C9F81070E4
S214008A702CF0BBFD4FEA9A030F93059B89F8140070
S214008A800393002309930C9304930A93616C039B4E
S214008A904A1E1A408B1A27B35544AB4223D8236B81
S214008AA05B1A134423632FE1782F656CB9D8F07DE9
S214008AB00D9B002BBCD0E36B01225B69706816A986
S214008AC0984716A82CF06FFDB4E700250695C6E774
S214008AD004250697C3E7012300254FF0080A0693EE
S214008AE0BFE75345DBD3A3EB0A029742039BB84686
S214008AF028BF90469742534428D90122D9F810102F
S214008B0089F817208F4226D10399C9F804100492D9
S214008B1099F817200AB399F818100398CA1C09EB9D
S214008B20C202506004980131A2F80880907289F859
S214008B301810B8F1000F07D00B9A022A40F0818077
S214008B40099A72B1012209929B46ABE0049A002A68
S214008B5018BF0322DBE70222D9E7039AC9F80420EC
S214008B60E7E70C9A4244032AEED9E26B1846956969
S214008B7014A901220993A847099B05460028E1D0BD
S214008B803D2D40F01E8104F1080303932368059AE7
S214008B90606CA2EB030ABAFBF0FA00FB0A302CF07A
S214008BA0BCFDE16A804620462CF00AFAA26A8242A0
S214008BB000F00F81626CD9F80830511E0B40216B13
S214008BC02768891A0B442363089BE062DF1BB7FB08
S214008BD0F2F7BA4540F0FA80059BB3EB080A12D0CC
S214008BE0E36B4FEA9A0241469B6998478346E36ADD
S214008BF0059A5344E362236B03989B1A434423630A
S214008C002CF0E3FBDA462368616CE06B01FB07316E
S214008C102CF0F8FC20462CF016F920462CF013FA1F
S214008C202063BAF1000F00F0D4803269616CD31D66
S214008C301439B3FBF1F3013302EBC3029042A5D221
S214008C40BFE00D9A002A77D1B8F1030F4FEA9802D9
S214008C506ED9E16B18468D6907991093A847109B4B
S214008C600546C0B918F0030515D0079A28F0030B7F
S214008C7002EB0B019B444FF0FF3215A815922A46D3
S214008C80109312F01BFBE26B5846956915A901225A
S214008C90A8470546109B9B46079A42440792002D1C
S214008CA040F08B80049B16A80193069B009399F8CE
S214008CB014204346316800F0CDFDE36B0F9A9B69A4
S214008CC0039816A99847039A051E089B18BF1346D3
S214008CD0089343465246204603992CF09EF9236B90
S214008CE008F10302A3EB0A0322F003029B1AC9F859
S214008CF008002363002D7FF443AF0C9BA7EB080707
S214008D0043440C93CDF80CB0204603992CF058F948
S214008D1000250390002F7FF4B9AE364A3168936879
S214008D2004F10800E36252680B9B00F00BFD49E07B
S214008D309B46454607999EE79B4606F12002109201
S214008D40F27D7068A2B1002296F818C00A99D5B2D2
S214008D50AC4511D9109D02F1010E35F832508D4206
S214008D6028D90E9806EBC2020144D069084403E0F5
S214008D700E9A0A990A441044E26B15A95569012215
S214008D801193A847159A0A9B1392E26B04339569D0
S214008D905846012213A90A93A847119B054603EBE0
S214008DA00802A2EB0B02042A7FF679AF28B90BF172
S214008DB0040BC5E77246491BC9E7CDF820B088E723
S214008DC070252F46384619B0BDE8F08F4FF0000AE0
S214008DD019E73269616CD31D1439B3FBF1F3013323
S214008DE002EBC302236B9342BFF404AEE9E71C27F1
S214008DF0E8E700BF583D0020032A2DE9F341064668
S214008E000D4617461C4606D1237A012B23D0012097
S214008E1002B0BDE8F081DFF86080096842460DF1D7
S214008E200703FFF7ABF960600028EDD19DF8072037
S214008E30237A032AE8D0D8F804106A689142E3D16E
S214008E40012B2969D4F80CC007D172690CEB010319
S214008E50934202D92074207CDAE708316144E1604D
S214008E603B46012229463046FFF7ACFD60600028ED
S214008E70CAD00020CCE700BF843D00202DE9F34196
S214008E80089C032A1746266806D1237A012B24D08D
S214008E90012002B0BDE8F081DFF8908030464246FF
S214008EA00DF10703FFF76AF960600028EDD1256829
S214008EB0D8F80400A96AD5F844C04840CCF10003AD
S214008EC01840227AE1D1012A09D1E268D8F8103098
S214008ED013447269934202D92074207CD9E728682B
S214008EE0EB6A1B1A081AB3FBFCF3B0FBFCF08342D8
S214008EF00BD1706CF36A421E1340326B121A134485
S214008F00284633632CF05CF8E862D8F81020E36853
S214008F1008321344E36001223B4604492068FFF709
S214008F2051FD60600028B0D00020B2E7843D0020EC
S214008F302DE9F0410025604B0E46D3F8008004462C
S214008F401D6018B921252846BDE8F08190F83470D8
S214008F5007B30A6803689A4240F0A3804A684368E9
S214008F609A4240F09E808A6883689A4240F09980D0
S214008F70CA68C3689A4240F094800A6943699A4274
S214008F8040F08F808A69C36B9A4240F08A804B69B2
S214008F908361D8E768223946856B11F0FFFFD6E972
S214008FA00212336804F1080023607368A5636360E7
S214008FB0336963617369A3612CF019FAB36904F12C
S214008FC04000E3639B68984720B9676C17B16368F5
S214008FD0B3FBF7F794F84330E761002BB2D00023D9
S214008FE0656C2366002D64D0002F62D02368B3FB27
S214008FF0F5F205FB1233002B55D16668B6FBF5F388
S21400900005FB1363002B4ED120462BF0E8FEA36928
S214009010043303449E4248D340F634726369CC3B23
S214009020934244D8B5F5805F43D3032120462BF006
S214009030FFFED4E90001E36B1B6898470546E36B27
S2140090400220DB689847CDB941462046FFF77AF9FB
S2140090506428054604D141462046FFF773F90546C5
S214009060666C5DB9236A2046143E5E432BF0B7FE5D
S214009070A369043303449E4238BF5A25002D0CBF13
S2140090800123002384F8343007D1D4E900010B4AC9
S2140090901368013313602CF044FAE06B2CF061F88F
S2140090A051E75D254FE759254DE75A254BE75F25E4
S2140090B049E75B2547E700BFE8360020E436002096
S2140090C02DE9FF410C4616461F46054680B390F82C
S2140090D034307BB3B1F5801F2ED2DFF860800121DB
S2140090E02BF0A6FE2146424628460DF10F03FFF759
S2140090F045F8044670B99DF80F30012B11D1D8F809
S2140091001030BB4212D10246009031462846FFF787
S21400911043FB0446E86B2CF024F8204604B0BDE878
S214009120F081022B14BF2D246024F3E76324F1E7BB
S2140091302124F2E71124F0E72924EEE7B03D0020D1
S2140091402DE9F04385B00C4617461E460546DDF869
S214009150308098B390F8343093B3B1F5801F31D295
S214009160DFF8649001212BF063FE21464A4628462C
S2140091700DF10F03FFF702F8044688B99DF80F308B
S214009180012B14D1D9F8102006EB08039A4213D30A
S21400919000904346324639462846FFF7FDFA044615
S2140091A0E86B2BF0DEFF204605B0BDE8F083022B0F
S2140091B014BF2D246024F3E76324F1E72124F2E7AB
S2140091C01124F0E72924EEE7B03D002073B50C46E5
S2140091D01646054630B390F834302BB3B1F5801FF1
S2140091E024D201212BF024FE21462846104A0DF1F8
S2140091F00703FEF7C3FF044680B99DF80730032B2C
S2140092000CD0022B0CD1284609492CF008F8306007
S214009210E86B2BF0A6FF204602B070BD2D24F7E7C2
S2140092206124F5E72124F6E71124F4E72924F2E780
S214009230B03D00202DE9F3411E4600230C4617469C
S2140092400546336050B390F834304BB3B1F5801F09
S21400925028D2DFF8548001212BF0EAFD2146424651
S21400926028460DF10703FEF789FF0446A0B99DF8CE
S2140092700730032B10D0022B03BF01233B600423CF
S214009280D8F8103018BF38603360E86B2BF069FFF1
S214009290204602B0BDE8F0812D24F6E72124F7E74A
S2140092A01124F5E72924F3E7B03D002073B5044602
S2140092B0056B2BF094FD636E03449D422CBF002388
S2140092C00123854294BF00252D1A207C84F8503057
S2140092D0656584F85800A8B100230C4E1A46194656
S2140092E0204600962CF05FF8002305461A461946DD
S2140092F0204600962CF060F8E3682844984294BF15
S2140093000020C01AE06502B070BD00BFFFFF0F006E
S2140093102DE9F3471E4643690446B342884617467E
S2140093209DF828904ED300258DF8075020462BF048
S21400933056FDD4F830A082450AD2236AB5EB430F17
S21400934006D2002220460DF10701FFF745F9B8B313
S2140093509DF80730012B05D1002220460DF10701AC
S214009360FFF73AF9B9F1030F06D0314620462BF045
S21400937026FD256B854227D3144D4FF0FF31284636
S21400938000F0B2FA4B46294600222046C5E903768D
S214009390C5F80080FFF716FB236E054663B120462E
S2140093A0FFF784FF94F8503013B994F858301BB187
S2140093B0236E04F150009847284602B0BDE8F087B7
S2140093C00135B3E76225F7E71C25F5E7843D002065
S2140093D02DE9FF410F4690461E46054698B390F885
S2140093E0343093B3B1F5801F31D21A4C02212BF0E2
S2140093F01FFD2246394628460DF10F03FEF7BEFE36
S214009400024678B101234246009339463346284641
S214009410FFF77EFF0446E86B2BF0A3FE204604B061
S214009420BDE8F0819DF80F30012BEBD12169B142E8
S214009430E8D10093414633462846FFF7ADF9044687
S2140094400028DFD1E7E72124E8E71124E6E729240E
S214009450E4E700BFB03D00202DE9F04790F8423029
S21400946086B0012B05460391A1EB020740F0AA80C7
S214009470FF2F03D81E464FF0640807E00226012B94
S21400948014BF4FF032084FF06408013600244FF640
S214009490FF79DFF844A195F84230012B14BF322340
S2140094A064239C4202D35FFA88F40DE005AB2246A3
S2140094B0514628462BF091FE95F84230012B059B2D
S2140094C034D14B452DD1E4B295F84230012B14BF70
S2140094D032226422121BB24217D3012E39D1002247
S2140094E0012B05978DF8132027D1082205A90DF129
S2140094F013002CF02EF99DF81330059A42EA032249
S21400950021462846FFF730FA40B10223324900933D
S2140095102846CC23096803AAFFF7FAFE06B0BDE882
S214009520F087DBB203B902340134B4E7591CCAD061
S2140095309BB2002BF8D10134F6E7102205A90DF1F5
S21400954013002CF006F99DF81330059A42EA034200
S214009550D6E7039A012B059223D10823202205A9DA
S2140095600DF113008DF813302CF0F3F89DF813204E
S214009570120221462846FFF7F7F995F84230611C9B
S214009580012BC9B21AD10028BFD12846BDF8142035
S214009590FFF7EAF90028B8D10234BDF81620E1B288
S2140095A0AFE71023202205A90DF113008DF8133024
S2140095B02CF0CFF89DF813201204DAE70028A4D187
S2140095C0059A9EE7B7F5803F4FF00106BFF457AF08
S2140095D04FF032085AE700BFB03D002070B586B0A5
S2140095E00E4605460392A0B390F834309BB3B1F50F
S2140095F0801F32D202212BF01BFC31462846184A27
S2140096000DF11703FEF7BAFD044618B99DF817309A
S214009610032B0ED10223314600932846CC2303AAFF
S214009620FFF776FE0446E86B2BF09BFD204606B05F
S21400963070BD022B0BD10A4928462BF0F0FD03998A
S21400964002468142EFD02846FFF706FFEAE761248C
S214009650E9E72124EAE71124E8E72924E6E700BF42
S214009660B03D0020F7B50C461646054668B390F8A0
S214009670343063B3B1F5801F2BD202212BF0D8FB18
S21400968021462846144A0DF10703FEF777FDC0B9B8
S2140096909DF80730032B14D0022B14D10E49284610
S2140096A02BF0BDFD471C024639462846FFF7D4FE80
S2140096B0044606B13760E86B2BF053FD204603B036
S2140096C0F0BD2D24F7E76124F5E72124F6E7112401
S2140096D0F4E72924F2E700BFB03D002030B50C4681
S2140096E0054685B028B390F8343023B3B1F5801F13
S2140096F023D202212BF09CFB0DF10F0321462846B6
S2140097000F4AFEF73BFD034688B99DF80F20032A53
S2140097100DD003222146009202462846FFF7F8FDA8
S2140097200446E86B2BF01DFD204605B030BD2D2409
S214009730F7E72124F8E71124F6E72924F4E700BF29
S214009740B03D00202DE9F043466886B3056898468C
S2140097504FF0000CA946AE4655F83C400CF1010C03
S214009760C4F31307013401D0B94217D0B4450EF143
S214009770080EF1D12F46002403E0B44207F1080793
S21400978012D055F8343001340133F6D1C1F3130149
S21400979041EA0851C7E90012BDE8F08341EA0851E2
S2140097A0CEE90012BDE8F083B8F1030F03D1012320
S2140097B00372BDE8F083002303E0B34209F1080911
S2140097C0F5D055F833400133C4F30754032CF4D1D5
S2140097D0C1F3130343EA0853C9E90032BDE8F08336
S2140097E02DE9F0410646406882B0B8B10F46904673
S2140097F00024336853F8345003EBC403C5F3075210
S214009800C5F31301013506D05B683046CDF80080FD
S214009810B84718B1706801348442EAD302B0BDE894
S214009820F08100BF024B1968024B1868FFF780BB37
S214009830546900207469002008B535F012FD014B0C
S214009840186008BDDC3D0020014B186835F004BDEB
S214009850DC3D002073B504462248012A00EAC11107
S2140098609DF8185023F07C4007D9961E012E28D963
S214009870073303F07F03194308E09DF81C300A43C2
S214009880DB0603F0C053134343F060410023C4E9F2
S21400989000108DF80730B5B1202221460DF10700E3
S2140098A02BF057FF1A220DF10700211D2BF051FF58
S2140098B0082063689DF8072043EA8263636002B06D
