S01B00006275696C642F72656C656173652F7A69676265652E73333714
S21400400008100020F97E00008DC600007F0A03001D
S2140040107F0A030095C600009DC600007F0A0300C5
S2140040207F0A03007F0A03007F0A03007F0A03005B
S214004030A1C60000D44D04007F0A03007F0A0300D7
S2140040407F0A03007F0A03007F0A0300117A00003C
S2140040507F0A03007F0A03007F0A03007F0A03002B
S2140040607F0A03007F0A0300A1CB00007F0A03003B
S2140040707F0A03007F0A03007F0A03007F0A03000B
S2140040807F0A03007F0A03007F0A03007F0A0300FB
S2140040907F0A03007F0A03007F0A03007F0A0300EB
S2140040A07F0A0300C1820000A58200007F0A030089
S2140040B07F0A03007F0A03007F0A0300891F0200AD
S2140040C0916503008D650300ED160200A7650300E9
S2140040D095650300491F0200996503007D030200F1
S2140040E0C91F02007F0A03007F0A03007F0A03003D
S2140040F07F0A03007F0A03007F0A03007F0A03008B
S2140041007F0A03007F0A03007F0A03007F0A03007A
S2140041107F0A03007F0A03007F0A03007F0A03006A
S2140041207F0A03007F0A03007F0A03007F0A03005A
S2080041307F0A0300FA
S214004134F0B5114A114C124E00F00105E3695F0711
S21400414413D40DB9334213D103EA00078F4207D1C3
S2140041540B4A1A40002A14BF6FF001000020F0BD7D
S214004164013AEBD16FF00200F9E74FF0FF30F6E7C3
S2140041746FF00100F3E700BF80969800000003503C
S214004184020001000B4B70B5D96911F480310DD1D2
S21400419401244FF48072084E084DF46020462C64C7
S2140041A41A61FFF7C5FF3464EC6070BD6FF0010060
S2140041B4FBE700BF0000035000100350002003502C
S2140041C438B541F6713301220C4C0021E569E363EE
S2140041D40B4B05F48035DA600223606121202361ED
S2140041E4FFF7A6FF10B92120FFF7A2FF0122054B17
S2140041F4DA600DB10023E36338BD00BF000003504E
S214004204001003500020035070B5134C6061E3693E
S2140042145B071ED40E4656F8043B8D18A361AE42C7
S2140042240BD10423002121202361FFF781FF58B915
S214004234BDE870402120FFF77BBF08210846FFF742
S21400424477FF10B10423236170BD56F8043BA361C5
S214004254E5E74FF0FF30F7E7000003502DE9F84399
S214004264154641F67132164B8946DF69DA63012238
S214004274064603F58053DFF8508007F48037DA608B
S21400428455B9284601220F4BDA601FB10022A3F568
S2140042940053DA63BDE8F88306F5005404EA08041C
S2140042A4A41BAC4228BF2C46494622463046FFF79C
S2140042B4ABFF0028E6D12644A1442D1BE0E700BF4F
S2100042C4000003500020035000E0FFFF45
S2140042D02DE9F04F4FF0FD0BC9B09A460DF11B09C2
S2140042E09DF8503108AFCDF80C90CDF808B0019786
S2140042F0059303890446009383790E4690464188C9
S2140043008288407812F08CFB054650B10090A38856
S214004310002062883A4912F0C7FE284649B0BDE838
S214004320F08F99F800002FF085FC38B12846A38856
S2140043306288344912F0B8FE8D25EEE75A463946B3
S21400434099F800002FF01EFC8346002851D0529B9F
S2140043501BB1BDF84C3198424BD8002399F8009019
S2140043600793A9F14102012A5FFA8BF123D8384658
S2140043700139254ADFF898C05FFA81FE734513DBE2
S214004380059B04210792C3B907AF18221F489FED6B
S2140043901A7B02FB060420460A460830394684ED9E
S2140043A0027B17F0A9FB11E010F8011F0133514002
S2140043B00CFB01F2E2E7059B33B123464A4638463A
S2140043C0009610F0AFFAA8E70829DED9B8F1000F7A
S2140043D001D088F80090BAF1000F01D0AAF800B01A
S2140043E0529B002B99D05A46184608A917F084FB12
S2140043F093E7012591E700BF0000000000000000E1
S214004400A8F60300DDF60300C59D1C818010002081
S21400441093010001000000002DE9F04F93B0CDE9B4
S2140044200A32DDE91C530E9353EC102BCDE908013C
S214004430104619468DED060B1E9E16F0E7FD80B160
S214004440DDE906014FF0FF32C54B16F007FE40B916
S214004450DDE906014FF0FF326FF4801316F0E0FD41
S21400446070B1DDE908019DED060B0E9B1E96CDE9A9
S2140044701C53DDE90A3213B0BDE8F04F00F088B9EE
S2140044800022DDE90601002316F0CAFD002800F030
S2140044903381DDE906A303F1004BCBF30A5016F493
S2140044A08063A0F2FF3008BF06250F9316F0DCFAF3
S2140044B09BA3D3E9002316F041FB9BA3D3E900237B
S2140044C016F086F9CBF31304894644F07F518046F4
S2140044D00022A44B504641F4401116F077F994A3FD
S2140044E0D3E9002316F02AFB02460B46404649460F
S2140044F016F06EF916F0BCFD044616F0B5FA8EA35B
S214004500D3E900238046894616F018FB0022964B16
S21400451016F05EF916F0ACFD89A3D3E90023074632
S2140045204946404616F00AFB80463846894616F04D
S2140045309BFA85A3D3E9002316F000FB02460B4640
S2140045404046494616F042F902460B46CDE90C2392
S21400455016F0F4FADDE90C23804689461046194623
S21400456016F036F90022CDE91001804B4046494648
S21400457016F00EFC00227E4B16F02AF902460B4679
S2140045804046494616F004FC00227A4B16F020F905
S21400459002460B464046494616F0FAFBDDE90C2378
S2140045A08046894600204FF0804116F00FF90246FB
S2140045B00B464046494616F00BF902460B46DDE927
S2140045C0100116F0E5FB07F2FF3700226A4B16F0E3
S2140045D0FFF800223B0516F0B1FA52465B468046CD
S2140045E0894616F03BFD002840F08980CDE90C890D
S2140045F004F16303C62B8CBF0527042731051BD5A2
S21400460053A3D3E900235046594616F01DFD002853
S2140046107FD051A3D3E900235046594616F000FD3B
S214004620002876D00027A542C6BF2C1B04F1FF3514
S21400463000253C4646F480660E9B9F422CBF4FF0FA
S2140046400008A3EB070816F0020903D0002F18BFD6
S2140046504FF000083CB1DDE90C235046594616F0F1
S21400466097FB82468B46DDE906010022002316F002
S214004670D7FC10B10BF100439B46DDE9080126F498
S2140046800063CDE90183DDE90A324BEC10AB0095FF
S21400469000F07EF802465FB3DDE9091316F0200F3E
S2140046A000F10105089E0CBF65204520B047DDE9F6
S2140046B008010523002205930A23002CCDE90232C7
S2140046C007F1FF374FEAD473B8BF64422A46019316
S2140046D004970A9B009431F0C9F80246B9F1000F1E
S2140046E006D00B9BC41A0B9B1A190E9BA34245D8E7
S2140046F0104613B0BDE8F08FDDE906ABCDE600222C
S214004700404649461A4B16F043FB013CCDE90C01E6
S2140047106EE7002D90D00F9B002B8DD0013D8BE7D0
S214004720FB799F501344D33FB3C8608B288AC63F9B
S21400473061436F63A787D23F71A379094F930A40FD
S2140047401655B5BBB16B0240EF39FAFE422EE63F76
S2140047502D431CEBE2361A3F0000000080842E41F9
S214004760FFFFEF7F0000F83F0000E03F00002C4016
S21400477000002440000018400000F03F2020DDE943
S2140047800913089DA8470134ADE700BF00000000EC
S2140047902DE9F04F5BEC10AB97B0CDE90501DDE9F4
S2140047A02058CDE90723504652465B465946229F7D
S2140047B016F02CFC70B90323CDE902870193AA4BAF
S2140047C00093DDE90501DDE9072330F081FF17B02E
S2140047D0BDE8F08F4FF0FF326FF480135046594615
S2140047E016F01EFC28B10423CDE9028701939F4BE7
S2140047F0E6E74FF0FF32504659469D4B16F02EFC2A
S21400480068B19C4A07F00403002B08BF03229A4BAA
S2140048101CBF13460422CDE902870192D0E750461A
S2140048208DA3D3E90023594616F018FC38B98CA39B
S214004830D3E900235046594616F0F2FB68B1DDE98D
S2140048400723DDE905014BEC10ABCDE92187209568
S21400485017B0BDE8F04FFFF7DFBD0022002350463B
S214004860594616F0DDFB002800F091805B46524664
S2140048700020002115F0AAFF012382468B460993EB
S21400488017F4806400F08580092D40F285800024AE
S21400489030210EABA5F109020134202C03F8011BD0
S2140048A0A5EB040901D09442F6D15946504616F0BD
S2140048B0DFFB724B054603EBC90393ED007B8DEDE2
S2140048C00A7B16F0D1F802460B465046594615F0BC
S2140048D07DFFDDE90A2316F031F902460B46CDE9E5
S2140048E00C2316F0EDFB064616F0AEF802460B4615
S2140048F0DDE90C0115F06AFF02460B46CDE90C23F4
S21400490000225F4B16F0AAFB002848D0013630463E
S21400491016F09AF802460B46DDE90A0116F08AFB05
S21400492008B100260135B9F1000F45D1284616F02A
S2140049309BF802460B465046594615F047FF0022A4
S2140049404F4B16F06DFB10B9E90700D501350A216B
S2140049500EAB1A19202C0AD095FBF1F001FB10556E
S214004960303502F8015B013405460028F2D107F025
S2140049700302012A55D1B8F1000F52D0099A12B994
S21400498017F00C0F01D008F1FF38302240E00990F4
S21400499076E74FF0060988E7A946002485E7002257
S2140049A0DDE90C01364B16F03BFB0028BBD10EB1FF
S2140049B0F007B8D50136B6E70A210EAB1A19202C37
S2140049C00DD0B6FBF1F001FB1063092E03F13003A6
S2140049D009F1FF3904F1010402F8013B11D8302136
S2140049E0A1440EAA202CB2D04C4504F101030AD1F2
S2140049F004F158020DEB02042E2204F8202C1C466B
S214004A00A5E70646DBE7A1541C46EBE71A5501343A
S214004A10444506D2202CF9D1CDE9028701940EAB8D
S214004A20CEE6202CF8D0099B3BB12D2204F158038A
S214004A306B4403F8202C0134EEE77A0704D504F122
S214004A4058032B226B44F4E73B07E5D504F15803E3
S214004A5020226B44EDE700BF0000000065CDCD418D
S214004A600000000065CDCDC1CB130400CF130400B9
S214004A70FFFFEF7FC2130400C7130400085D0400A5
S214004A800000E03F0000000070B58EB02C22002130
S214004A9003A816F0A1FE64234FF002320893CDE976
S214004AA005230B2301218DF834305B4B8DF8101055
S214004AB01D880D4040F0A980084634F033FF0A22D6
S214004AC0564B574C1A704FF42873ADF812304FF00F
S214004AD0FF332360534B54491B8820460B82534BAD
S214004AE0534A1B68CD828B61524B0D621B884B82EA
S214004AF0514B1B68CB611DF0DDFA20B14FF41B71E2
S214004B004E4835F0AAFF0521206831F0A2F820B102
S214004B1040F27D21494835F0A0FF206815F012FECE
S214004B20474B2068196831F057F90C2535F062FBC1
S214004B306843099035F05EFB68430DEB050107906E
S214004B40206817F00BFD20B140F295213B4835F068
S214004B5084FF25681FF0E6FC00220146284631F057
S214004B60B3F920B140F29721344835F076FF40F291
S214004B700353344D344E2B80052396F90000AB705A
S214004B807F2801D11DF08CFB3378EB7035F032FBBB
S214004B9000EB80008000A88035F02CFB0023C000CE
S214004BA04FF0FF31E880AB604FF0FF3018A3D3E939
S214004BB0002335F009F82549206831F03EF92068D1
S214004BC002A931F05AFD20B14FF434711B4835F07C
S214004BD044FF042220680DEB020131F0D2F80428CD
S214004BE004D040F2D721154835F037FF01A901203F
S214004BF030F0D3FC07F08EFD01201DF0D5FF2CF021
S214004C0036FD1DF0FBFF1DF0E3FA0EB070BD00BFD1
S214004C100A0020FF42030000C65B0020F26200206C
S214004C20E0550020B6760400A4690020BC76040097
S214004C304D990300B4760400B8760400944C040042
S214004C40EC660020D4550020796C0020C199030042
S214004C500348044B834202D0034B03B11847704706
S214004C60A86C0020A86C002000000000064B074936
S214004C70C91A891048BF0131491003D0044B0BB143
S214004C8001481847704700BFA86C0020A86C002099
S214004C900000000010B5064C237843B9FFF7D8FF94
S214004CA0044B13B10448AFF300800123237010BDFA
S214004CB0B0150020000000003C9A040008B5044B24
S214004CC01BB104490448AFF30080BDE80840CDE7B7
S214004CD000000000B41500203C9A0400A3F5803ABA
S214004CE0704700BF154B002B08BF114B9D46FFF7C2
S214004CF0F5FF00218B460F461148124A121A16F08D
S214004D006BFD0C4B002B00D098470B4B002B00D0B4
S214004D1098470020002104000D000B4817F0A2F869
S214004D2016F032FD200029002BF002FB17F088F861
S214004D30000008000000000000000000081000202E
S214004D400810002048630020CDBE010007B50121F1
S214004D5020200DF1070201F033F858B1022301219B
S214004D6020200DF107028DF8073001F039F803B066
S214004D705DF804FB9DF807100229F8D002220948C6
S214004D8015F018FC022301210DF1070220208DF8F2
S214004D90073001F025F82BF025FA4FF4FA6000F002
S214004DA059FEE4E788AE030038B502F0FDF801F0DE
S214004DB0A5F9012805D001F0A1F9022801D001F0DB
S214004DC0C3F9064D2B783BB901F098F90128044643
S214004DD002D12BF090FA2C7038BD00BFA45C0020E6
S214004DE010B5044600882BF0D1F9A37884F8440067
S214004DF0834202BF0123E3702371074B04F11C00BA
S214004E00C4E9073401F032F8224620880349BDE899
S214004E10104000F06FBF00BF23FF0200EDFE02004F
S214004E2070B5C37804460D461646002B34D1D1B172
S214004E30214815F0BFFB0123E370E36CA6600BB1BD
S214004E40E06D9847E368F61A63699E4221D2217E98
S214004E501A480131C9B2217615F0ACFBA36D13B127
S214004E60217EE06D9847E5702BF0CFF915B32379D6
S214004E7003BBA268238A801A83421BD801231048EA
S214004E80237115F097FB236DA3B1E06DBDE870406C
S214004E90184701232376E6E70029E4D1094815F0F0
S214004EA089FB636DE660E5702571002BDBD0E06D55
S214004EB09847D8E770BD00BFB0AE0300C1AE030090
S214004EC0EFAE0300DCAE030070B51E4683880446D2
S214004ED00D46C18002810BB1868070BD8178008846
S214004EE02BF040F80123E370064BA680C4E9033498
S214004EF00C34204600F0BAFF29462046BDE8704034
S214004F002BF07AB96FFF020010B501790446B1FAAA
S214004F1081F1008849092BF09CF821796088B1FA64
S214004F2081F149092BF095F8034B1A68A24204BF99
S214004F3000221A6010BD00BFCC15002070B5437962
S214004F400446A3B100880E4E04F10805336813B179
S214004F500C4B1B786BB121792BF07BF864210A4B44
S214004F603460A3602846BDE870402BF045B9408801
S214004F70E9E7064815F01EFB054B3221A360F1E772
S214004F80CC150020A55C0020094F000005AF0300EB
S214004F903D4F000010B50446E0B10F4815F00AFB7F
S214004FA001236371A37953B9217920882BF051F836
S214004FB0236B7BB1606B0121BDE81040184720468B
S214004FC0FFF7A2FF04F108002BF01BF92046FFF7BD
S214004FD0B5FFEDE710BD00BF3BAF030010B50446BC
S214004FE0F8B1104815F0E6FA00236371A3796BB99F
S214004FF021792088B1FA81F149092BF02AF8236B30
S2140050007BB1606B0021BDE8104018472046FFF7D3
S2140050107BFF04F108002BF0F4F82046FFF78EFF24
S214005020EDE710BD46AF030010B5044668B107486B
S21400503015F0C0FA637920461BB1BDE81040FFF7B3
S214005040CDBFBDE81040FFF7A5BF10BD52AF0300AF
S21400505010B50E4C0E48214615F0ACFA82210D48CC
S21400506015F0A8FA82210220A21E00F0B9FE014621
S21400507030B134F8022C0848BDE8104015F09ABA52
S2140050800648BDE8104015F095BA00BF2657002028
S21400509061AF03007CAF030087AF0300CBAF030014
S2140050A038B50E4C82212246022000F089FEA51C4F
S2140050B0014650B122880A4815F07CFA4522284657
S2140050C0084916F019FD4423238035F8021C064AC9
S2140050D00648BDE8384015F06DBA00BF24570020DA
S2140050E0D6AF030056B003002657002034B00300A6
S2140050F0034B1B781BB18B4201D82BF073B870475B
S214005100206C002010B5044601460E4815F052FAF1
S214005110012C11D10C4B0D481A884FF6FF739A429A
S2140051201EBF0022094B5A742AF079FF02F092F84B
S214005130BDE8104001F064BF0448BDE810402AF006
S21400514070BF00BF9BB00300D46B002078660020C1
S21400515070B500241A4D1B4E3378A3421BDC002486
S214005160194D1A4E3378A3421BDC0024184D194EF5
S2140051703378A3421BDC00F0C1FF012816481CD17F
S2140051802AF04DFF02F066F801F03AFFBDE87040E5
S214005190124800F0D3BF2846FFF722FE01346035E0
S2140051A0DAE728462AF021FF01343435DAE72846C4
S2140051B02AF054FF01343835DAE72AF032FFE5E703
S2140051C034230020AB5C002054270020AC5C002079
S2140051D004210020AA5C002078660020055100000B
S2140051E02DE9F04F87B0FFF75BFFB94B05A8059395
S2140051F02AF058FF054616F0EBF9B64CC2B21F2A45
S214005200627004D9B44815F0D5F900F017FC2946A9
S214005210A01C16F071FC05A82AF044FF054616F0FF
S214005220D7F9C2B21F2A84F8212001D9AB48EAE791
S214005230294604F1220016F05FFC05A82AF032FF8A
S2140052403226044600272578002D40F09F80A44C87
S214005250FFF77EFF2378DFF8C8A2DFF8C882A14FE9
S21400526000939AF8003098F8002039789E4815F098
S214005270A1F93A7898F800109AF8000053180344F9
S214005280DFF894B220782C4603445846DBB2AA4294
S21400529000F3E582012B38BF0123944E0293324679
S2140052A0002335464FF482714FF6FF74029801339F
S2140052B0984213705180948002F10C02F6DC8C4BFD
S2140052C08A498448AB6000F0EFFFE879AB68DFF806
S2140052D0449200EB400003EB800000F0BBFDEB794E
S2140052E0B9F800200133A242EB7103D07F49814810
S2140052F001F0DCF84FF6FF73B9F800207B49D21AAC
S21400530018BF01227C4801F0BBFD4FF00009784C25
S2140053103A784A4500F3CC8200264FF00C09774ACB
S214005320DFF8C8B198F800003978B04200F3D482AC
S21400533046180C21002501FB06B19AF800009423BC
S214005340A8426F4A00F3E6820C253E7898F80030B3
S21400535000274FF482781E44064405FB06B5DFF8A6
S214005360C8A15F4B1B78BB4200F3E78202995F48F7
S21400537000F0FEFD059B56491A468B4240F0F0822F
S214005380604807B0BDE8F04F15F014B9532D0FD1A3
S21400539063784C2B40F04881A378502B40F0448132
S2140053A00122594B1A7005A82AF07CFE04464AE7EB
S2140053B0442D13D16378303B092BF4D8601C2AF0B7
S2140053C07EFE524B524A1978002386B2994202F169
S2140053D06002E8DD22F8466C0133F7E7422D0BD178
S2140053E06378542B54D1A01C00F0D2FC494B188093
S2140053F018462AF058FDD6E7582D33D8412DD2D975
S214005400433D152DCFD801A353F825F0CB57000008
S214005410A7530000A7530000A7530000A75300009F
S214005420A75300007B550000A7530000A7530000B9
S2140054302D55000077540000A7530000A753000026
S214005440A7530000A7530000AD56000029560000E1
S214005450A7530000A7530000A7530000A75300005F
S21400546023570000692D9ED1601C2AF028FE80B2CA
S2140054702AF0B4FE97E71B4B012019780023264A32
S214005480994202F1A8028EDD02F8A60C0133F7E776
S214005490601C00F07DFC0546E01C2AF088FE012119
S2140054A0024628462AF03FFE60211848184C03782A
S2140054B05943621865524FF4FA6111824FF44871ED
S2140054C05161164956831165013303706BE700BFBF
S2140054D0265700208C650020BAB00300D1B0030028
S2140054E0A65C0020A95C0020E1B00300981600200E
S2140054F01017002048160020D0150020581D002048
S2140055009C1B002031B10300A55C0020AB5C002092
S21400551034230020D46B0020581E00208F00030088
S214005520A75C0020A85C002090180020601C00F0FB
S2140055302FFC00224FF034088146CD4F11462AF04A
S214005540F2FD3878CB4D08FB00F325F80390EA18F7
S214005550E3781046693B18BF012393702AF045FD97
S2140055600021C54A3B785160012103FB08550B44D6
S2140055703B7015600F46117415E7601C00F008FCC0
S2140055800022114681462AF0CEFD3422B84DDFF8BF
S214005590E482287802FB00F328F8039008EB030166
S2140055A0E3780846693B18BF01238B702AF01DFD7F
S2140055B0B24A00231046916B31BB00EB83103423B4
S2140055C02A7802FB03838363AD4A00231046D2F891
S2140055D0A410F9B9A82202FB030034232A7802FBA0
S2140055E00383C0F8A4305FB9A34A3B46114652F87D
S2140055F0040BA8B93422287800FB028241F8232045
S2140056002B7801332B70CEE60133042B02F14002D7
S214005610D1D1D9E70133042B02F1A802D7D1E2E7B2
S2140056200133042BE3D1EBE7601C00F0B1FB8046AE
S214005630E01C2AF0BCFD0121024640462AF073FD1C
S21400564060219048904D0278DFF858C251436B189D
S21400565025F801804FF44871198259618B495E83A1
S2140056609965E178A824642904BF012199709CF803
S2140056700030DFF80CE25C430EEB04010EF8043059
S2140056804FF400744C8003240C718C7102EB4204BE
S21400569005EB441532240133DBB201324B718D60C9
S2140056A081F8A04002708CF800307CE6601C00F0A8
S2140056B06FFB00224FF0380A8146DFF8E081114682
S2140056C02AF031FD98F80030714D0AFB03F325F8F7
S2140056D003904FF00109EA1882F80490E37873B15A
S2140056E0E01C00F055FB0022044611462AF01BFD84
S2140056F098F800300AFB03535C8083F806906548F0
S2140057005E4A03789901535498F8001002EB83140C
S214005710C1EBC10205EBC2054A1C656388F8002090
S214005720D2E6601C00F034FB8046E01C00F030FB44
S2140057300546601D2AF03BFD044602460121404610
S2140057402AF0F1FC2246284601212AF0ECFC6020D3
S2140057504FF4487CDFF82CE14B4A9EF8003000FB03
S21400576003F422F80480DFF824811119A1F810C090
S214005770C1F814C04E83C1F85880591CC9B24843BA
S2140057801418A4F810C0C4F814C06683C4F858806F
S21400579094241552404D981C8EF800002878DFF8A7
S2140057A008C1444303EB430301EB41010CEB040E39
S2140057B002EB431302EB41120CF80400CEF804305F
S2140057C0CEF8082001302870EDE5601C00F0E0FA05
S2140057D08046E01C00F0DCFA0022054611464046F2
S2140057E02AF0A1FC00223824114628462AF09BFC09
S2140057F02A48274A03784FF0000E04FB03FC22F8E1
S2140058000C804FF0010802EB0C0181F806E081F8ED
S214005810048003EB0801C9B24C4302EB040C155399
S2140058209C1C04704FF482741D4D8CF806E028789A
S2140058308CF804804443DFF874C0C3EBC303C1EBA9
S214005840C1010CEB040E02EBC30302EBC1020CF821
S2140058500400CEF80430CEF808204044B3E746797A
S21400586001358E4284BF04714471A8300FE500BF35
S214005870AC5C00205427002078660020581D0020CD
S214005880581E0020AB5C002034230020F15000009E
S21400589004210020A85C0020A75C0020AA5C002051
S2140058A0A65C0020A95C00209C1B0020901800200D
S2140058B0B9F1000F06D016F8052C02EB420204EBF5
S2140058C08204B4603146584601F098FE09F1010999
S2140058D00BF1A80B0C361BE571180AD0481E09FB05
S2140058E000B0C07900EB400004EB800409FB01B077
S2140058F08460104609FB0151039201F03DFC3978A3
S2140059001C48314409FB015101F0A4F9039A013601
S214005910403207E5F54218BF11F8050C03911EBF8B
S21400592000EB400004EB80048C6003FB052001F0D4
S214005930A1F8039901350C31FFE4F74218BF15F8BA
S214005940053C29461CBF03EB430304EB830408FB1A
S21400595007A018BFAC6000F03FFF01370C3500E52C
S21400596013F8011D00297FF406AD3B2102F8011C47
S21400597001E500BFF820002007B5012121200DF128
S214005980070200F01DFA18B99DF80720024B1A709E
S21400599003B05DF804FB00BF206C002007B5064B83
S2140059A08DF80700187001210DF10702212000F084
S2140059B017FA03B05DF804FB206C002007B502213F
S2140059C001200DF1060200F0FBF938B9044814F086
S2140059D0F1FDBDF8060003B05DF804FB0020FAE711
S2140059E04EB1030007B50221ADF806000DF1060220
S2140059F0012000F0F5F9014610B1034814F0DAFD75
S214005A0003B05DF804FB00BF6FB1030010B5FFF7ED
S214005A10D5FF04460146074814F0CCFD0121064890
S214005A2014F0C8FD24B9BDE810400120FFF7DABF26
S214005A3010BD00BF9FB10300B1B1030008B5044814
S214005A4014F0B8FD00F0DCF92AF0CCFB2AF0C7FB16
S214005A50C7B1030038B50446084D094B28462B60ED
S214005A6000F004FA002C18BF21462846BDE838404E
S214005A7008BF4FF496712AF0BFBB00BF582800201D
S214005A80DD0003002DE9F043384D91B008AC074621
S214005A90894690460FCD0FC495E80F00002684E88F
S214005AA00F0001250323324C3248CDE90366CDE9C9
S214005AB005668DF80E300796029534F077FF2E486F
S214005AC034F074FF32462D4920468DF8176004F0F6
S214005AD0BDFE334632462A498DF81900009020460E
S214005AE08DF82390CDF82C808DF8216004F0C8FE48
S214005AF00A9020468DF8097004F02AFE204608AA6F
S214005B0005A904F0E3FE02AA204603A92BF00BFD2C
S214005B104FF400721B4B5A62194BE560626A92059D
S214005B2010D46BB94FF40072164B11485A6204F049
S214005B300FFE114834F03DFF002011B0BDE8F083A1
S214005B40013BEBE7002BEDD0094908A82BF01EFD22
S214005B504FF400720B4B06485A6204F0F9FD0648F3
S214005B6034F027FFBDF82000E7E700BF8C4D0400A7
S214005B700040005A345004003050040080841E0058
S214005B8040420F000060005A0122034B1870034B7E
S214005B901980034B1A707047AE5C0020DC6B002047
S214005BA0AD5C0020F8B5454B1B780BB90020F8BD5E
S214005BB0434B1B78012B03D1BDE8F8402AF091BA7D
S214005BC0404B1C884FF6FF739C42EFD03E4834F0A3
S214005BD0EDFE0023260AE4B21A462146304604F0BB
S214005BE077FD012E354604F0010335D015D9B51ED4
S214005BF0012DDBD8002B0BBF4FF480754FF080755E
S214005C004FF470614FF070610BBF01274FF480377F
S214005C100F204FF470202D4B11E0002B0BBF4FF4DC
S214005C2080754FF080754FF470614FF070610BBF58
S214005C3001274FF480370F204FF47020244B1A684A
S214005C4002401CD0BA421AD01A680A4032D11A68EA
S214005C5022EA01022A4316E0002B0BBF4FF48075A0
S214005C604FF080754FF470614FF070610BBF0127E5
S214005C704FF480370F204FF47020164BDFE71A687A
S214005C8022EA00023A431A602AF02BFA0546002858
S214005C908CD0083644EA06102A460321C0B2FFF725
S214005CA0F1FE40F6FF73684300F2FF70B0FBF3F0BE
S214005CB080B27CE795427FF479AFC8E7AD5C002000
S214005CC0AE5C0020DC6B00203450040028C3035078
S214005CD020C3035024C3035010B5044C237823B9C3
S214005CE0034834F063FE0123237010BDB05C00202F
S214005CF0345004002DE9F0431F4C85B00746884613
S214005D009146FFF7E9FF23781BB902F091F90123CA
S214005D1023707BBAADF80C3030220023174E02FBFE
S214005D2003F4315DA51901BB012333554FF0FF3352
S214005D3004F1100012493044AB606F80C5F804804F
S214005D40C5F80C9009F006FC04F108010422314461
S214005D500C4B009503A802F041FAA96802460A48CF
S214005D6014F028FC05B0BDE8F0830133102BD6D123
S214005D70064814F01FFCF5E7AF5C002080280020E2
S214005D800701030019010300D4B1030002B20300A7
S214005D9080B10278A2F14103032B0BD8407830384B
S214005DA0C0B2082806D8054B134413F8413C40EA15
S214005DB0032070474FF6FF70704700BFAC4D0400DD
S214005DC008B50B4642B101460448006803F04AFB9A
S214005DD0BDE808402AF0FCB9022008BDE4660020B1
S214005DE008B50B4642B101460448006803F0C2FC01
S214005DF0BDE808402AF0ECB9022008BDE4660020A1
S214005E00F0B50026124F8DB0FF2300930A223346CA
S214005E10386802A92BF044F9C0B102AB1D4603EB6B
S214005E20800404E055F8043BB34228BF5E1CAC4235
S214005E303868E9D9296803F023FE0028F2D02D2817
S214005E40F0D00DB0BDE8F0402AF0C2B90DB0F0BDFC
S214005E50E466002028B1034B0360034B4360002335
S214005E6083607047190000038C660020FF2307B587
S214005E700021044A0093083009F0F0FA03B05DF8F8
S214005E8004FB00BFF30103000B4604490246086802
S214005E900349097808B12AF0D3B970478C2B002043
S214005EA0B25C0020F7B50C4618B12921194834F029
S214005EB0D4FD246823685E795F8830463946FFF74C
S214005EC0E3FFF0B18568E5B1A089227D39469042AE
S214005ED091BF0020801AA36880B294BF03469B1827
S214005EE0E27C00903046A8470138032803D8DFE854
S214005EF000F0080F0B0D002420462EF003FC204671
S214005F0000E0812003B0F0BD8024F5E79324F3E79A
S214005F108724F1E72AB20300F8B515460D4A044671
S214005F2010680D4A0B46117850B122462AF088F9BF
S214005F30034628B100210C27C678B14201DB0020B9
S214005F40F8BD07FB01F45A681019125BAA42F7D095
S214005F500131F2E78C2B0020B25C002008B5034B21
S214005F601B6803B19847002008BD00BF882B00209F
S214005F702DE9F74F04460D460026454B454F186061
S214005F80454B197033010021F85C013610F036FBE2
S214005F900C2EF7D10C2D28BF0C254FF000090195CB
S214005FA03C4EDFF800A13D4DDFF8FC80019B4B45E1
S214005FB002DC03B0BDE8F08F23784FF0000B33709F
S214005FC063887380A388B380A379C6F80880B3710A
S214005FD0E379C8F8005088F804304FF00003A7684B
S214005FE0A8F80630E3795B450ADC012116F8100BA9
S214005FF010F004FB08F1080809F101090C34D5E794
S2140060004FF0000338886B812880FB784FF0000C37
S2140060102B81BA78C5F804A0002A00920CBF802213
S21400602040222A7379680AF10C02634513DC03EBFD
S21400603043030AEB830ABB6843B1009A4FF6FF712D
S214006040B2FA82F2164B52092EF0ECFA14350BF126
S214006050010B0C37C6E7B1F800E00CF1010C22F892
S2140060600CEC91F802E00C3202F816EC91F804E021
S2140060700C3102F815EC11F809ECBEF1010F14BF53
S2140060804FF0100E4FF0110E02F814ECCDE700BFE3
S2140060908C2B0020C4420020B25C002090310020EF
S2140060A0A55E0000902B002010340020014B1860E5
S2140060B0704700BF842B0020014B1860704700BF5C
S2140060C0882B002070B5128805460E46FFF724FF81
S2140060D0044670B102790499806815F0CFFB064B30
S2140060E01B680BB9002070BD3146284622889847A9
S2140060F0F8E78620F7E700BF842B002008B50FF0EE
S21400610019FB022806D0012806D0044B1878400058
S214006110C0B208BD0120FCE70220FAE7B15C00200F
S214006120054B10B51C682CB1FFF7E8FF2346BDE809
S2140061301040184710BD00BF802B0020014B186090
S214006140704700BF802B0020034B1A781AB9012233
S2140061501A700BF04FBB7047B15C00200022024B58
S2140061601A70FFF7DDBF00BFB15C002037B50446EC
S214006170002832D00FF0DEFA022830D160892EF0E7
S21400618023FEE079237A003818BF0120012B637ABA
S21400619008BF40F008000BB140F0100063890BB157
S2140061A040F00400257CA188A2790DB1E36873B99C
S2140061B00C4B10F0FFFD2178084610F077FE2EF00D
S2140061C02CF9002814BF0320002003B030BDCDE911
S2140061D00035054B10F0EEFDEDE70220F5E7012057
S2140061E0F3E700BFF5020400BED2030008B50DF0C9
S2140061F05FFC014630B1044814F0DCF9BDE8084005
S2140062000DF0FABF08BD00BF9CB20300034B044A62
S2140062105B7C012103201370FFF7E2BD7866002047
S214006220B35C002010B50446FFF7F0FFB4F57F4FCF
S2140062300BD100240F4B1A8813449C70FEF708FFFE
S2140062402046BDE81040FFF705BC4FF601739C42A0
S21400625004D1BDE81040084829F0C9BE4FF60273C5
S2140062609C4205D1BDE81040044B1878FFF796BB5A
S21400627010BD00BF2457002078660020206C002048
S21400628010B5074C012122460320FFF799FD28B9D7
S2140062902378044A003B18BF0123537410BD00BF87
S2140062A0B35C002078660020F8B5564B564C1A882A
S2140062B04FF6FF739A4218BF03234FF0080218BF29
S2140062C02370524B36251A70322230265A70DA70F6
S2140062D0DA714FF400121D711D724D4D9E70C5642B
S2140062E04C4D5E7105654C4D352685654B4D4264BB
S2140062F0C5654B4D012245664A4D9E7185664A4DE1
S21400630086180567494DC6674567202580F878508A
S21400631080F8845000F12105C0F88850444E454D61
S21400632080F84820C0F88C5080F8542080F8602010
S21400633080F86C20C0F8806080F89020C0F8944008
S214006340C0F8B8303C4B3D4CC0F8BC300223C0F817
S21400635098403B4C80F8C030C0F8A4400F24394B1E
S21400636080F8A840C0F8C430374B384CC0F8C83066
S2140063708223C0F8AC40364C80F8CC30C0F8B04031
S2140063800924344B344DC0F8D030344B80F8B44038
S214006390C0F8D4302C7C324B80F89C20C0F8A0008B
S2140063A080F8D820C0F8DC3044B12E4B80F8E420CA
S2140063B0C0F8E03005F11103C0F8E8304FF0000CEB
S2140063C0CA798E6802EB42039F00443006EB8303D3
S2140063D026F807C0586001200D349870DC7013183A
S2140063E0CB71FFF7C9FAFFF74BFFFFF787FE0128CF
S2140063F006D12B7C23B1BDE8F840174829F0F7BD3D
S214006400F8BD00BFD46B0020216C0020B45C0020D7
S214006410C54D040001002000C44D04000200200009
S214006420C34D040003002000C24D040004004200D7
S2140064300500420007003000FDFF21001200100199
S21400644000404200C04D040000FF4401B04D04006F
S21400645006004200245700207866002002FF200134
S214006460206C002001FF100113B504460D4829F0EA
S21400647025FD6422C0F30F43637083B2B3FBF2F3CF
S214006480A07823702022012129F0FCFEA07821228A
S214006490012129F0F7FE0449201D02B0BDE8104096
S2140064A029F0AABED46B0020E09304000B7870B5E8
S2140064B083704CF61E0303804FF02013C362012343
S2140064C080F8303080F83C30C3180364124B044622
S2140064D043640223114A80F84830114B8263C36438
S2140064E04063CA798D6802EB420305EB830004F132
S2140064F02C0646600B4E45F8236000238360531C31
S214006500CB71094B201DC4E90134FFF7AFFC2046D0
S214006510BDE87040FFF7A8BFFDFF21002100200066
S214006520C64D04000100010369640000F8B54FF68B
S214006530FF73994204460E4609D0B0F87E308B426F
S21400654005D04FF6FE729142037B01D10BB9F8BD20
S214006550EBB1204629F073FF204629F033FF4FF6B3
S214006560FE739E4213D1A068FEF738FD6068FEF702
S21400657035FD29F04AFE00232373A0674FF47F42BF
S21400658060784FF48171BDE8F84029F07BBEB4F81E
S2140065907E50237BB5422CBF02250125AB4218D086
S2140065A0D4E90107637B13B13B4607461846012D25
S2140065B041D1FEF7EFFC3846FEF710FD29F025FE28
S2140065C04FF47F42A0674FF481716078257329F0FD
S2140065D059FEE389A4F8806004F1B4060BB9238A57
S2140065E07BB3B4F87E30A4F8883029F00EFE012D77
S2140065F0B4F87E30B4F88020C4F8840038D1D31ABA
S214006600022DE18903D1208A002818BF014659438C
S2140066106423594342F21073B1FBF3F10AB19A4274
S21400662001D101F6B831304629F0E6FD2046BDE836
S214006630F84029F00FBFFEF7D1FC3846FEF7AAFC5B
S214006640BCE742F21072012D08BF1346A4F87E3054
S21400665014BF0023642360784FF48171A375082269
S21400666029F010FE3046BDE8F840024929F0C4BDC6
S2140066709B1AC5E7E0930400094A437B0C2113707C
S214006680C3895380038A9380438AD380838A138185
S214006690B0F87E30538100781130C0B2FFF7A0BB4F
S2140066A0A657002038B5044600780D4D11302A460E
S2140066B00C21C0B2FFF784FB80B92B7820466373A9
S2140066C06B88E381AB882382EB8863822B89A38265
S2140066D06B89A4F87E3029F03FFEA07538BD00BF58
S2140066E0A6570020024B53F8200029F05EBF00BFDB
S2140066F07034002010B50446052923D8DFE801F0E1
S21400670003080C222210204629F044FF002010BD6A
S214006710204629F043FFF9E7204629F042FFF5E737
S214006720E18911B9218A0029F0D082B17BB11178B4
S21400673064290ED8204629F02CFE0146204629F072
S2140067401AFFE3E7044813F035FF0120DFE70320D4
S214006750DDE70220DBE700BFC9B2030010B4054C3A
S214006760114654F820001A46BDF804305DF8044B74
S214006770FFF7C0BF7034002000234FF0967210B5AC
S214006780C0E903233222044682750F4A8382C26719
S214006790C0F88430A0F888308367A0F880308C304A
S2140067A0FFF764FB094B04F1B400C4E92334FFF798
S2140067B05DFB074B04F1DC00C4E92D34FFF756FB04
S2140067C0044BC4E9373410BDFFFF8813850503006A
S2140067D0910403007904030038B504460B78294A6F
S2140067E043700D4642F82300FFF7C6FF2046FFF72A
S2140067F059FF4FF44013A3610123237784F8283010
S21400680084F8343084F8403004F10D0363641E4B82
S2140068101E4AA364022322621D4A84F84C30626238
S21400682004F11602E2621B4A84F85830226304F12F
S2140068300C02A263184A84F86430E26304F10E0284
S2140068402265164A84F87030626504F11002E2652B
S214006850134A04F11403226604F11202A266114AD6
S2140068606367E266EA79A86802EB420300EB8301FD
S21400687018344C600C4C40F823400C4B8B60531C77
S214006880EB7138BD7034002002FF2101BD5C002092
S2140068900800200000FF300001FF100103FF210167
S2140068A004FF210105FF2101020101085D670000C8
S2140068B010B44FF48274427B0C48013A012904FB61
S2140068C0020006D0022908D059B95DF8044B29F019
S2140068D061BE5DF8044B29F061BE5DF8044B29F0FB
S2140068E060BE03485DF8044B13F064BE90180020A9
S2140068F0E5B20300B0F85C302DE9F0418B42044667
S2140069000E4639D0437B077C93B31C4A12789A42D2
S2140069102ED34FF482751A4A013B05FB032390F8E9
S2140069200F801B7B424629F059FEB845054601D12B
S214006930FF281FD13A463146204694F8903029F079
S2140069404DFE2F460546552212216078A4F85C605D
S21400695029F098FCFF2F03D039462046FFF7A8FF02
S214006960FF2D09D029462046BDE8F04129F076BE25
S214006970FF25DFE70746E6E7BDE8F081A65C0020D6
S2140069809018002041688268C978D27849B112B15F
S2140069900321FFF7AFBF837B002B0CBF0121022131
S2140069A0F7E72AB1837B002B0CBF02210121F0E719
S2140069B0014813F0FFBD00BFF6B20300037BD3B15E
S2140069C04368DA7812B18268D278A2B91B7933B1FB
S2140069D0837B002B0CBF04210521FFF78BBF836848
S2140069E01B792BB1837B002B0CBF05210421F4E718
S2140069F0014813F0DFBD704728B30300084A437B05
S214006A0005211370837B5370C37B9370037CD37014
S214006A10037B137100780E30C0B2FFF7E1B900BFF8
S214006A20BE5C002038B5044600780C4D0E302A4671
S214006A300521C0B2FFF7C4F920B1BDE838400848C8
S214006A4013F0B8BD2B7863736B78A373AB78E373DE
S214006A50EB7823742B79237338BD00BFBE5C00200F
S214006A6064B30300024B53F8200029F041BE00BF78
S214006A7098340020F8B504460B78424A43700D4619
S214006A8042F82300404E29F051FEFFF7CBFF626824
S214006A90A3683E483E49D6641165D4655065C3E98F
S214006AA01410DE64DC654FF09873022663610123E0
S214006AB004F10C01E16137491032216204F10D0145
S214006AC0A16235492376E16204F10E016163334920
S214006AD084F82430A16304F10F012164304984F85E
S214006AE03030616404F11001E1642E4984F83C30D2
S214006AF084F84830216584F85460A265E879A9686E
S214006B0000EB400201EB820704F1140CC7F804C046
S214006B104FF4817C244F41F82270C218D2B202EBA7
S214006B20420241F822C001EB820700227A601F4A27
S214006B3084F8703022661E4A84F88830A2661D4AA1
S214006B401D4BE2661D4AC4F88C3062671C4A8319E6
S214006B50A26704F15C02C4F88020DBB2194A03EB9A
S214006B604303C4F8842084F8646084F87C6001EBF6
S214006B70830260345460144A033041F82320E871DD
S214006B80F8BD00BF9834002085690000B3060300F6
S214006B90BD69000001002001020010010300300161
S214006BA0040030010500210101FC01064A00210015
S214006BB0C84D040051001000CA4D0400CB4D04001F
S214006BC0550021006F0018001200010470B50D4634
S214006BD00646144613460A4601461A4813F0EAFCCF
S214006BE025B92046BDE87040FFF71CBB072D05D130
S214006BF021463046BDE8704000F0C4BC4FF6014365
S214006C009D4205D121463046BDE87040FFF72ABFB9
S214006C10062D05D121463046BDE8704000F066BA24
S214006C20B5F5817F05D121463046BDE87040FFF7B7
S214006C3059BD202D04D12046BDE8704000F0ECB8C8
S214006C4070BD00BF93B303000148FFF72FBA00BF23
S214006C50CD6B00004FF4C01330B503600123037101
S214006C60074B8C688360CA7902EB420304EB83050A
S214006C706860044844F82300531CCB7130BD00BF45
S214006C80CC4D0400040001010368064A0C21136081
S214006C904368536003891381438922205381FFF799
S214006CA09FB800BFC034002010B50368044686B005
S214006CB0FBB1114813F07EFCA37B104A8DF804301C
S214006CC04FF48273ADF806300123CDE9022300238A
S214006CD001A804938DF81430FFF748FA204661891E
S214006CE029F034FD2046FA2150F8143B594329F088
S214006CF083FA06B010BD00BFC6B303002000000133
S214006D0010B5064C236843B1054813F053FC2068C1
S214006D10BDE81040418929F019BD10BDCC340020D3
S214006D20E7B3030070B5364910460C68BDF810206E
S214006D30002C5ED003285CD8DFE800F0021E274552
S214006D40002B5AD0022A58D91D78B3F80160291EA4
S214006D5018BF012132462B4813F02CFC2DB13146CA
S214006D60204629F0F3FC002070BDE573FA20636826
S214006D70584329F0C8FAF6E7234813F01BFCE37BD8
S214006D80002B38D00023E373F0E7002B35D0032A1E
S214006D9033D91D681D48294613F00CFC1C4B2A1FCE
S214006DA09A4201D90220DFE723680BB19D42F9D849
S214006DB023899D42F6D3E37B6560B3B9FA20684326
S214006DC029F0A1FA11E0002BCED0012ACCD91D88DB
S214006DD01048294613F0EEFB002DE3D063689D4271
S214006DE0E0D8E37B2581002BE8D12046FFF74CFF57
S214006DF0B9E70120B8E70420B6E70320B4E700BFF0
S214006E00CC3400200AB4030041B4030060B403008D
S214006E10FCFF6D008BB4030038B5154B1C6834B30B
S214006E20F0B92168134813F0C5FB23683BB16268CC
S214006E30934204D2104813F0BDFB6368236004F14C
S214006E401405284629F0DDF9236823B1FA212846DF
S214006E50594329F0D1F92046BDE83840FFF714BF62
S214006E60032804D16189054813F0A4FBF3E738BD75
S214006E70CC340020B6B40300E4B4030019B5030014
S214006E8070B53E4B0D46044609781860002A6FD14F
S214006E9001231A46A1730021E1730121A1814FF459
S214006EA06151C4E900132823354E22810C21324655
S214006EB022206381FEF784FF60B9D6E900230AB179
S214006EC09A4207D3318999429FBFC4E90023738948
S214006ED0218163812B4B2C4AE363042384F84030E2
S214006EE084F84C30E3182365284BA26463650223BC
S214006EF004F10802E265264A84F85830226604F156
S214006F000A02A266234A84F8643084F8703004F1DA
S214006F100C03E26663676464EA79A86802EB4203DE
S214006F2000EB830104F13C064E601B4E40F82360E4
S214006F30FA261A4B1A488B60531CEB71FFF7BCF805
S214006F40208904F11405704329F0DDF96189204693
S214006F5029F0FCFB134B2846C4E90534FEF786FFF0
S214006F60216849B128467143BDE8704029F044B90C
S214006F704FF4F07302228DE770BD00BFCC340020C2
S214006F80C03400200000230101002300020021007D
S214006F9003002101FDFF210020000105256D0000F2
S214006FA0016D0000A96C0000134B10B51C680CB3F3
S214006FB0E37BEBB129F029F92369C01A002809DB25
S214006FC00E4813F0F7FA0023FA20E3736368584379
S214006FD029F099F9E37B5BB12489FA235C4329F015
S214006FE09DF9A04206D02046BDE8104029F08BB996
S214006FF06468F2E710BD00BFCC34002046B503003D
S21400700038B50024044D55F8040B08B129F0B1FB3F
S21400701001340A2CF7D138BDD0340020042908B535
S2140070200AD172B16BB113781BB929F0CDFB0020E1
S21400703008BD29F0BFFBFAE7034813F0BBFA0120AE
S214007040F6E70320F4E700BF80B5030010B4054C54
S214007050114654F820001A46BDF804305DF8044B7B
S214007060FFF7DCBFD03400200229024608B50ED058
S21400707004D839B9104629F0A7FB06E04029F9D014
S214007080412907D1104629F095FB002008BD29F0BC
S214007090A5FBFAE7024813F08DFA0120F6E700BFD9
S2140070A0A0B5030010B4054C114654F820001A464B
S2140070B0BDF804305DF8044BFFF7D6BFD03400208F
S2140070C0426B094B52791A7082785A70C2789A705D
S2140070D0826B12B190F83C20DA70007804210930F7
S2140070E0014AC0B2FEF77CBEC35C0020024B53F8D8
S2140070F0200029F08FBB00BFD034002038B50446EE
S2140071000078084D09302A460421C0B2FEF758FE22
S21400711030B96B78A370AB78E370EB7884F83C30CA
S21400712038BD00BFC35C002038B504460078114D5A
S21400713009302A460421C0B2FEF742FEC8B9A37839
S2140071402A78022B0CD004D863B9204629F03CFBE1
S21400715001E0FF2B0AD02046BDE8384029F009BBE5
S214007160002AF2D1204629F025FBF4E7002AF9D1BF
S214007170EBE738BDC35C0020F8B504460B78284A18
S2140071800D4642F823004370FFF7B8FF636B254AAD
S2140071905C631A632046FFF7C7FF204629F0E9FA2A
S2140071A04FF4801363600123626BA66B0532E260C6
S2140071B01D4A23722261A21C2375A26166B11B4A76
S2140071C084F82030E261E21C6262194A84F82C30AE
S2140071D004F13C03A26223630627EA79A96802EB5E
S2140071E04203002E21F8237001EB83000CBF02231C
S2140071F00423C370012383700E4B04348360531C36
S2140072004460DBB20C4C03EB430341F8234001EB34
S214007210830000234360094B02328360EA71F8BDA5
S214007220D0340020F10703000340300101FF300195
S21400723002FF1001A5700000080001004D7000005C
S21400724028B1034B1B78834234BF002001207047CF
S214007250A85C002070B500250A4C0B4E3378AB4274
S21400726000DC70BDD4F8A42042B123791BB160794C
S214007270FFF7E6FF10B9104628F0AAFE0135A8343D
S214007280ECE700BF581E0020A95C002008B5427934
S21400729001461046FFF7D4FFA8B1CB780A48013A5A
S2140072A0042B00EB82100ED8012B08D81BB9BDE8C2
S2140072B0084029F07FBABDE8084029F085BABDE845
S2140072C0084029F08BBA08BD581D002008B5427941
S2140072D001461046FFF7B4FFA8B1CB780A48013A3A
S2140072E0042B00EB82100ED8012B08D81BB9BDE882
S2140072F0084029F069BABDE8084029F05BBABDE845
S214007300084029F06BBA08BD581D002010B586B09D
S2140073100446FEF7F3FE012830D1E278042A2DD881
S214007320DFE802F013323403030061790846FFF702
S21400733087FF58B31648032A00EB811050F80C3C20
S21400734058791DD1003818BF012063784FF4807239
S2140073508DF804304FF48273ADF806300623ADF88E
S214007360083001238DF80B3000238DF80A0001A8A1
S214007370CDE903238DF81430FEF7F8FE06B010BDF5
S214007380B0FA80F04009E0E70020DEE70220DCE704
S214007390581D002010B586B00446FEF7AFFE012843
S2140073A030D1E278042A2DD8DFE802F01313320336
S2140073B0030061790846FFF743FF48B31548032AE0
S2140073C000EB811050F80C3C5B791DD11A1E18BFDB
S2140073D0012263788DF80A208DF804304FF482730A
S2140073E0ADF806300623ADF8083001234FF480725E
S2140073F08DF80B30002301A8CDE903238DF8143057
S214007400FEF7B4FE06B010BDB3FA83F25209E0E709
S2140074100222DEE7581D002010B586B00446FEF7AF
S2140074206DFE012812D16378094A8DF804304FF4B6
S2140074308273ADF806304FF48073CDE90223002343
S21400744001A804938DF81430FEF790FE06B010BD28
S2140074500800070110B586B00446FEF74FFE012867
S21400746020D16278104B8DF804204FF4827294F885
S214007470A01094F8A10059701870ADF80620049377
S2140074804FF480720223094901A88DF81430CDE923
S2140074900212FEF76BFE94F8A130013B18BF0123E1
S2140074A084F8A13006B010BDC75C002008000501B6
S2140074B010B58378044603B30379022B0AD14279C8
S2140074C01046FFF7BDFE28B10C48013A00EB8210CB
S2140074D029F084F9A379022B02D12046FFF716FF84
S2140074E02046FFF7B7FF02236078A4F86C305522D9
S2140074F0BDE81040122128F0C5BE10BD581D002062
S2140075004388094A082113808388538083681B8A2E
S214007510938090F8A03093718379D371007804300B
S214007520C0B2FEF75DBC00BFB257002038B50D46AE
S21400753004460178114813F03DF84FF602739D4259
S2140075400ED10F4B1B782BB963712046BDE838402F
S214007550FFF7D6BF62790AB19342F6D20123F3E76A
S214007560B5F57F4FF1D1204629F0D1F9A378022B4B
S2140075700CBF01220022A3689A70E6E7BCB50300A0
S214007580A85C0020024B53F82000FFF7CFBF00BFD7
S214007590F834002038B504460078144D04302A46E6
S2140075A00821C0B2FEF70CFC20B1BDE838401048F8
S2140075B013F000B82B8863806B88E978A380AA88CC
S2140075C0A3681A82AB7984F8A030EB79A371094BD3
S2140075D01B780BB9637138BD09B19942FBD90648CF
S2140075E012F0E8FF23780133F4E700BFB25700201B
S2140075F0D6B50300A85C0020FFB50300F8B5044626
S2140076000B78474A0D4642F823004370FFF7C2FF47
S214007610A268444BD465D364434B02265365434B60
S214007620A11C13654FF44013E36001236161E1621E
S2140076303F49103221632265211D3E4AA1633E4820
S2140076403E49626504F1A002A061E163E265E01CC8
S214007650611D3B4A206261643A483B492266A21D8E
S2140076602374237784F8283084F8343084F8403044
S214007670A16484F84C6084F8583084F86430606202
S214007680A266E879AA6800EB400102EB810704F1E4
S2140076900C0CC7F804C04FF0060C2C4F42F82170B3
S2140076A0C118C9B201EB410142F821C002EB8107C3
S2140076B000217960264F84F880302767254F84F8AC
S2140076C09830A767244F254BE767254F84F87460EA
S2140076D084F88C60C4F89C3004F16C06831CC4F8F3
S2140076E08470C4F890601F4F1F4EDBB203EB430359
S2140076F0C4F89460C4F8887002EB83067034746033
S21400770008261A4C42F82340C31CDBB203EB4303A3
S21400771002EB8304043042F823606160E871F8BD30
S214007720F834002065080300AF080300B1740000B9
S21400773001FF300104FF20011000300102FF20018C
S21400774005FF300100FF300103FF2101070001089B
S2140077504A002100CE4D040051001000D04D040018
S214007760D14D0400550021006F00180012000104DE
S21400777000239B6AB3F5804F03D21968064A9142EC
S21400778003D00023037083607047012202709A685A
S2140077909B694260F7E700BF07B0CD5E024B034A25
S2140077A01A602AF0D8BC00BF0000002002020FF0CA
S2140077B073B53F4B04461A781AB102221A7002B00B
S2140077C070BDCDE900220028F9D001261E7033F0E6
S2140077D04FF8384D384B186017F0CEFC2B785BB955
S2140077E002F0F2F940B935480823354A35490068B1
S2140077F001F038FE00B92E70334B5A68E260334A07
S2140078009A601A6E22605A6E6260D3F87021A26087
S2140078101B6E5C042CD52E4AD368D807FCD42D4B9F
S2140078201A68531C29D04FF4801393402A4A1366D3
S2140078300423294C4FF0804223664FF4806323666E
S214007840102323664FF400536846236601A9226678
S214007850636629F074F8009B2366019B63662B78A9
S214007860002BACD0164B1A6822665B686366A6E7E8
S2140078701A4AD368D907FCD4D1E7194B1B78002BDA
S214007880D6D1184B5A68144B12B94FF480121A66A8
S214007890154A526812B94FF400121A66134B5B6809
S2140078A0002BC5D14FF480020B4B1A66C0E700BF11
S2140078B0CA5C0020CB5C002030350020E466002047
S2140078C034350020007108000080004455CEAC001E
S2140078D000000440B0660020009000440000045001
S2140078E0C95C00200080055000C00550000006500E
S2140078F038B5224D04462B78012B02D001232B707D
S21400790038BD0028FCD029F03FF8013009D029F016
S2140079103BF840F20113984203D0194AD368DB07BC
S214007920FCD42268174B1A6662685A66A268C3F8C7
S2140079307021E268D40744BF00229A60124B1A688E
S214007940013213D1114A127882B911494968C80721
S21400795048BF1A600F4A5268D10744BF01221A6016
S2140079600D4A5268D20744BF02221A6017F00CFC78
S2140079700A4B186832F077FF0023C0E7CA5C002085
S2140079800000044000800044B0660020C95C00206F
S2140079900080055000C0055000000650303500201D
S2140079A070B50024A36AB3F5804F23D21A68134B30
S2140079B09A421FD1124E337813F0FD0518D14FF4BA
S2140079C080341048FFF7F4FE032004F04FFC0E4B03
S2140079D00320DC6004F02EFC0C4B1C61AB6ADB69F8
S2140079E0984704460748FFF783FF0CB90123337016
S2140079F0204670BD4FF48174FAE700BF07B0CD5E35
S214007A00C95C00202035002000A0004400900044FF
S214007A1013B5204B1B7803B9FEE700231E4CCDE9B7
S214007A2000336A4608231D49206801F01BFDF8B99B
S214007A301B4AD2F84031D2F840211F2B4FF00103E9
S214007A4011D9203A9340019A1A43019208236A46B4
S214007A501249206801F08EFE124B134A1A602AF073
S214007A607AFB02B010BD9340009A1A430092EDE7ED
S214007A702D28F1D10A4AD2F84031D2F840211F2BE6
S214007A804FF0010385BF203A93409340019398BF7F
S214007A900093DBE7CA5C0020E46600200071080063
S214007AA000800044000000200B020FF038B50025CF
S214007AB0AB6A0446B3F5804F10D21B6BB3F5804F0C
S214007AC00CD20748FFF774FEAB6A20461B6B5B6858
S214007AD09847BDE838400248FFF70ABF38BD00BFE8
S214007AE03C35002013B50024A36A0190B3F5804FFF
S214007AF013D21B6BB3F5804F0FD20948FFF758FE21
S214007B00A36A01211B6B01A89B6998470446044899
S214007B10FFF7EEFE204602B010BD4FF48174F9E781
S214007B203C35002070B50026B36A0446B3F5804F96
S214007B300D4612D21B6BB3F5804F0ED20848FFF7E6
S214007B4037FEB36A20461B6B29469B699847044656
S214007B500348FFF7CDFE204670BD4FF48174FAE768
S214007B603C35002070B50026B36A0446B3F5804F56
S214007B700D4612D21B6BB3F5804F0ED20848FFF7A6
S214007B8017FEB36A20461B6B2946DB6998470446F6
S214007B900348FFF7ADFE204670BD4FF48174FAE748
S214007BA03C350020F8B50027BB6A0446B3F5804F85
S214007BB00D46164611D21B6B7BB10948FFF7F8FD40
S214007BC0BB6A20461B6B324629465B6A98470446CA
S214007BD00348FFF78DFE2046F8BD4FF40174FAE720
S214007BE03C35002070B50026B36A0446B3F5804FD6
S214007BF00D4612D21B6BB3F5804F0ED20848FFF726
S214007C00D7FDB36A20461B6B29469B6A98470446F5
S214007C100348FFF76DFE204670BD4FF40174FAE787
S214007C203C350020F0B50027BB6A0446B3F5804F0C
S214007C300D461646ADF5337D20D21B6BB3F5804F4F
S214007C401CD21048FFF7B4FDBB6A20461B6B40F2FF
S214007C50C1225B6A01A99847044630B10948FFF77C
S214007C6047FE20460DF5337DF0BD836A32461B6B1A
S214007C702946DB6A01A898470446EFE74FF40174EB
S214007C80EFE700BF3C35002010B50024A36AB3F52B
S214007C90804F10D21B6BB3F5804F0CD20748FFF70E
S214007CA087FDA36A1B6B1B6B984704460348FFF7C8
S214007CB01FFE204610BD0124FBE700BF3C35002018
S214007CC0F0B58FB0044601A80E461546FFF7EEFE47
S214007CD09DF80C30012B12D1B5F5402F27D8B4F5FE
S214007CE0402F24D86319B3F5402F20D821462A46C2
S214007CF0304613F001FF002420460FB0F0BD0027E9
S214007D00BB6AB3F5804F15D21B6BB3F5804F11D20B
S214007D100A48FFF74DFDBB6A2A461B6B31462046D4
S214007D205B6B984704460548FFF7E2FDE4E740F240
S214007D300244E1E740F20114DEE700BF3C350020D4
S214007D40F0B58FB0044601A80E461546FFF7AEFE06
S214007D509DF80C30012B1FD1B5F5402F06D8B4F591
S214007D60402F03D86319B3F5402F13D940F20244CD
S214007D7020460FB0F0BDE258013225D104339D42B3
S214007D80F9D82A463146204628F02EFE0028EDD0A7
S214007D900024EDE70023F2E70027BB6AB3F5804F27
S214007DA015D21B6BB3F5804F11D20A48FFF700FDC2
S214007DB0BB6A2A461B6B314620469B6B9847044697
S214007DC00448FFF795FDD3E740F20344D0E740F2BE
S214007DD00114CDE73C35002070B58EB0044601A8EE
S214007DE00D46FFF763FE9DF80C30012B22D144EAC6
S214007DF00503C3F30C03002B33D1B5F5402F04D98C
S214007E0040F2024420460EB070BDB4F5402FF7D8BD
S214007E102544B5F5402FF3D8204604F5005428F045
S214007E20DCFDAC4202D00028F6D1E9E70028E7D016
S214007E300024E7E70026B36AB3F5804F14D21B6B25
S214007E40B3F5804F10D20A48FFF7B2FCB36A294652
S214007E501B6B2046DB6B984704460548FFF748FD3A
S214007E60D0E740F20444CDE740F20114CAE700BF71
S214007E703C350020BFF34F8F0549064BCA6802F415
S214007E80E0621343CB60BFF34F8F00BFFDE700BF38
S214007E9000ED00E00400FA0570B5D0B1C9B10E4E91
S214007EA0431E013913F8014F2046325D02F00302EB
S214007EB0012A11F8012F08BF04F12000B55C05F077
S214007EC00305012D08BF2032801A01D1002CE9D10C
S214007ED070BD0120FCE700BFA57504000348044AF6
S214007EE00449121A921028F0CBBD00BF344100009E
S214007EF0D0420000E463002008B5154B83F30A88DF
S214007F0000F030F8FFF7EAFF124B13498B4212D30A
S214007F100020124B12498B4218D3FCF7E3FE186878
S214007F2050F82240586840F8224001329868824251
S214007F30F5D30C33EAE70022F8E71C6844F8220081
S214007F4001325C68A242F8D30833E4E70022F8E77F
S214007F5008000020449A0400509A0400509A040036
S214007F60509A0400124B134A70B59A60D3F88820D2
S214007F70114D42F47002C3F888206FF0010205F537
S214007F800054226641F2FF7262660222C3F8D020D5
S214007F90BFF34F8FBFF36F8F4FF44036032004F0CC
S214007FA065F90320E66004F045F92E6170BD00BF58
S214007FB000ED00E00040000000800044014B186027
S214007FC0704700BFB8660020054B1860054B1B6F56
S214007FD003F00703032B01D130F0A2BD704700BFAA
S214007FE0C0660020008000502DE9F04104464FF0A6
S214007FF001080C250D4E0CB9BDE8F08194FAA4F0EA
S214008000B0FA80F00F2808FA00F2C8BF103824EA49
S2140080100204CABF05FB006205FB0062B432576863
S214008020002FE8D09168C0B2B847E4E74C3500208E
S21400803008B50C4832F0BAFC192004F009F928B14A
S214008040192004F013F9192004F0F4F81A2004F0AB
S214008050FFF828B11A2004F009F91A2004F0EAF80B
S214008060002008BD345004002DE9F0410E461746A6
S214008070054618B30F2923D80378DBB1013BDBB2E2
S214008080022B19D8104AD35C6A78D340DB0717D581
S2140080900E4BD3F81043ACB932F0EAFB80463A46B2
S2140080A02846314602F042FE404632F0DCFB2046CF
S2140080B0BDE8F0817F23E7E70023E5E72224F6E723
S2140080C02124F4E70224F2E7244E040000C0035003
S2140080D010B5044610B30378E3B1013BDBB2022BC4
S2140080E01AD8104AD35C6278D340DB0718D532F032
S2140080F0BFFB0122617823788A4030214B4341F24E
S214008100100103F1A04303F570335A5032F0ABFB75
S214008110002010BD7F23E6E70023E4E72220F8E7EF
S2140081202120F6E7244E040010B5044610B3037869
S214008130E3B1013BDBB2022B1AD8104AD35C62785B
S214008140D340DB0718D532F093FB01226178237801
S2140081508A4030214B4342F2100103F1A04303F55D
S21400816070335A5032F07FFB002010BD7F23E6E7C5
S2140081700023E4E72220F8E72120F6E7244E040057
S21400818038B50D46044618B311B30378E3B1013B86
S214008190DBB2022B1AD8104AD35C6278D340DB07D6
S2140081A018D532F065FB30222378534303F1A04301
S2140081B003F570335B696278D34003F001032B70DC
S2140081C032F051FB002038BD7F23E6E70023E4E7CA
S2140081D02220F8E72120F6E7244E04002DE9F0419E
S2140081E00D4616469846044600284FD000294DD026
S2140081F00178002940D04B1EDBB2022B3ED8254A20
S214008200D25C6378DA40D20701D4FF2940D1022E2F
S21400821001D9042E3CD132F02BFB23780746FF2BE6
S21400822005D032462046296802F0C6FD28602B6835
S214008230013309D12378FF2B06D1174B6078D3F88A
S214008240241429F0F8F9286029684B1C18D00C2350
S214008250124A03FB0122069BC2F80480936023782F
S214008260FF2B04D001230E4A8B40C2F82434384634
S21400827032F0F9FA002007E07F22C2E70022C0E7CA
S214008280384632F0F0FA2D20BDE8F0812220FBE7D8
S2140082902120F9E7244E040000C003504C3500208E
S2140082A000D0035008B502F037FD044B00F05530FF
S2140082B0C3F82004BDE80840FFF796BE00E0035070
S2140082C008B502F029FD044B00F0AA30C3F82004DC
S2140082D0BDE80840FFF788BE00E003502DE9F04FE8
S2140082E0144605460E469B46C36B87B001225B6963
S2140082F002A960689847EB6B01225B6903A93046C8
S214008300984702A828F0BBFF074648B10023A3758C
S21400831063754FF0FF33A360002007B0BDE8F08F11
S21400832003A828F0B9FF0123A375237E04EBC3033B
S214008330DE611F846368B3420ED1206003A828F074
S214008340CDFF4FF0FF332075A360237D043B022B47
S21400835026D80023A375DFE723681A1A5342534131
S214008360A37503A828F0BAFF237D834218BFA7751C
S21400837003A828F095FF074602A828F091FF874239
S21400838018BF002303A818BFA37528F091FF07465F
S21400839002A828F08DFF87421CBF0023A375D4E7F0
S2140083A003A828F07DFF80B1EB6B022230465B69A4
S2140083B004A9984704A828F082FF0346207D0328D6
S2140083C039D8DFE800F03838040903A8F3E7CC22F0
S2140083D0237E04EBC3031A8401F06EFC109B187016
S2140083E003A8277E28F050FF04EBC70787F8220073
S2140083F0237E03A804EBC303B3F8209093F82270FF
S21400840028F04EFF804603A828F052FF8246B8F1B7
S214008410000F15D0EB6B022230465B6904A9984723
S21400842004A828F011FF6075637D6BB90023A3755F
S2140084304FF0000838E0227E04EBC2021384CBE73C
S21400844003A828F0ECFEEEE794F81680B8F1000FCB
S214008450EED0B9F1000F09D1DFB10123E375637ED9
S214008460002B4FD1012F42D1677614E06B6C06EBE0
S2140084700A015A4286EA010010421CBF0022A27579
S2140084805A1E0A409B1A9945D0D8A37D002BE3D1EB
S214008490CEE7E37D43B94FF000084B4652463146DF
S2140084A0284628F037FCA060A27D12B123694B4411
S2140084B023611A49237E097899422AD90133237603
S2140084C0BBF1000F27D032B3E37D23B3B8F1000F22
S2140084D021D1032F1FD0A1684B1C1CD0109B224615
S2140084E0009328460123FFF7F9FEA07513E095F8E0
S2140084F0343063B9EB6A0133CFD1032FCDD10123DA
S214008500A376C8E7012FCFD0032FC4D1F7E798464C
S214008510C3E70023A375A07DFFE600BF484E040016
S2140085202DE9F04F0E46984600238BB004464FF0D8
S214008530FF31104617468DF8133001F0A7FBB6F54D
S214008540801F20D2314605AA04F1080028F0E9FD74
S214008550451C014603D1237CBBB92D2010E03846CC
S21400856001F094FB0122394620460DF1130328F052
S21400857023FC0028EFD09DF8133088F80030002048
S2140085800BB0BDE8F08FB01CE5D1E56A691C36D1AA
S2140085902046616A28F004FB0546B31C18BF012379
S2140085A0DFF8CC900193636A626C0293236805A996
S2140085B002FB053AE36B05225B695046984705A81F
S2140085C028F0F8FE28F01BFF504628F023FF4FF057
S2140085D0000B824601464B1C05D0636C81EA0A02FA
S2140085E05B42134211D02946204628F0D9FA029B56
S2140085F0AB422CD0BBF1000F2CD10546D3E7236845
S214008600ED1A636CB5FBF3F5C7E7484601F03EFB91
S2140086100DF1130349462046019A28F0CDFB034688
S21400862090B1B21C03D0D9F80020B2420CD19DF80C
S214008630132003930D4B88F8002049461A683846E5
S21400864013F05AFA039B9B46D9F80810C3E7BBF110
S214008650000F82D0B6F5801F91D2314698F80030D0
S2140086607A6804F1080001F03FFA88E7444E0400F7
S214008670283D00202DE9F3410446174698460E464D
S214008680184D816AE36A8B4201D04B1C02D102B0BE
S214008690BDE8F081284601F0F9FA01222946204675
S2140086A00DF1070328F088FB38B1434629462046DB
S2140086B09DF80720B8470028E9D0A9684A1C04D1CD
S2140086C06968204628F0F9FA0146012EDAD16B686F
S2140086D081EA0302636C5B421A4218BF4FF0FF3117
S2140086E0D0E700BFFC3C00202DE9F04F4FF0FF33F1
S2140086F04FF6FF720025044600F10806C0E909237C
S2140087008BB0C362056205633046884628F0DAFC03
S214008710204628F015FA60BB2046414628F090FA1D
S214008720204628F00DFA60BB5E200BB0BDE8F08F47
S2140087302368E26B606C576900FB0530052205A9CB
S214008740B84705A828F036FE012807460CD129466A
S214008750204628F046FA012F024600D1013229466B
S214008760204628F00CFA03E028F04EFE0028EED152
S2140087700135E3699D42DBD3204628F0E1F9002865
S214008780CAD000254FF0FF394FF6FF73CA46A846F9
S214008790C4E90853E36998450AD3A5EB0905012DFA
S2140087A02CD84FF6FF72636A93423CD16720BCE731
S2140087B02368E26B606C576900FB0830052205A948
S2140087C0B84705A828F0F6FD834605A828F0C9FD99
S2140087D00746584628F013FE68B1574538BFC4F818
S2140087E02480B94528BFB946BD4238BF3D46BA4683
S2140087F0236A0133236208F10108CBE74FF6FF73C3
S21400880000256362E3699D42CBD2676C2068E36B08
S214008810052207FB05005B6905A9984705A828F00F
S214008820A0FD0135EEE7E26B676C2068694607FB42
S214008830030055690522A847684628F092FD626A3B
S2140088402368606C4B4D00FB023028F0E3FD4FF0D0
S214008850FF33A062E3622A466FF00101204605ABB3
S214008860FFF75EFE002846D1AD6829462046E56241
S21400887028F042F9206320B92046E16A28F01DFA64
S214008880E0622946204628F018FA0546A36A9D426B
S21400889033D1204628F003F900278046B946E3691D
S2140088A099453CD3B84559D92046616A28F078F9ED
S2140088B00026054604F1400AB74212D8626C2368C7
S2140088C0694602FB0539E36B05225B694846984713
S2140088D0684628F046FD534602464946E06B28F0B7
S2140088E09BFD2946204628F05BF90136B045054633
S2140088F0E2D1642019E7A56AB7E72946204628F0A2
S214008900FBF8236B2946034407462363204628F0DA
S214008910D4F90546002FB9D1C4E90B07B6E7636C56
S2140089202568052203FB0955E36B05A95B69284604
S214008930984705A828F03EFD28F061FD58B1284666
S21400894028F068FD0146204628F0D6F8636C143BF4
S214008950984208BF013709F10109A0E7304628F020
S214008960B1FB002320461946034AFFF783FE00208A
S214008970DBE600BF543D0020A70D03002DE9F041C3
S214008980036B9046826B07689A4288BF8363426C8B
S214008990436A90B002FB0377C36B0E46052201A91B
S2140089A05B6904463846984701A828F003FD01286D
S2140089B00146307057D0656CE26B2368606AD2F867
S2140089C014C005FB0030052206A9E04706A828F0DB
S2140089D0F1FC01284FF0000523D0D4E90A3201212A
S2140089E09342CDE90B458DF834800E958DF83C10FA
S2140089F02AD11946204628F060F9236B626C14339E
S214008A009B1AE06223630C9B53B99DF83C303BB144
S214008A10626A616C2368E06B01FB023128F082FC1D
S214008A200C9DE36B05225B6901A93846984701A8AF
S214008A3028F0C0FC30702846236BA26B9A4288BF91
S214008A40A36310B0BDE8F081237C33B91C490BAAA0
S214008A5004F1080001F096F8D5E72046194A0BAB5A
S214008A60FFF708FECFE7237C23BB2246164904F116
S214008A70080001F087F8616A204628F0B2F8616ABB
S214008A80421C204628F07BF8054620B9236B626C12
S214008A901344143B23632046A16A28F00EF923688A
S214008AA0A062C01A636CB0FBF3F06062204628F048
S214008AB047F9B6E700232046044AFFF7DBFDDAE76E
S214008AC0219200009D910000410E0300DD0D030081
S214008AD073B50D46D11E4A421C461B7E4A419A4239
S214008AE026D129682368994222D3636899421FD801
S214008AF0114E0DF107033246FFF712FDC0B972683A
S214008B006B689A4214D19DF80730DA1E53425341DF
S214008B10227E93420CD1636901336361D4E9032357
S214008B20934205D22968A26842F8231001332361D4
S214008B30012002B070BD00BF543D00202DE9F04F6B
S214008B409B4689B09DF848309046514A0193136978
S214008B5007465B450D46C0F09580D946536800939E
S214008B60B9F1000F7BD0FB6B01225B6905A9009869
S214008B70984705A828F090FB454B1B68984240F0A4
S214008B80848005A828F094FB0428064615D105A87D
S214008B9028F095FB009B04461E44019B002B3ED10B
S214008BA0804512D91C46A8EB00083846009928F0E4
S214008BB084F8A9EB04090090D2E7FB6B02225B69FC
S214008BC0009806A9984706A8E2E7A0EB08045C45CB
S214008BD028BF5C46032C4644ABEB040B1DD9FB6B4D
S214008BE0294630465B69A208984724F0030304F040
S214008BF0030A1E441D44DDF80480BAF1000FD4D0E9
S214008C00FB6B012206A930465B6998475246284608
S214008C1006A912F071FF5544C7E7A246EBE7824665
S214008C2000F0030302932B1803930644039BA6EB62
S214008C300A00A3EB0A05029B9A4514D1BAF1000F6D
S214008C40B3D0FB6B012206A95B69984752462846BB
S214008C5006A913F00DF90028DDD04FF03609484676
S214008C6009B0BDE8F08FFB6B012206A95B69984747
S214008C700422284606A913F0FBF80028EDD1AAF135
S214008C80040AD3E74FF06309E9E74FF06F09E6E718
S214008C90803D00202DE9F0410F46164698460446D2
S214008CA088B060B390F83450FDB1012127F03DFF45
S214008CB000210E9BCDE90511CDE902379DF83C3029
S214008CC0CDF804808DF81C30237C04968BB90D49B2
S214008CD001AA04F1080000F055FFDDE90553E06B3A
S214008CE0002E08BF1D4628F0B9F8284608B0BDE893
S214008CF0F0812046044A01ABFFF7BCFCEDE70546D1
S214008D00F3E700BF0B0E0300D18A00007FB590F892
S214008D104260044601920DF10B030A4630461149A3
S214008D2028F0A4F8012E0546E36B17D132465B699E
S214008D3003A998479DF80B10039B019A59B19BB263
S214008D4043EA0243012228460393E36B03A99B6987
S214008D50984704B070BD62F30F03F3E701229B69E6
S214008D6001A9F5E7803D00202DE9F04F99B00E46A9
S214008D700D920A69416C0B931439D31DB3FBF1F3C2
S214008D80013302EBC302036B04469342C0F0018238
S214008D900023DFF804940893E36A484619460593CF
S214008DA000F074FFD6E9033707930B9B022B4DD1D7
S214008DB0CC2F40F0D7810D9B3BB13146204628F0A2
S214008DC0ABF8656C1490012044E00120079B656CAD
S214008DD01B68149300F0010000280CBF042308232E
S214008DE0782F0E9349D8059A6B1E1340ED1A3B1D3B
S214008DF09D423CD2002F3DD0082D3ED800230425AE
S214008E0006934FF0040A336806990B98C9F80030A9
S214008E10C9F8107028F066FA4FEA9A030F93059B7C
S214008E2089F814000393002309930C9304930A9380
S214008E30616C039B4A1E1A408B1A27B35544AB42FB
S214008E4023D8236B5B1A134423632FE1782F656CBA
S214008E50B9D8F07D0D9B002BBCD0E36B01225B697B
S214008E60706816A9984716A828F01AFAB4E70025DD
S214008E700695C6E704250697C3E7012300254FF0AD
S214008E80080A0693BFE75345DBD3A3EB0A029742D3
S214008E90039BB84628BF90469742534428D90122E0
S214008EA0D9F8101089F817208F4226D10399C9F8EF
S214008EB00410049299F817200AB399F8181003982A
S214008EC0CA1C09EBC202506004980131A2F808805F
S214008ED0907289F81810B8F1000F07D00B9A022A82
S214008EE040F08180099A72B1012209929B46ABE05C
S214008EF0049A002A18BF0322DBE70222D9E7039A66
S214008F00C9F80420E7E70C9A4244032AEED9E26B3C
S214008F101846956914A901220993A847099B054696
S214008F200028E1D03D2D40F01E8104F10803039394
S214008F302368059A606CA2EB030ABAFBF0FA00FB02
S214008F400A3028F067FAE16A8046204627F0B5FE28
S214008F50A26A824200F00F81626CD9F80830511E76
S214008F600B40216B2768891A0B442363089BE06239
S214008F70DF1BB7FBF2F7BA4540F0FA80059BB3EB70
S214008F80080A12D0E36B4FEA9A0241469B6998475B
S214008F908346E36A059A5344E362236B03989B1A5D
S214008FA04344236328F08EF8DA462368616CE06B4E
S214008FB001FB073128F0A3F9204627F0C1FD204623
S214008FC027F0BEFE2063BAF1000F00F0D4803269AD
S214008FD0616CD31D1439B3FBF1F3013302EBC3020A
S214008FE09042A5D2BFE00D9A002A77D1B8F1030FC0
S214008FF04FEA98026ED9E16B18468D69079910936F
S214009000A847109B0546C0B918F0030515D0079A67
S21400901028F0030B02EB0B019B444FF0FF3215A820
S21400902015922A46109312F067FDE26B5846956932
S21400903015A90122A8470546109B9B46079A42445D
S2140090400792002D40F08B80049B16A80193069B88
S214009050009399F814204346316800F0CDFDE36B89
S2140090600F9A9B69039816A99847039A051E089BB2
S21400907018BF13460893434652462046039927F0E6
S21400908049FE236B08F10302A3EB0A0322F0030256
S2140090909B1AC9F808002363002D7FF443AF0C9B8E
S2140090A0A7EB080743440C93CDF80CB02046039971
S2140090B027F003FE00250390002F7FF4B9AE364A52
S2140090C03168936804F10800E36252680B9B00F075
S2140090D00BFD49E09B46454607999EE79B4606F1F1
S2140090E020021092F27D7068A2B1002296F818C095
S2140090F00A99D5B2AC4511D9109D02F1010E35F88A
S21400910032508D4228D90E9806EBC2020144D0692F
S214009110084403E00E9A0A990A441044E26B15A923
S214009120556901221193A847159A0A9B1392E26B80
S214009130043395695846012213A90A93A847119B40
S214009140054603EB0802A2EB0B02042A7FF679AF72
S21400915028B90BF1040BC5E77246491BC9E7CDF8E1
S21400916020B088E770252F46384619B0BDE8F08F46
S2140091704FF0000A19E73269616CD31D1439B3FB4E
S214009180F1F3013302EBC302236B9342BFF404AE48
S214009190E9E71C27E8E700BF283D0020032A2DE961
S2140091A0F34106460D4617461C4606D1237A012B88
S2140091B023D0012002B0BDE8F081DFF860800968A6
S2140091C042460DF10703FFF7ABF960600028EDD1CA
S2140091D09DF80720237A032AE8D0D8F804106A6896
S2140091E09142E3D1012B2969D4F80CC007D17269EA
S2140091F00CEB0103934202D92074207CDAE7083195
S2140092006144E1603B46012229463046FFF7ACFD4B
S21400921060600028CAD00020CCE700BF543D002084
S2140092202DE9F341089C032A1746266806D1237ABF
S214009230012B24D0012002B0BDE8F081DFF8908039
S214009240304642460DF10703FFF76AF960600028D2
S214009250EDD12568D8F80400A96AD5F844C048407E
S214009260CCF100031840227AE1D1012A09D1E26844
S214009270D8F8103013447269934202D92074207CC7
S214009280D9E72868EB6A1B1A081AB3FBFCF3B0FB95
S214009290FCF083420BD1706CF36A421E1340326BB3
S2140092A0121A13442846336327F007FDE862D8F8FD
S2140092B01020E36808321344E36001223B46044969
S2140092C02068FFF751FD60600028B0D00020B2E7AC
S2140092D0543D00202DE9F0410025604B0E46D3F8A2
S2140092E0008004461D6018B921252846BDE8F08197
S2140092F090F8347007B30A6803689A4240F0A38077
S2140093004A6843689A4240F09E808A6883689A4218
S21400931040F09980CA68C3689A4240F094800A690F
S21400932043699A4240F08F808A69C36B9A4240F044
S2140093308A804B698361D8E768223946856B12F0CC
S2140093404BFAD6E90212336804F10800236073680A
S214009350A5636360336963617369A36127F0C4FE24
S214009360B36904F14000E3639B68984720B9676CD3
S21400937017B16368B3FBF7F794F84330E761002B47
S214009380B2D00023656C2366002D64D0002F62D017
S2140093902368B3FBF5F205FB1233002B55D1666844
S2140093A0B6FBF5F305FB1363002B4ED1204627F0E2
S2140093B093FBA369043303449E4248D340F63472B9
S2140093C06369CC3B934244D8B5F5805F43D3032111
S2140093D0204627F0AAFBD4E90001E36B1B689847F8
S2140093E00546E36B0220DB689847CDB94146204628
S2140093F0FFF77AF96428054604D141462046FFF770
S21400940073F90546666C5DB9236A2046143E5E43D2
S21400941027F062FBA369043303449E4238BF5A25F3
S214009420002D0CBF0123002384F8343007D1D4E983
S21400943000010B4A13680133136027F0EFFEE06B60
S21400944027F00CFD51E75D254FE759254DE75A25D6
S2140094504BE75F2549E75B2547E700BFB8360020A6
S214009460B43600202DE9FF410C4616461F46054639
S21400947080B390F834307BB3B1F5801F2ED2DFF87E
S2140094806080012127F051FB2146424628460DF117
S2140094900F03FFF745F8044670B99DF80F30012B0F
S2140094A011D1D8F81030BB4212D102460090314696
S2140094B02846FFF743FB0446E86B27F0CFFC204620
S2140094C004B0BDE8F081022B14BF2D246024F3E71E
S2140094D06324F1E72124F2E71124F0E72924EEE7DC
S2140094E0803D00202DE9F04385B00C4617461E4609
S2140094F00546DDF8308098B390F8343093B3B1F574
S214009500801F31D2DFF86490012127F00EFB214640
S2140095104A4628460DF10F03FFF702F8044688B9BD
S2140095209DF80F30012B14D1D9F8102006EB080354
S2140095309A4213D300904346324639462846FFF7F0
S214009540FDFA0446E86B27F089FC204605B0BDE826
S214009550F083022B14BF2D246024F3E76324F1E785
S2140095602124F2E71124F0E72924EEE7803D0020CD
S21400957073B50C461646054630B390F834302BB318
S214009580B1F5801F24D2012127F0CFFA21462846C4
S214009590104A0DF10703FEF7C3FF044680B99DF895
S2140095A00730032B0CD0022B0CD12846094927F094
S2140095B0B3FC3060E86B27F051FC204602B070BD6B
S2140095C02D24F7E76124F5E72124F6E71124F4E7D4
S2140095D02924F2E7803D00202DE9F3411E460023B2
S2140095E00C4617460546336050B390F834304BB3FC
S2140095F0B1F5801F28D2DFF85480012127F095FAB4
S2140096002146424628460DF10703FEF789FF044629
S214009610A0B99DF80730032B10D0022B03BF0123FF
S2140096203B600423D8F8103018BF38603360E86B0E
S21400963027F014FC204602B0BDE8F0812D24F6E7A2
S2140096402124F7E71124F5E72924F3E7803D0020DD
S21400965073B50446056B27F03FFA636E03449D42DC
S2140096602CBF00230123854294BF00252D1A207CA1
S21400967084F85030656584F85800A8B100230C4E75
S2140096801A4619462046009627F00AFD002305468E
S2140096901A4619462046009627F00BFDE368284434
S2140096A0984294BF0020C01AE06502B070BD00BFAB
S2140096B0FFFF0F002DE9F3471E4643690446B342F9
S2140096C0884617469DF828904ED300258DF80750FB
S2140096D0204627F001FAD4F830A082450AD2236A41
S2140096E0B5EB430F06D2002220460DF10701FFF727
S2140096F045F9B8B39DF80730012B05D10022204666
S2140097000DF10701FFF73AF9B9F1030F06D031461C
S214009710204627F0D1F9256B854227D3144D4FF00C
S214009720FF31284600F0B2FA4B4629460022204672
S214009730C5E90376C5F80080FFF716FB236E0546DD
S21400974063B12046FFF784FF94F8503013B994F8BD
S21400975058301BB1236E04F150009847284602B0DB
S214009760BDE8F0870135B3E76225F7E71C25F5E786
S214009770543D00202DE9FF410F4690461E46054603
S21400978098B390F8343093B3B1F5801F31D21A4CA9
S214009790022127F0CAF92246394628460DF10F0362
S2140097A0FEF7BEFE024678B10123424600933946D4
S2140097B033462846FFF77EFF0446E86B27F04EFB4D
S2140097C0204604B0BDE8F0819DF80F30012BEBD1A8
S2140097D02169B142E8D10093414633462846FFF757
S2140097E0ADF904460028DFD1E7E72124E8E7112495
S2140097F0E6E72924E4E700BF803D00202DE9F04796
S21400980090F8423086B0012B05460391A1EB020783
S21400981040F0AA80FF2F03D81E464FF0640807E0EA
S2140098200226012B14BF4FF032084FF064080136B1
S21400983000244FF6FF79DFF844A195F84230012B5B
S21400984014BF322364239C4202D35FFA88F40DE0EF
S21400985005AB22465146284627F03CFB95F8423099
S214009860012B059B34D14B452DD1E4B295F84230FF
S214009870012B14BF32226422121BB24217D3012ED0
S21400988039D10022012B05978DF8132027D1082205
S21400989005A90DF1130027F0D9FD9DF81330059AA0
S2140098A042EA032221462846FFF730FA40B1022357
S2140098B0324900932846CC23096803AAFFF7FAFE2C
