S01B00006275696C642F72656C656173652F7A69676265652E73333714
S2140060000810002029A0000049E80000612B0300CA
S214006010612B030051E8000059E80000612B0300E3
S214006020612B0300612B0300612B0300612B03002F
S2140060305DE80000AC6C0400612B0300612B0300DC
S214006040612B0300612B0300612B0300F99A00000B
S214006050612B0300612B0300612B0300612B0300FF
S214006060612B0300612B0300612B0300612B0300EF
S214006070C9ED0000612B0300612B0300612B0300B8
S214006080612B0300612B0300612B0300612B0300CF
S214006090612B0300612B0300612B0300612B0300BF
S2140060A0612B0300F5A30000D5A30000612B0300BD
S2140060B0612B030039310200612B03009D3B020077
S2140060C0818303007D8303007933020097830300F6
S2140060D0858303006D3B020089830300DD3B0200DD
S2140060E049420200451F0200493C0200612B0300A2
S2140060F0612B0300612B0300612B0300612B03005F
S214006100612B0300612B0300612B0300612B03004E
S214006110612B0300612B0300612B0300612B03003E
S214006120612B0300612B0300612B0300612B03002E
S214006130612B0300612B0300612B0300612B03001E
S21400614082B030BF074BD3F8F030DB0704D500230E
S2140061500193019B052B01DD02B07047019B0133C3
S214006160F6E700BF00ED00E0F0B5114A114C124E04
S21400617000F00105E3695F0713D40DB9334213D16C
S21400618003EA00078F4207D10B4A1A40002A14BFC1
S2140061906FF001000020F0BD013AEBD16FF0020075
S2140061A0F9E74FF0FF30F6E76FF00100F3E700BFC6
S2140061B08096980000000350020001000B4B70B55B
S2140061C0D96911F480310DD101244FF48072084E44
S2140061D0084DF46020462C641A61FFF7C5FF34644E
S2140061E0EC6070BD6FF00100FBE700BF00000350DD
S2140061F000100350002003504FF4003238B50F4B08
S2140062000F4C9A6641F671330122E569E3630D4B44
S2140062100021DA60022360612120236105F48035C5
S214006220FFF7A2FF10B92120FFF79EFF0122064BC1
S214006230DA600DB10023E36338BD00BF0090005064
S21400624000000350001003500020035070B5134C9C
S2140062506061E3695B071ED40E4656F8043B8D1852
S214006260A361AE420BD10423002121202361FFF756
S2140062707BFF58B9BDE870402120FFF775BF0821A5
S2140062800846FFF771FF10B10423236170BD56F86E
S214006290043BA361E5E74FF0FF30F7E7000003504B
S2140062A02DE9F84315464FF40032184B89469A6696
S2140062B041F6713203F51C33DF69DA6301220646C4
S2140062C003F58053DFF84C8007F48037DA6055B961
S2140062D0284601220E4BDA601FB10022A3F50053B8
S2140062E0DA63BDE8F88306F5005404EA0804A41B44
S2140062F0AC4228BF2C46494622463046FFF7A6FF4A
S2140063000028E6D12644A1442D1BE0E7009000506B
S20C0063100020035000E0FFFF2F
S2140063182DE9F04F4FF0FD0BC9B09A460DF11B0959
S2140063289DF8503108AFCDF80C90CDF808B001971D
S214006338059303890446009383790E469046418860
S2140063488288407812F066FC054650B10090A38813
S214006358002062883A4912F0A1FF284649B0BDE8F5
S214006368F08F99F800002FF015FB38B12846A3885F
S2140063786288344912F092FF8D25EEE75A46394670
S21400638899F800002FF0AEFA8346002851D0529BA9
S2140063981BB1BDF84C3198424BD8002399F80090B1
S2140063A80793A9F14102012A5FFA8BF123D83846F0
S2140063B80139254ADFF898C05FFA81FE734513DB7A
S2140063C8059B04210792C3B907AF18221F489FED03
S2140063D81A7B02FB060420460A460830394684ED36
S2140063E8027B17F0AFFD11E010F8011F0133514092
S2140063F80CFB01F2E2E7059B33B123464A463846D2
S214006408009610F089FBA8E70829DED9B8F1000F36
S21400641801D088F80090BAF1000F01D0AAF800B0B1
S214006428529B002B99D05A46184608A917F08AFDA1
S21400643893E7012591E700BF000000000000000078
S21400644878150400AD150400C59D1C818010002039
S21400645893010001000000002DE9F04F93B0CDE94C
S2140064680A32DDE91C530E9353EC102BCDE90801D4
S214006478104619468DED060B1E9E16F0EDFF80B1F0
S214006488DDE906014FF0FF32C54B17F00DF840B9AD
S214006498DDE906014FF0FF326FF4801316F0E6FFD1
S2140064A870B1DDE908019DED060B0E9B1E96CDE941
S2140064B81C53DDE90A3213B0BDE8F04F00F088B986
S2140064C80022DDE90601002316F0D0FF002800F0C0
S2140064D83381DDE906A303F1004BCBF30A5016F42B
S2140064E88063A0F2FF3008BF06250F9316F0E2FC83
S2140064F89BA3D3E9002316F047FD9BA3D3E900230B
S21400650816F08CFBCBF31304894644F07F51804683
S2140065180022A44B504641F4401116F07DFB94A38C
S214006528D3E9002316F030FD02460B46404649469E
S21400653816F074FB16F0C2FF044616F0BBFC8EA3DA
S214006548D3E900238046894616F01EFD0022964BA6
S21400655816F064FB16F0B2FF89A3D3E900230746BA
S2140065684946404616F010FD80463846894616F0DD
S214006578A1FC85A3D3E9002316F006FD02460B46C8
S2140065884046494616F048FB02460B46CDE90C2322
S21400659816F0FAFCDDE90C238046894610461946B3
S2140065A816F03CFB0022CDE91001804B40464946D8
S2140065B816F014FE00227E4B16F030FB02460B4601
S2140065C84046494616F00AFE00227A4B16F026FB8D
S2140065D802460B464046494616F000FEDDE90C2307
S2140065E88046894600204FF0804116F015FB02468B
S2140065F80B464046494616F011FB02460B46DDE9B7
S214006608100116F0EBFD07F2FF3700226A4B16F072
S21400661805FB00223B0516F0B7FC52465B46804653
S214006628894616F041FF002840F08980CDE90C899C
S21400663804F16303C62B8CBF0527042731051BD539
S21400664853A3D3E900235046594616F023FF0028E3
S2140066587FD051A3D3E900235046594616F006FFCB
S214006668002876D00027A542C6BF2C1B04F1FF35AC
S21400667800253C4646F480660E9B9F422CBF4FF092
S2140066880008A3EB070816F0020903D0002F18BF6E
S2140066984FF000083CB1DDE90C235046594616F089
S2140066A89DFD82468B46DDE906010022002316F092
S2140066B8DDFE10B10BF100439B46DDE9080126F428
S2140066C80063CDE90183DDE90A324BEC10AB009597
S2140066D800F07EF802465FB3DDE9091316F0200FD6
S2140066E800F10105089E0CBF65204520B047DDE98E
S2140066F808010523002205930A23002CCDE902325F
S21400670807F1FF374FEAD473B8BF64422A460193AD
S21400671804970A9B009431F06DF80246B9F1000F11
S21400672806D00B9BC41A0B9B1A190E9BA34245D87E
S214006738104613B0BDE8F08FDDE906ABCDE60022C3
S214006748404649461A4B16F049FD013CCDE90C0176
S2140067586EE7002D90D00F9B002B8DD0013D8BE768
S214006768FB799F501344D33FB3C8608B288AC63F33
S21400677861436F63A787D23F71A379094F930A4095
S2140067881655B5BBB16B0240EF39FAFE422EE63F0E
S2140067982D431CEBE2361A3F0000000080842E4191
S2140067A8FFFFEF7F0000F83F0000E03F00002C40AE
S2140067B800002440000018400000F03F2020DDE9DB
S2140067C80913089DA8470134ADE700BF0000000084
S2140067D82DE9F04F5BEC10AB97B0CDE90501DDE98C
S2140067E82058CDE90723504652465B465946229F15
S2140067F816F032FE70B90323CDE902870193AA4B3F
S2140068080093DDE90501DDE9072330F025FF17B021
S214006818BDE8F08F4FF0FF326FF4801350465946AC
S21400682816F024FE28B10423CDE9028701939F4B76
S214006838E6E74FF0FF32504659469D4B16F034FEB9
S21400684868B19C4A07F00403002B08BF03229A4B42
S2140068581CBF13460422CDE902870192D0E75046B2
S2140068688DA3D3E90023594616F01EFE38B98CA32B
S214006878D3E900235046594616F0F8FD68B1DDE91D
S2140068880723DDE905014BEC10ABCDE92187209500
S21400689817B0BDE8F04FFFF7DFBD002200235046D3
S2140068A8594616F0E3FD002800F091805B465246F4
S2140068B80020002116F0B0F9012382468B46099382
S2140068C817F4806400F08580092D40F28580002446
S2140068D830210EABA5F109020134202C03F8011B68
S2140068E8A5EB040901D09442F6D15946504616F055
S2140068F8E5FD724B054603EBC90393ED007B8DED72
S2140069080A7B16F0D7FA02460B465046594616F04A
S21400691883F9DDE90A2316F037FB02460B46CDE974
S2140069280C2316F0F3FD064616F0B4FA02460B469C
S214006938DDE90C0116F070F902460B46CDE90C238A
S21400694800225F4B16F0B0FD002848D001363046CE
S21400695816F0A0FA02460B46DDE90A0116F090FD8D
S21400696808B100260135B9F1000F45D1284616F0C2
S214006978A1FA02460B465046594616F04DF9002233
S2140069884F4B16F073FD10B9E90700D501350A21FB
S2140069980EAB1A19202C0AD095FBF1F001FB105506
S2140069A8303502F8015B013405460028F2D107F0BD
S2140069B80302012A55D1B8F1000F52D0099A12B92C
S2140069C817F00C0F01D008F1FF38302240E009908C
S2140069D876E74FF0060988E7A946002485E70022EF
S2140069E8DDE90C01364B16F041FD0028BBD10EB18F
S2140069F8F007B8D50136B6E70A210EAB1A19202CCF
S214006A080DD0B6FBF1F001FB1063092E03F130033D
S214006A1809F1FF3904F1010402F8013B11D83021CD
S214006A28A1440EAA202CB2D04C4504F101030AD189
S214006A3804F158020DEB02042E2204F8202C1C4602
S214006A48A5E70646DBE7A1541C46EBE71A550134D2
S214006A58444506D2202CF9D1CDE9028701940EAB25
S214006A68CEE6202CF8D0099B3BB12D2204F1580322
S214006A786B4403F8202C0134EEE77A0704D504F1BA
S214006A8858032B226B44F4E73B07E5D504F158037B
S214006A9820226B44EDE700BF0000000065CDCD4125
S214006AA80000000065CDCDC19B3204009F32040073
S214006AB8FFFFEF7F9232040097320400A07B0400A9
S214006AC80000E03F0000000070B58EB02C220021C8
S214006AD803A817F0A7F864234FF002320893CDE90D
S214006AE805230B2301218DF834305B4B8DF81010ED
S214006AF81D880D4040F0A980084634F0EBFE0A22B7
S214006B08564B574C1A704FF42873ADF812304FF0A6
S214006B18FF332360534B54491B8820460B82534B44
S214006B28534A1B68CD828B61524B0D621B884B8281
S214006B38514B1B68CB611DF04FF920B14FF41B7108
S214006B484E4835F0F4FE0521206831F0BBFC20B134
S214006B5840F27D21494835F0EAFE206816F018F81C
S214006B68474B2068196831F027F80C2535F01AFBD2
S214006B786843099035F016FB68430DEB050107904E
S214006B88206817F0EBFC20B140F295213B4835F021
S214006B98CEFE25681FF04AFD00220146284631F041
S214006BA883F820B140F29721344835F0C0FE40F211
S214006BB80353344D344E2B80052396F90000AB70F2
S214006BC87F2801D11DF0F0FB3378EB7035F0EAFA38
S214006BD800EB80008000A88035F0E4FA0023C000AF
S214006BE84FF0FF31E880AB604FF0FF3018A3D3E9D1
S214006BF8002334F0C1FF2549206831F00EF82068DC
S214006C0802A931F006FD20B14FF434711B4835F067
S214006C188EFE042220680DEB020130F0A2FF042845
S214006C2804D040F2D721154835F081FE01A901208D
S214006C3830F063FB07F048FE01201EF039F82CF010
S214006C4879FD1EF05FF81DF047FB0EB070BD00BF63
S214006C580A0020FF42030000265B0020576200203F
S214006C6840550020409504004C69002048950400D3
S214006C7805B903003E95040044950400646B0400BF
S214006C888C660020345500201F6C002079B903005C
S214006C980348044B834202D0034B03B1184770479E
S214006CA84C6C00204C6C002000000000064B074986
S214006CB8C91A891048BF0131491003D0044B0BB1DB
S214006CC801481847704700BF4C6C00204C6C0020E9
S214006CD80000000010B5064C237843B9FFF7D8FF2C
S214006CE8044B13B10448AFF300800123237010BD92
S214006CF8B81500200000000060D0040008B5044B5A
S214006D081BB104490448AFF30080BDE80840CDE74E
S214006D1800000000BC15002060D00400A3F5803AEF
S214006D28704700BF154B002B08BF114B9D46FFF759
S214006D38F5FF00218B460F461148124A121A16F024
S214006D4871FF0C4B002B00D098470B4B002B00D044
S214006D5898470020002104000D000B4817F0A8FAF9
S214006D6816F038FF200029002BF066FB17F08EFA85
S214006D7800000800000000000000000008100020C6
S214006D8808100020AC62002021E3010007B50121AD
S214006D9820200DF1070201F03BF858B1022301212B
S214006DA820200DF107028DF8073001F041F803B0F6
S214006DB85DF804FB9DF807100229F8D0022209485E
S214006DC815F012FE022301210DF1070220208DF88E
S214006DD8073001F02DF82BF089FA4FF4FA6000F02E
S214006DE85FFEE4E770CD030038B502F005F901F060
S214006DF8ADF9012805D001F0A9F9022801D001F063
S214006E08CBF9064D2B783BB901F0A0F901280446CA
S214006E1802D12BF0F4FA2C7038BD00BF045C0020B9
S214006E2810B5044600882BF035FAA37884F8440099
S214006E38834202BF0123E3702371074B04F11C0051
S214006E48C4E9073401F03AF8224620880349BDE829
S214006E58104000F077BF00BF33200300FD1F03007B
S214006E6870B5C37804460D461646002B34D1D1B10A
S214006E78214815F0B9FD0123E370E36CA6600BB159
S214006E88E06D9847E368F61A63699E4221D2217E30
S214006E981A480131C9B2217615F0A6FDA36D13B1C3
S214006EA8217EE06D9847E5702BF033FA15B3237909
S214006EB803BBA268238A801A83421BD80123104882
S214006EC8237115F091FD236DA3B1E06DBDE8704008
S214006ED8184701232376E6E70029E4D1094815F088
S214006EE883FD636DE660E5702571002BDBD0E06DF1
S214006EF89847D8E770BD00BF98CD0300A9CD03001A
S214006F08D7CD0300C4CD030070B51E46838804465B
S214006F180D46C18002810BB1868070BD81780088DD
S214006F282BF0A4F80123E370064BA680C4E90334CB
S214006F380C34204600F0C2FF29462046BDE87040C3
S214006F482BF0DEB97F20030010B501790446B1FAAC
S214006F5881F1008849092BF000F921796088B1FA97
S214006F6881F149092BF0F9F8034B1A68A24204BFCD
S214006F7800221A6010BD00BFD415002070B54379F2
S214006F880446A3B100880E4E04F10805336813B111
S214006F980C4B1B786BB121792BF0DFF864210A4B78
S214006FA83460A3602846BDE870402BF0A9B9408835
S214006FB8E9E7064815F018FD054B3221A360F1E70E
S214006FC8D4150020055C0020516F0000EDCD0300AD
S214006FD8856F000010B50446E0B10F4815F004FDB3
S214006FE801236371A37953B9217920882BF0B5F86A
S214006FF8236B7BB1606B0121BDE810401847204623
S214007008FFF7A2FF04F108002BF07FF92046FFF7F0
S214007018B5FFEDE710BD00BF23CE030010B504464C
S214007028F8B1104815F0E0FC00236371A3796BB93A
S21400703821792088B1FA81F149092BF08EF8236B63
S2140070487BB1606B0021BDE8104018472046FFF76B
S2140070587BFF04F108002BF058F92046FFF78EFF57
S214007068EDE710BD2ECE030010B5044668B10748FC
S21400707815F0BAFC637920461BB1BDE81040FFF74F
S214007088CDBFBDE81040FFF7A5BF10BD3ACE030040
S21400709810B50E4C0E48214615F0A6FC82210D4868
S2140070A815F0A2FC82210220A21E00F0C1FE0146B5
S2140070B830B134F8022C0848BDE8104015F094BCEE
S2140070C80648BDE8104015F08FBC00BF8656002065
S2140070D849CE030064CE03006FCE0300B3CE030090
S2140070E838B5114C82212246022000F091FEA51CDC
S2140070F8014688B122880D4815F076FC2A460C4BC6
S21400710803F12C0153F8040B8B4242F8040BF9D117
S2140071181B7813702C23238035F8021C054A064872
S214007128BDE8384015F060BC84560020BECE03008B
S2140071383ECF0300865600201CCF0300034B1B7867
S2140071481BB18B4201D82BF0D1B87047C86B002012
S21400715810B5044601460E4815F046FC012C11D120
S2140071680C4B0D481A884FF6FF739A421EBF002232
S214007178094B5A742AF0D7FF02F094F8BDE810407D
S21400718801F066BF0448BDE810402AF0CEBF00BF35
S2140071986BCF03007C6B00201866002070B50024B7
S2140071A81A4D1B4E3378A3421BDC0024194D1A4E89
S2140071B83378A3421BDC0024184D194E3378A342BB
S2140071C81BDC00F0C3FF012816481CD12AF0ABFFD1
S2140071D802F068F801F03CFFBDE87040124800F085
S2140071E8D5BF2846FFF71CFE01346035DAE7284687
S2140071F82AF07FFF01343435DAE728462AF0B2FF52
S21400720801343835DAE72AF090FFE5E73C2300201A
S2140072180B5C00205C2700200C5C00200C21002062
S2140072280A5C002018660020597100002DE9F04F0E
S21400723887B0FFF755FFB94B05A805932AF0B6FFA8
S214007248054616F0EBFBB64CC2B21F2A627004D98C
S214007258B44815F0C9FB00F017FC2946A01C16F028
S21400726871FE05A82AF0A2FF054616F0D7FBC2B2A3
S2140072781F2A84F8212001D9AB48EAE7294604F1F9
S214007288220016F05FFE05A82AF090FF3226044674
S21400729800272578002D40F09F80A44CFFF77EFF3E
S2140072A82378DFF8C8A2DFF8C882A14F00939AF8BF
S2140072B8003098F8002039789E4815F095FB3A7803
S2140072C898F800109AF8000053180344DFF894B2B0
S2140072D820782C4603445846DBB2AA4200F3E582DF
S2140072E8012B38BF0123944E0293324600233546BD
S2140072F84FF482714FF6FF74029801339842137068
S2140073085180948002F10C02F6DC8C4B8A49844842
S214007318AB6000F0F1FFE879AB68DFF8449200EB69
S214007328400003EB800000F0BDFDEB79B9F80020C3
S2140073380133A242EB7103D07F49814801F0DEF8A1
S2140073484FF6FF73B9F800207B49D21A18BF0122FE
S2140073587C4801F0BDFD4FF00009784C3A784A4564
S21400736800F3CC8200264FF00C09774ADFF8C8B144
S21400737898F800003978B04200F3D48246180C21F9
S214007388002501FB06B19AF800009423A8426F4A2C
S21400739800F3E6820C253E7898F8003000274FF474
S2140073A882781E44064405FB06B5DFF8C8A15F4B85
S2140073B81B78BB4200F3E78202995F4800F000FEA4
S2140073C8059B56491A468B4240F0F082604807B043
S2140073D8BDE8F04F15F008BB532D0FD163784C2B42
S2140073E840F04881A378502B40F044810122594B45
S2140073F81A7005A82AF0DAFE04464AE7442D13D187
S2140074086378303B092BF4D8601C2AF0DCFE524B1C
S214007418524A1978002386B2994202F16002E8DDE2
S21400742822F8466C0133F7E7422D0BD16378542BCC
S21400743854D1A01C00F0D4FC494B188018462AF0FA
S214007448B6FDD6E7582D33D8412DD2D9433D152D54
S214007458CFD801A353F825F01F780000FB7300006F
S214007468FB730000FB730000FB730000FB73000057
S214007478CF750000FB730000FB73000081750000E9
S214007488CB740000FB730000FB730000FB73000066
S214007498FB730000017700007D760000FB73000098
S2140074A8FB730000FB730000FB7300007777000097
S2140074B8692D9ED1601C2AF086FE80B22AF012FF43
S2140074C897E71B4B012019780023264A994202F1B8
S2140074D8A8028EDD02F8A60C0133F7E7601C00F060
S2140074E87FFC0546E01C2AF0E6FE012102462846F7
S2140074F82AF09DFE60211848184C037859436218F4
S21400750865524FF4FA6111824FF448715161164979
S21400751856831165013303706BE700BF865600205B
S2140075282C6500208ACF0300A1CF0300065C00204C
S214007538095C0020B1CF0300A01600201817002011
S21400754850160020D8150020601D0020A41B00201F
S21400755801D00300055C00200B5C00203C230020C3
S2140075687C6B0020601E00209F210300075C002023
S214007578085C002098180020601C00F031FC0022EF
S2140075884FF034088146CD4F11462AF050FE387821
S214007598CB4D08FB00F325F80390EA18E37810466D
S2140075A8693B18BF012393702AF0A3FD0021C54A42
S2140075B83B785160012103FB08550B443B7015606E
S2140075C80F46117415E7601C00F00AFC00221146ED
S2140075D881462AF02CFE3422B84DDFF8E48228785B
S2140075E802FB00F328F8039008EB0301E37808464B
S2140075F8693B18BF01238B702AF07BFDB24A002333
S2140076081046916B31BB00EB831034232A7802FBBB
S21400761803838363AD4A00231046D2F8A410F9B951
S214007628A82202FB030034232A7802FB0383C0F84F
S214007638A4305FB9A34A3B46114652F8040BA8B9D2
S2140076483422287800FB028241F823202B78013365
S2140076582B70CEE60133042B02F14002D1D1D9E7D4
S2140076680133042B02F1A802D7D1E2E70133042B39
S214007678E3D1EBE7601C00F0B3FB8046E01C2AF081
S2140076881AFE0121024640462AF0D1FD60219048A4
S214007698904D0278DFF858C251436B1825F80180E0
S2140076A84FF44871198259618B495E839965E17870
S2140076B8A824642904BF012199709CF80030DFF8DB
S2140076C80CE25C430EEB04010EF804304FF4007431
S2140076D84C8003240C718C7102EB420405EB4415B4
S2140076E832240133DBB201324B718D6081F8A04041
S2140076F802708CF800307CE6601C00F071FB0022FB
S2140077084FF0380A8146DFF8E08111462AF08FFDEF
S21400771898F80030714D0AFB03F325F803904FF0F4
S2140077280109EA1882F80490E37873B1E01C00F0C7
S21400773857FB0022044611462AF079FD98F80030D7
S2140077480AFB03535C8083F8069065485E4A037814
S2140077589901535498F8001002EB8314C1EBC10248
S21400776805EBC2054A1C656388F80020D2E6601C53
S21400777800F036FB8046E01C00F032FB0546601D34
S2140077882AF099FD04460246012140462AF04FFD9C
S2140077982246284601212AF04AFD60204FF4487CFC
S2140077A8DFF82CE14B4A9EF8003000FB03F422F881
S2140077B80480DFF824811119A1F810C0C1F814C09C
S2140077C84E83C1F85880591CC9B248431418A4F807
S2140077D810C0C4F814C06683C4F8588094241552A0
S2140077E8404D981C8EF800002878DFF808C14443FE
S2140077F803EB430301EB41010CEB040E02EB4313CE
S21400780802EB41120CF80400CEF80430CEF808203B
S21400781801302870EDE5601C00F0E2FA8046E01CB6
S21400782800F0DEFA00220546114640462AF0FFFC24
S21400783800223824114628462AF0F9FC2A48274A06
S21400784803784FF0000E04FB03FC22F80C804FF080
S214007858010802EB0C0181F806E081F8048003EBCE
S2140078680801C9B24C4302EB040C15539C1C047067
S2140078784FF482741D4D8CF806E028788CF8048046
S2140078884443DFF874C0C3EBC303C1EBC1010CEB80
S214007898040E02EBC30302EBC1020CF80400CEF898
S2140078A80430CEF808204044B3E7467901358E42C6
S2140078B884BF04714471A8300FE500BF0C5C00203B
S2140078C85C27002018660020601D0020601E00202F
S2140078D80B5C00203C230020457100000C21002092
S2140078E8085C0020075C00200A5C0020065C00207C
S2140078F8095C0020A41B002098180020B9F1000F8E
S21400790806D016F8052C02EB420204EB8204B4609B
S2140079183146584601F09AFE09F101090BF1A80B09
S2140079280C361BE571180AD0481E09FB00B0C07952
S21400793800EB400004EB800409FB01B084601046AD
S21400794809FB0151039201F03FFC39781C48314489
S21400795809FB015101F0A6F9039A0136403207E502
S214007968F54218BF11F8050C03911EBF00EB400046
S21400797804EB80048C6003FB052001F0A3F8039950
S21400798801350C31FFE4F74218BF15F8053C2946C7
S2140079981CBF03EB430304EB830408FB07A018BFD4
S2140079A8AC6000F041FF01370C3500E513F8011D07
S2140079B800297FF406AD3B2102F8011C01E500BF53
S2140079C80021002007B5012121200DF1070200F053
S2140079D81FFA18B99DF80720024B1A7003B05DF815
S2140079E804FB00BFC86B002007B5064B8DF80700E0
S2140079F8187001210DF10702212000F019FA03B0D2
S214007A085DF804FBC86B002007B5022101200DF1C4
S214007A18060200F0FDF938B9044814F0E5FFBDF891
S214007A28060003B05DF804FB0020FAE71ED003004A
S214007A3807B50221ADF806000DF10602012000F098
S214007A48F7F9014610B1034814F0CEFF03B05DF80D
S214007A5804FB00BF3FD0030010B5FFF7D5FF044670
S214007A680146074814F0C0FF0121064814F0BCFF81
S214007A7824B9BDE810400120FFF7DABF10BD00BFEB
S214007A886FD0030081D0030008B5044814F0ACFF9B
S214007A9800F0DEF92AF02AFC2AF025FC97D003002D
S214007AA838B50446084D094B28462B6000F006FA00
S214007AB8002C18BF21462846BDE8384008BF4FF4BA
S214007AC896712AF01DBC00BF60280020ED21030037
S214007AD82DE9F043394D93B008AC074689469046E1
S214007AE80FCD0FC40FCD00260FC495E8030003235F
S214007AF8012584E80300324C3248CDE90366CDE917
S214007B0805668DF80E300796029534F0AAFE2E48C4
S214007B1834F0A7FE32462D4920468DF8176005F04A
S214007B2835F9334632462A498DF819000090204622
S214007B388DF82390CDF82C808DF8216005F040F95B
S214007B480A9020468DF8097005F0A0F8204608AA85
S214007B5805A905F05BF902AA204603A92BF068FDE3
S214007B684FF400721B4B5A62194BE560626A920525
S214007B7810D46BB94FF40072164B11485A6205F0D0
S214007B8885F8114834F070FE002013B0BDE8F08385
S214007B98013BEBE7002BEDD0094908A82BF07BFD4D
S214007BA84FF400720B4B06485A6205F06FF8064809
S214007BB834F05AFEBDF82000E7E700BF5C6C04000E
S214007BC80040005AAC6E0400A86E040080841E00B4
S214007BD840420F000060005A0122034B1870034B06
S214007BE81980034B1A7070470E5C0020846B0020C7
S214007BF80D5C0020F8B5454B1B780BB90020F8BD86
S214007C08434B1B78012B03D1BDE8F8402AF0EDBAA8
S214007C18404B1C884FF6FF739C42EFD03E4834F02A
S214007C2820FE0023260AE4B21A462146304604F00F
S214007C38EDFF012E354604F0010335D015D9B51EE3
S214007C48012DDBD8002B0BBF4FF480754FF08075E5
S214007C584FF470614FF070610BBF01274FF4803707
S214007C680F204FF470202D4B11E0002B0BBF4FF464
S214007C7880754FF080754FF470614FF070610BBFE0
S214007C8801274FF480370F204FF47020244B1A68D2
S214007C9802401CD0BA421AD01A680A4032D11A6872
S214007CA822EA01022A4316E0002B0BBF4FF4807528
S214007CB84FF080754FF470614FF070610BBF01276D
S214007CC84FF480370F204FF47020164BDFE71A6802
S214007CD822EA00023A431A602AF087FA0546002884
S214007CE88CD0083644EA06102A460321C0B2FFF7AD
S214007CF8EFFE40F6FF73684300F2FF70B0FBF3F048
S214007D0880B27CE795427FF479AFC8E70D5C002027
S214007D180E5C0020846B0020AC6E040028C3035061
S214007D2820C3035024C3035010B5044C237823B94A
S214007D38034834F096FD0123237010BD105C002024
S214007D48AC6E04002DE9F0431F4C85B00746884604
S214007D589146FFF7E9FF23781BB902F0FDF90123E6
S214007D6823707BBAADF80C3030220023174E02FB86
S214007D7803F4315DA51901BB012333554FF0FF33DA
S214007D8804F1100012493044AB606F80C5F80480D7
S214007D98C5F80C9009F0D8FC04F108010422314417
S214007DA80C4B009503A802F0ADFAA96802460A48EB
S214007DB814F01AFE05B0BDE8F0830133102BD6D1B7
S214007DC8064814F011FEF5E70F5C0020882800200E
S214007DD81722030029220300A4D00300D2D00300F0
S214007DE880B10278A2F14103032B0BD840783038D3
S214007DF8C0B2082806D8054B134413F8413C40EA9D
S214007E08032070474FF6FF70704700BF846C04006D
S214007E1808B50B4642B101460448006803F0BAFBB1
S214007E28BDE808402AF058BA022008BD846600203B
S214007E3808B50B4642B101460448006803F032FD17
S214007E48BDE808402AF048BA022008BD846600202B
S214007E58F0B50026124F8DB0FF2300930A22334652
S214007E68386802A92BF089F9C0B102AB1D4603EBAE
S214007E78800404E055F8043BB34228BF5E1CAC42BD
S214007E883868E9D9296803F093FE0028F2D02D282F
S214007E98F0D00DB0BDE8F0402AF01EBA0DB0F0BD27
S214007EA88466002028B1034B0360034B436000231D
S214007EB883607047190000032C660020FF2307B56F
S214007EC80021044A0093083009F0C2FB03B05DF8AD
S214007ED804FB00BF032303000B4604490246086858
S214007EE80349097808B12AF02FBA7047942B002066
S214007EF8125C0020F7B50C4618B12921194834F051
S214007F0816FD246823685E795F8830463946FFF791
S214007F18E3FFF0B18568E5B1A089227D3946904235
S214007F2891BF0020801AA36880B294BF03469B18AE
S214007F38E27C00903046A8470138032803D8DFE8DB
S214007F4800F0080F0B0D002420462EF08BFA204672
S214007F5800E0812003B0F0BD8024F5E79324F3E722
S214007F688724F1E7FAD00300F8B515460D4A04460B
S214007F7810680D4A0B46117850B122462AF0E4F9EB
S214007F88034628B100210C27C678B14201DB002041
S214007F98F8BD07FB01F45A681019125BAA42F7D01D
S214007FA80131F2E7942B0020125C002008B5034B41
S214007FB81B6803B19847002008BD00BF902B00201F
S214007FC82DE9F74F04460D460026454B454F1860E9
S214007FD8454B197033010021F85C013610F008FC97
S214007FE80C2EF7D10C2D28BF0C254FF00009019553
S214007FF83C4EDFF800A13D4DDFF8FC80019B4B4569
S21400800802DC03B0BDE8F08F23784FF0000B337026
S21400801863887380A388B380A379C6F80880B37191
S214008028E379C8F8005088F804304FF00003A768D2
S214008038A8F80630E3795B450ADC012116F8100B30
S21400804810F0D6FB08F1080809F101090C34D5E749
S2140080584FF0000338886B812880FB784FF0000CBF
S2140080682B81BA78C5F804A0002A00920CBF80229B
S21400807840222A7379680AF10C02634513DC03EB85
S21400808843030AEB830ABB6843B1009A4FF6FF71B5
S214008098B2FA82F2164B52092EF074F914350BF127
S2140080A8010B0C37C6E7B1F800E00CF1010C22F81A
S2140080B80CEC91F802E00C3202F816EC91F804E0A9
S2140080C80C3102F815EC11F809ECBEF1010F14BFDB
S2140080D84FF0100E4FF0110E02F814ECCDE700BF6B
S2140080E8942B0020EC420020125C002098310020DF
S2140080F8FD7E0000982B002018340020014B1860E5
S214008108704700BF8C2B0020014B1860704700BFDB
S214008118902B002070B5128805460E46FFF724FF00
S214008128044670B102790499806815F0CDFD064BB7
S2140081381B680BB9002070BD314628462288984730
S214008148F8E78620F7E700BF8C2B002008B50FF06D
S214008158EBFB022806D0012806D0044B187840000E
S214008168C0B208BD0120FCE70220FAE7115C002037
S214008178054B10B51C682CB1FFF7E8FF2346BDE891
S2140081881040184710BD00BF882B0020014B186010
S214008198704700BF882B0020034B1A781AB90122B3
S2140081A81A700BF021BC7047115C00200022024BAD
S2140081B81A70FFF7DDBF00BF115C002037B5044614
S2140081C8002832D00FF0B0FB022830D160892EF09C
S2140081D8ABFCE079237A003818BF0120012B637ABC
S2140081E808BF40F008000BB140F0100063890BB1DF
S2140081F840F00400257CA188A2790DB1E36873B924
S2140082080C4B10F0D1FE2178084610F049FF2DF0EF
S214008218B4FF002814BF0320002003B030BDCDE90A
S2140082280035054B10F0C0FEEDE70220F5E701200B
S214008238F3E700BFC52104008EF1030008B50DF072
S21400824831FD014630B1044814F0CEFBBDE80840C5
S2140082580EF0CCB808BD00BF6CD10300034B044A2F
S2140082685B7C012103201370FFF7E2BD186600202F
S214008278135C002010B50446FFF7F0FFB4F57F4FF7
S2140082880BD100240F4B1A8813449C70FEF700FF8E
S2140082982046BDE81040FFF703BC4FF601739C422A
S2140082A804D1BDE81040084829F025BF4FF60273F0
S2140082B89C4205D1BDE81040044B1878FFF794BBE4
S2140082C810BD00BF8456002018660020C86B00202A
S2140082D810B5074C012122460320FFF799FD28B95F
S2140082E82378044A003B18BF0123537410BD00BF0F
S2140082F8135C002018660020F8B5564B564C1A88B2
S2140083084FF6FF739A4218BF03234FF0080218BFB0
S2140083182370524B36251A70322230265A70DA707D
S214008328DA714FF400121D711D724D4D9E70C564B2
S2140083384C4D5E7105654C4D352685654B4D426442
S214008348C5654B4D012245664A4D9E7185664A4D68
S21400835886180567494DC6674567202580F8785012
S21400836880F8845000F12105C0F88850444E454DE9
S21400837880F84820C0F88C5080F8542080F8602098
S21400838880F86C20C0F8806080F89020C0F8944090
S214008398C0F8B8303C4B3D4CC0F8BC300223C0F89F
S2140083A898403B4C80F8C030C0F8A4400F24394BA6
S2140083B880F8A840C0F8C430374B384CC0F8C830EE
S2140083C88223C0F8AC40364C80F8CC30C0F8B040B9
S2140083D80924344B344DC0F8D030344B80F8B440C0
S2140083E8C0F8D4302C7C324B80F89C20C0F8A00013
S2140083F880F8D820C0F8DC3044B12E4B80F8E42052
S214008408C0F8E03005F11103C0F8E8304FF0000C72
S214008418CA798E6802EB42039F00443006EB83035A
S21400842826F807C0586001200D349870DC701318C1
S214008438CB71FFF7C7FAFFF74BFFFFF787FE012858
S21400844806D12B7C23B1BDE8F840174829F053BE67
S214008458F8BD00BF7C6B0020C96B0020145C0020B0
S2140084689D6C0400010020009C6C040002002000A3
S2140084789B6C0400030020009A6C04000400420071
S2140084880500420007003000FDFF21001200100121
S21400849800404200986C040000FF4401886C040009
S2140084A806004200845600201866002002FF2001BD
S2140084B8C86B002001FF100113B504460D4829F0CB
S2140084C881FD6422C0F30F43637083B2B3FBF2F3FB
S2140084D8A07823702022012129F058FFA0782122B5
S2140084E8012129F053FF0449201D02B0BDE81040C1
S2140084F829F006BF7C6B0020E09304000B7870B56B
S21400850883704CF61E0303804FF02013C3620123CA
S21400851880F8303080F83C30C3180364124B0446A9
S21400852843640223114A80F84830114B8263C364BF
S2140085384063CA798D6802EB420305EB830004F1B9
S2140085482C0646600B4E45F8236000238360531CB8
S214008558CB71094B201DC4E90134FFF7AFFC204658
S214008568BDE87040FFF7A8BFFDFF210021002000EE
S2140085789E6C040001000103C1840000F8B54FF6A4
S214008588FF73994204460E4609D0B0F87E308B42F7
S21400859805D04FF6FE729142037B01D10BB9F8BDA8
S2140085A8EBB1204629F0CFFF204629F08FFF4FF683
S2140085B8FE739E4213D1A068FEF730FD6068FEF792
S2140085C82DFD29F0A6FE00232373A0674FF47F42F3
S2140085D860784FF48171BDE8F84029F0D7BEB4F84A
S2140085E87E50237BB5422CBF02250125AB4218D00E
S2140085F8D4E90107637B13B13B4607461846012DAD
S21400860841D1FEF7E7FC3846FEF708FD29F081FE63
S2140086184FF47F42A0674FF481716078257329F084
S214008628B5FEE389A4F8806004F1B4060BB9238A82
S2140086387BB3B4F87E30A4F8883029F06AFE012DA2
S214008648B4F87E30B4F88020C4F8840038D1D31A41
S214008658022DE18903D1208A002818BF0146594314
S2140086686423594342F21073B1FBF3F10AB19A42FC
S21400867801D101F6B831304629F042FE2046BDE861
S214008688F84029F06BBFFEF7C9FC3846FEF7A2FC97
S214008698BCE742F21072012D08BF1346A4F87E30DC
S2140086A814BF0023642360784FF48171A3750822F1
S2140086B829F06CFE3046BDE8F840024929F020BE95
S2140086C89B1AC5E7E0930400094A437B0C21137004
S2140086D8C3895380038A9380438AD380838A13810D
S2140086E8B0F87E30538100781130C0B2FFF7A0BBD7
S2140086F80657002038B5044600780D4D11302A4636
S2140087080C21C0B2FFF784FB80B92B782046637330
S2140087186B88E381AB882382EB8863822B89A382EC
S2140087286B89A4F87E3029F09BFEA07538BD00BF83
S21400873806570020024B53F8200029F0BABF00BFA6
S2140087487834002010B50446052923D8DFE801F060
S21400875803080C222210204629F0A0FF002010BD96
S214008768204629F09FFFF9E7204629F09EFFF5E707
S214008778E18911B9218A0029F0D082B17BB111783C
S21400878864290ED8204629F088FE0146204629F09E
S21400879876FFE3E7044814F027F90120DFE7032013
S2140087A8DDE70220DBE700BF99D1030010B4054CD3
S2140087B8114654F820001A46BDF804305DF8044BFC
S2140087C8FFF7C0BF7834002000234FF0967210B52C
S2140087D8C0E903233222044682750F4A8382C267A1
S2140087E8C0F88430A0F888308367A0F880308C30D2
S2140087F8FFF764FB094B04F1B400C4E92334FFF720
S2140088085DFB074B04F1DC00C4E92D34FFF756FB8B
S214008818044BC4E9373410BDFFFF881395260300C0
S214008828A12503008925030038B504460B78294A94
S21400883843700D4642F82300FFF7C6FF2046FFF7B1
S21400884859FF4FF44013A3610123237784F8283097
S21400885884F8343084F8403004F10D0363641E4B0A
S2140088681E4AA364022322621D4A84F84C306262C0
S21400887804F11602E2621B4A84F85830226304F1B7
S2140088880C02A263184A84F86430E26304F10E020C
S2140088982265164A84F87030626504F11002E265B3
S2140088A8134A04F11403226604F11202A266114A5E
S2140088B86367E266EA79A86802EB420300EB830185
S2140088C818344C600C4C40F823400C4B8B60531CFF
S2140088D8EB7138BD7834002002FF21011D5C0020B2
S2140088E80800200000FF300001FF100103FF2101EF
S2140088F804FF210105FF210102010108B5870000D8
S21400890810B44FF48274427B0C48013A012904FBE8
S214008918020006D0022908D059B95DF8044B29F0A0
S214008928BDBE5DF8044B29F0BDBE5DF8044B29F0CA
S214008938BCBE03485DF8044B14F056B898180020DF
S214008948B5D10300B0F85C302DE9F0418B420446FF
S2140089580E4639D0437B077C93B31C4A12789A425A
S2140089682ED34FF482751A4A013B05FB032390F871
S2140089780F801B7B424629F0B5FEB845054601D157
S214008988FF281FD13A463146204694F8903029F001
S214008998A9FE2F460546552212216078A4F85C6089
S2140089A829F0F4FCFF2F03D039462046FFF7A8FF2E
S2140089B8FF2D09D029462046BDE8F04129F0D2BE51
S2140089C8FF25DFE70746E6E7BDE8F081065C0020FE
S2140089D89818002041688268C978D27849B112B1DF
S2140089E80321FFF7AFBF837B002B0CBF01210221B9
S2140089F8F7E72AB1837B002B0CBF02210121F0E7A1
S214008A08014813F0F1BF00BFC6D10300037BD3B102
S214008A184368DA7812B18268D278A2B91B7933B182
S214008A28837B002B0CBF04210521FFF78BBF8368CF
S214008A381B792BB1837B002B0CBF05210421F4E79F
S214008A48014813F0D1BF7047F8D10300084A437BAA
S214008A5805211370837B5370C37B9370037CD3709C
S214008A68037B137100780E30C0B2FFF7E1B900BF80
S214008A781E5C002038B5044600780C4D0E302A4699
S214008A880521C0B2FFF7C4F920B1BDE83840084850
S214008A9813F0AABF2B7863736B78A373AB78E37372
S214008AA8EB7823742B79237338BD00BF1E5C002037
S214008AB834D20300024B53F8200029F09DBE00BFB5
S214008AC8A0340020F8B504460B78424A43700D4699
S214008AD842F82300404E29F0ADFEFFF7CBFF626850
S214008AE8A3683E483E49D6641165D4655065C3E917
S214008AF81410DE64DC654FF0987302266361012368
S214008B0804F10C01E16137491032216204F10D01CC
S214008B18A16235492376E16204F10E0161633349A7
S214008B2884F82430A16304F10F012164304984F8E5
S214008B383030616404F11001E1642E4984F83C3059
S214008B4884F84830216584F85460A265E879A968F5
S214008B5800EB400201EB820704F1140CC7F804C0CE
S214008B684FF4817C244F41F82270C218D2B202EB2F
S214008B78420241F822C001EB820700227A601F4AAF
S214008B8884F8703022661E4A84F88830A2661D4A29
S214008B981D4BE2661D4AC4F88C3062671C4A83196E
S214008BA8A26704F15C02C4F88020DBB2194A03EB22
S214008BB84303C4F8842084F8646084F87C6001EB7E
S214008BC8830260345460144A033041F82320E87165
S214008BD8F8BD00BFA0340020DD890000C3270300CD
S214008BE8158A000001002001020010010300300170
S214008BF8040030010500210101FC01064A0021009D
S214008C08A06C040051001000A26C0400A36C0400C1
S214008C18550021006F0018001200010470B50D46BB
S214008C280646144613460A4601461A4813F0DCFE62
S214008C3825B92046BDE87040FFF71CBB072D05D1B7
S214008C4821463046BDE8704000F0C4BC4FF60143EC
S214008C589D4205D121463046BDE87040FFF72ABF41
S214008C68062D05D121463046BDE8704000F066BAAC
S214008C78B5F5817F05D121463046BDE87040FFF73F
S214008C8859BD202D04D12046BDE8704000F0ECB850
S214008C9870BD00BF63D203000148FFF72FBA00BFBC
S214008CA8258C00004FF4C01330B503600123037110
S214008CB8074B8C688360CA7902EB420304EB830592
S214008CC86860044844F82300531CCB7130BD00BFCD
S214008CD8A46C0400040001010368064A0C21136012
S214008CE84368536003891381438922205381FFF721
S214008CF89FB800BFC834002010B50368044686B085
S214008D08FBB1114813F070FEA37B104A8DF80430AF
S214008D184FF48273ADF806300123CDE90223002311
S214008D2801A804938DF81430FFF748FA20466189A5
S214008D3829F090FD2046FA2150F8143B594329F0B3
S214008D48DFFA06B010BD00BF96D20300200000016F
S214008D5810B5064C236843B1054813F045FE206855
S214008D68BDE81040418929F075BD10BDD4340020F7
S214008D78B7D2030070B5364910460C68BDF8102007
S214008D88002C5ED003285CD8DFE800F0021E2745DA
S214008D98002B5AD0022A58D91D78B3F80160291E2C
S214008DA818BF012132462B4813F01EFE2DB131465E
S214008DB8204629F04FFD002070BDE573FA20636851
S214008DC8584329F024FBF6E7234813F00DFEE37B0F
S214008DD8002B38D00023E373F0E7002B35D0032AA6
S214008DE833D91D681D48294613F0FEFD1C4B2A1F63
S214008DF89A4201D90220DFE723680BB19D42F9D8D1
S214008E0823899D42F6D3E37B6560B3B9FA206843AD
S214008E1829F0FDFA11E0002BCED0012ACCD91D8806
S214008E281048294613F0E0FD002DE3D063689D4204
S214008E38E0D8E37B2581002BE8D12046FFF74CFFDE
S214008E48B9E70120B8E70420B6E70320B4E700BF77
S214008E58D4340020DAD2030011D3030030D3030041
S214008E68FCFF6D005BD3030038B5154B1C6834B3A4
S214008E78F0B92168134813F0B7FD23683BB1626860
S214008E88934204D2104813F0AFFD6368236004F1E0
S214008E981405284629F039FA236823B1FA2128460A
S214008EA8594329F02DFA2046BDE83840FFF714BF8D
S214008EB8032804D16189054813F096FDF3E738BD09
S214008EC8D434002086D30300B4D30300E9D30300C8
S214008ED870B53E4B0D46044609781860002A6FD1D7
S214008EE801231A46A1730021E1730121A1814FF4E1
S214008EF86151C4E900132823354E22810C213246DD
S214008F0822206381FEF784FF60B9D6E900230AB100
S214008F189A4207D3318999429FBFC4E900237389CF
S214008F28218163812B4B2C4AE363042384F8403069
S214008F3884F84C30E3182365284BA2646365022343
S214008F4804F10802E265264A84F85830226604F1DD
S214008F580A02A266234A84F8643084F8703004F162
S214008F680C03E26663676464EA79A86802EB420366
S214008F7800EB830104F13C064E601B4E40F823606C
S214008F88FA261A4B1A488B60531CEB71FFF7BCF88D
S214008F98208904F11405704329F039FA61892046BE
S214008FA829F058FC134B2846C4E90534FEF786FF1B
S214008FB8216849B128467143BDE8704029F0A0B938
S214008FC84FF4F07302228DE770BD00BFD434002042
S214008FD8C8340020000023010100230002002100FD
S214008FE803002101FDFF2100200001057D8D000002
S214008FF8598D0000018D0000134B10B51C680CB38A
S214009008E37BEBB129F085F92369C01A002809DB50
S2140090180E4813F0E9FC0023FA20E373636858430C
S21400902829F0F5F9E37B5BB12489FA235C4329F040
S214009038F9F9A04206D02046BDE8104029F0E7B965
S2140090486468F2E710BD00BFD434002016D40300CD
S21400905838B50024044D55F8040B08B129F00DFC6A
S21400906801340A2CF7D138BDD8340020042908B5B5
S2140090780AD172B16BB113781BB929F029FC00200C
S21400908808BD29F01BFCFAE7034813F0ADFC0120E5
S214009098F6E70320F4E700BF50D4030010B4054CED
S2140090A8114654F820001A46BDF804305DF8044B03
S2140090B8FFF7DCBFD83400200229024608B50ED0D8
S2140090C804D839B9104629F003FC06E04029F9D03F
S2140090D8412907D1104629F0F1FB002008BD29F0E8
S2140090E801FCFAE7024813F07FFC0120F6E700BF10
S2140090F870D4030010B4054C114654F820001A46E4
S214009108BDF804305DF8044BFFF7D6BFD83400200E
S214009118426B094B52791A7082785A70C2789A70E4
S214009128826B12B190F83C20DA700078042109307E
S214009138014AC0B2FEF77CBE235C0020024B53F8FF
S214009148200029F0EBBB00BFD834002038B5044611
S2140091580078084D09302A460421C0B2FEF758FEAA
S21400916830B96B78A370AB78E370EB7884F83C3052
S21400917838BD00BF235C002038B504460078114D82
S21400918809302A460421C0B2FEF742FEC8B9A378C1
S2140091982A78022B0CD004D863B9204629F098FB0D
S2140091A801E0FF2B0AD02046BDE8384029F065BB11
S2140091B8002AF2D1204629F081FBF4E7002AF9D1EB
S2140091C8EBE738BD235C0020F8B504460B78284A40
S2140091D80D4642F823004370FFF7B8FF636B254A35
S2140091E85C631A632046FFF7C7FF204629F045FB55
S2140091F84FF4801363600123626BA66B0532E2604E
S2140092081D4A23722261A21C2375A26166B11B4AFD
S21400921884F82030E261E21C6262194A84F82C3035
S21400922804F13C03A26223630627EA79A96802EBE5
S2140092384203002E21F8237001EB83000CBF0223A3
S2140092480423C370012383700E4B04348360531CBD
S2140092584460DBB20C4C03EB430341F8234001EBBC
S214009268830000234360094B02328360EA71F8BD2D
S214009278D8340020012903000340300101FF3001E3
S21400928802FF1001FD90000008000100A5900000F4
S21400929828B1034B1B78834234BF00200120704757
S2140092A8085C002070B500250A4C0B4E3378AB429C
S2140092B800DC70BDD4F8A42042B123791BB16079D4
S2140092C8FFF7E6FF10B9104628F006FF0135A83468
S2140092D8ECE700BF601E0020095C002008B5427954
S2140092E801461046FFF7D4FFA8B1CB780A48013AE2
S2140092F8042B00EB82100ED8012B08D81BB9BDE84A
S214009308084029F0DBBABDE8084029F0E1BABDE814
S214009318084029F0E7BA08BD601D002008B5427964
S21400932801461046FFF7B4FFA8B1CB780A48013AC1
S214009338042B00EB82100ED8012B08D81BB9BDE809
S214009348084029F0C5BABDE8084029F0B7BABDE814
S214009358084029F0C7BA08BD601D002010B586B0C1
S2140093680446FEF7F3FE012830D1E278042A2DD809
S214009378DFE802F013323403030061790846FFF78A
S21400938887FF58B31648032A00EB811050F80C3CA8
S21400939858791DD1003818BF012063784FF48072C1
S2140093A88DF804304FF48273ADF806300623ADF816
S2140093B8083001238DF80B3000238DF80A0001A829
S2140093C8CDE903238DF81430FEF7F8FE06B010BD7D
S2140093D8B0FA80F04009E0E70020DEE70220DCE78C
S2140093E8601D002010B586B00446FEF7AFFE0128C3
S2140093F830D1E278042A2DD8DFE802F013133203BE
S214009408030061790846FFF743FF48B31548032A67
S21400941800EB811050F80C3C5B791DD11A1E18BF62
S214009428012263788DF80A208DF804304FF4827391
S214009438ADF806300623ADF8083001234FF48072E5
S2140094488DF80B30002301A8CDE903238DF81430DE
S214009458FEF7B4FE06B010BDB3FA83F25209E0E791
S2140094680222DEE7601D002010B586B00446FEF72F
S2140094786DFE012812D16378094A8DF804304FF43E
S2140094888273ADF806304FF48073CDE902230023CB
S21400949801A804938DF81430FEF790FE06B010BDB0
S2140094A80800070110B586B00446FEF74FFE0128EF
S2140094B820D16278104B8DF804204FF4827294F80D
S2140094C8A01094F8A10059701870ADF806200493FF
S2140094D84FF480720223094901A88DF81430CDE9AB
S2140094E80212FEF76BFE94F8A130013B18BF012369
S2140094F884F8A13006B010BD275C002008000501DE
S21400950810B58378044603B30379022B0AD142794F
S2140095181046FFF7BDFE28B10C48013A00EB821052
S21400952829F0E0F9A379022B02D12046FFF716FFAF
S2140095382046FFF7B7FF02236078A4F86C30552260
S214009548BDE81040122128F021BF10BD601D002084
S2140095584388094A082113808388538083681B8AB6
S214009568938090F8A03093718379D3710078043093
S214009578C0B2FEF75DBC00BF1257002038B50D46D6
S21400958804460178114813F02FFA4FF602739D42ED
S2140095980ED10F4B1B782BB963712046BDE83840B7
S2140095A8FFF7D6BF62790AB19342F6D20123F3E7F2
S2140095B8B5F57F4FF1D1204629F02DFAA378022B76
S2140095C80CBF01220022A3689A70E6E78CD4030039
S2140095D8085C0020024B53F82000FFF7CFBF00BFFF
S2140095E80035002038B504460078144D04302A4665
S2140095F80821C0B2FEF70CFC20B1BDE83840104880
S21400960813F0F2B92B8863806B88E978A380AA8860
S214009618A3681A82AB7984F8A030EB79A371094B5A
S2140096281B780BB9637138BD09B19942FBD9064856
S21400963813F0DAF923780133F4E700BF1257002055
S214009648A6D40300085C0020CFD40300F8B504466F
S2140096580B78474A0D4642F823004370FFF7C2FFCF
S214009668A268444BD465D364434B02265365434BE8
S214009678A11C13654FF44013E36001236161E162A6
S2140096883F49103221632265211D3E4AA1633E48A8
S2140096983E49626504F1A002A061E163E265E01C50
S2140096A8611D3B4A206261643A483B492266A21D16
S2140096B82374237784F8283084F8343084F84030CC
S2140096C8A16484F84C6084F8583084F8643060628A
S2140096D8A266E879AA6800EB400102EB810704F16C
S2140096E80C0CC7F804C04FF0060C2C4F42F821703B
S2140096F8C118C9B201EB410142F821C002EB81074B
S21400970800217960264F84F880302767254F84F833
S2140097189830A767244F254BE767254F84F8746071
S21400972884F88C60C4F89C3004F16C06831CC4F87A
S2140097388470C4F890601F4F1F4EDBB203EB4303E0
S214009748C4F89460C4F8887002EB830670347460BA
S21400975808261A4C42F82340C31CDBB203EB43032B
S21400976802EB8304043042F823606160E871F8BDB8
S2140097780035002075290300BF290300099500005D
S21400978801FF300104FF20011000300102FF200114
S21400979805FF300100FF300103FF21010700010823
S2140097A84A002100A66C040051001000A86C0400B2
S2140097B8A96C0400550021006F001800120001046F
S2140097C800239B6AB3F5C04F03D21968064A914234
S2140097D803D00023037083607047012202709A68E2
S2140097E89B694260F7E700BF07B0CD5E024B034AAD
S2140097F81A602AF060BB00BF0000002002020FF0CB
S21400980873B5534B04461A781AB102221A7002B07E
S21400981870BDCDE900220028F9D001261E7032F06E
S214009828FFFF4C4D4C4B186017F0E0FA2B785BB9ED
S21400983802F062FA40B949480823494A494900688B
S21400984801F0A8FE00B92E70474B5A6E62619B6EF7
S214009858464AA3614FF40043936603F18843596868
S214009868E16143499960196E2160596E6160D3F8C9
S2140098787011A160196CE160596C21613D49086C52
S2140098881864496C5964012151664FF40051916679
S2140098981A6E560436D53849CA68D407FCD45B6EA7
S2140098A85A0434D5354AD36B13F0430FFBD1344BE7
S2140098B81A68531C31D04FF400139340314A13668C
S2140098C80423304C684623664FF4806323661023CF
S2140098D823664FF4005323664FF0804323664FF405
S2140098E8804301A9636629F0AEF8009B2366019BB6
S2140098F863662B78002B8AD0194B1A6822665B6839
S214009908636684E72049CA68D007FCD4C7E71F4ABD
S214009918D36B13F0430FFBD1C9E71D4B1B78002B05
S214009928CED14FF48072114B5A661A4A52681AB949
S2140099384FF40011134A11664FF400725A66164B1C
S2140099485B68002BBCD14FF480020E4B1A66B7E753
S2140099582A5C00202B5C0020483500208466002006
S2140099684C35002000710800008000500090005020
S21400997855CEAC0000C00054000004400000024C65
S2140099885066002000900044000004500000025C6E
S214009998295C002000C005500000065070B52C4D0C
S2140099A804462E78012E02D001232B7070BD0028A5
S2140099B8FCD029F06DF801300BD029F069F840F298
S2140099C80113984205D0234B234A5E66D368DE0708
S2140099D8FCD4224B22491B6E13F0040F4FF400539D
S2140099E814BF1C4A1F4A9366CA6B12F04302FBD187
S2140099F821681A4B196661685966A168C3F8701120
S214009A08E168196421695964E169C80748BF9A6022
S214009A18154B1A6801320DD1144A127852B91449F6
S214009A284968C90748BF1A60124A5268D20744BF35
S214009A3801221A606269104B5A66A2699A6617F084
S214009A48DDF90E4B186832F0E6FE0023ADE700BFDE
S214009A582A5C00200090004000000440008000447B
S214009A680000024C0090005050660020295C002040
S214009A7800C0055000000650008000504835002001
S214009A8870B50024A36AB3F5C04F23D21A68134BE7
S214009A989A421FD1124E337813F0FD0518D14FF4B1
S214009AA880341048FFF7ACFE032004F0B9FC0E4BD8
S214009AB80320DC6004F098FC0C4B1C61AB6ADB6985
S214009AC8984704460748FFF769FF0CB90123337027
S214009AD8204670BD4FF48174FAE700BF07B0CD5E2C
S214009AE8295C00202835002000A00044009000448F
S214009AF813B5204B1B7803B9FEE700231E4CCDE9AF
S214009B0800336A4608231D49206801F043FDF8B96A
S214009B181B4AD2F84031D2F840211F2B4FF00103E0
S214009B2811D9203A9340019A1A43019208236A46AB
S214009B381249206801F0B6FE124B134A1A602AF042
S214009B48BAF902B010BD9340009A1A430092EDE7A6
S214009B582D28F1D10A4AD2F84031D2F840211F2BDD
S214009B684FF0010385BF203A93409340019398BF76
S214009B780093DBE72A5C002084660020007108005A
S214009B8800800044000000200B020FF038B50025C6
S214009B98AB6A0446B3F5C04F10D21B6BB3F5C04F83
S214009BA80CD20748FFF72CFEAB6A20461B6B5B6897
S214009BB89847BDE838400248FFF7F0BE38BD00BFFA
S214009BC85435002013B50024A36A0190B3F5C04F9E
S214009BD813D21B6BB3F5C04F0FD20948FFF710FE20
S214009BE8A36A01211B6B01A89B6998470446044891
S214009BF8FFF7D4FE204602B010BD4FF48174F9E793
S214009C085435002070B50026B36A0446B3F5C04F35
S214009C180D4612D21B6BB3F5C04F0ED20848FFF79D
S214009C28EFFDB36A20461B6B29469B699847044696
S214009C380348FFF7B3FE204670BD4FF48174FAE779
S214009C485435002070B50026B36A0446B3F5C04FF5
S214009C580D4612D21B6BB3F5C04F0ED20848FFF75D
S214009C68CFFDB36A20461B6B2946DB699847044636
S214009C780348FFF793FE204670BD4FF48174FAE759
S214009C8854350020F8B50027BB6A0446B3F5C04F24
S214009C980D46164611D21B6B7BB10948FFF7B0FD7F
S214009CA8BB6A20461B6B324629465B6A98470446C1
S214009CB80348FFF773FE2046F8BD4FF40174FAE731
S214009CC85435002070B50026B36A0446B3F5C04F75
S214009CD80D4612D21B6BB3F5C04F0ED20848FFF7DD
S214009CE88FFDB36A20461B6B29469B6A9847044635
S214009CF80348FFF753FE204670BD4FF40174FAE799
S214009D0854350020F0B50027BB6A0446B3F5C04FAB
S214009D180D461646ADF5177D20D21B6BB3F5C04F22
S214009D281CD21048FFF76CFDBB6A20461B6B40F23E
S214009D3851225B6A01A99847044630B10948FFF7E3
S214009D482DFE20460DF5177DF0BD836A32461B6B47
S214009D582946DB6A01A898470446EFE74FF40174E2
S214009D68EFE700BF5435002010B50024A36AB3F50A
S214009D78C04F10D21B6BB3F5C04F0CD20748FFF785
S214009D883FFDA36A1B6B1B6B984704460348FFF707
S214009D9805FE204610BD0124FBE700BF5435002011
S214009DA8F0B58FB0044601A80E461546FFF7EEFE3E
S214009DB89DF80C30012B12D1B5F5002F27D8B4F535
S214009DC8002F24D86319B3F5002F20D821462A4639
S214009DD8304614F0B7F8002420460FB0F0BD002730
S214009DE8BB6AB3F5C04F15D21B6BB3F5C04F11D283
S214009DF80A48FFF705FDBB6A2A461B6B3146204614
S214009E085B6B984704460548FFF7C8FDE4E740F251
S214009E180244E1E740F20114DEE700BF54350020B3
S214009E28F0B58FB0044601A80E461546FFF7AEFEFD
S214009E389DF80C30012B1FD1B5F5002F06D8B4F5C8
S214009E48002F03D86319B3F5002F13D940F2024444
S214009E5820460FB0F0BDE258013225D104339D42AA
S214009E68F9D82A463146204600F082F80028EDD078
S214009E780024EDE70023F2E70027BB6AB3F5C04FDE
S214009E8815D21B6BB3F5C04F11D20A48FFF7B8FCC2
S214009E98BB6A2A461B6B314620469B6B984704468E
S214009EA80448FFF77BFDD3E740F20344D0E740F2CF
S214009EB80114CDE75435002070B58EB0044601A8CD
S214009EC80D46FFF763FE9DF80C30012B22D144EABD
S214009ED80503C3F30C03002B33D1B5F5002F04D9C3
S214009EE840F2024420460EB070BDB4F5002FF7D8F5
S214009EF82544B5F5002FF3D8204604F5005400F0A5
S214009F0829F8AC4202D00028F6D1E9E70028E7D0C5
S214009F180024E7E70026B36AB3F5C04F14D21B6BDC
S214009F28B3F5C04F10D20A48FFF76AFCB36A294651
S214009F381B6B2046DB6B984704460548FFF72EFD4B
S214009F48D0E740F20444CDE740F20114CAE700BF68
S214009F58543500204FF4003208B5044B9A6632F0A8
S214009F68F7FEB0FA80F0400908BD00BF0090005028
S214009F78134610B562B103439B070BD14FF4003468
S214009F88054B9C6632F0E8FEB0FA80F0400910BD3A
S214009F980120FCE70020FAE700900050BFF34F8F3F
S214009FA80549064BCA6802F4E0621343CB60BFF368
S214009FB84F8F00BFFDE700BF00ED00E00400FA0584
S214009FC870B5D0B1C9B10E4E431E013913F8014F12
S214009FD82046325D02F00302012A11F8012F08BF5D
S214009FE804F12000B55C05F00305012D08BF2032FA
S214009FF8801A01D1002CE9D170BD0120FCE700BF12
S21400A0083D9404000348044A0449121A921028F0A2
S21400A018A4BD00BF4061000018630000486300202C
S21400A02808B5154B83F30A8800F030F8FFF7EAFF07
S21400A038124B13498B4212D30020124B12498B4203
S21400A04818D3FCF76FFE186850F82240586840F896
S21400A0582240013298688242F5D30C33EAE70022A0
S21400A068F8E71C6844F8220001325C68A242F8D37C
S21400A0780833E4E70022F8E70800002068D0040068
S21400A08874D0040074D0040074D004004FF4004167
S21400A098134B144A70B59A60D3F88820124D42F4D0
S21400A0A87002C3F88820114A05F5005491664FF0EF
S21400A0B8FF3222664FF6DF7262660222C3F8D020AD
S21400A0C8BFF34F8FBFF36F8F4FF44036032004F073
S21400A0D8A7F90320E66004F087F92E6170BD00BF7B
S21400A0E800ED00E000600000008000440090005092
S21400A0F8054B1860054B1B6F03F00703032B01D1B4
S21400A10830F0DABC704700BF606600200080005060
S21400A1182DE9F04104464FF001080C250D4E0CB908
S21400A128BDE8F08194FAA4F0B0FA80F00F2808FA97
S21400A13800F2C8BF103824EA0204CABF05FB006252
S21400A14805FB0062B4325768002FE8D09168C0B2A9
S21400A158B847E4E77435002008B50C4832F081FBB0
S21400A168192004F04FF928B1192004F059F91920DC
S21400A17804F03AF91A2004F045F928B11A2004F038
S21400A1884FF91A2004F030F9002008BDAC6E040020
S21400A1982DE9F0410E461746054618B30F2923D871
S21400A1A80378DBB1013BDBB2022B19D8104AD35C2B
S21400A1B86A78D340DB0717D50E4BD3F81043ACB9F3
S21400A1C832F02EFB80463A462846314603F064F8BD
S21400A1D8404632F020FB2046BDE8F0817F23E7E7C3
S21400A1E80023E5E72224F6E72124F4E70224F2E731
S21400A1F8FC6C040000C0035010B5044610B3037886
S21400A208E3B1013BDBB2022B1AD8104AD35C627862
S21400A218D340DB0718D532F003FB01226178237898
S21400A2288A4030214B4341F2100103F1A04303F565
S21400A23870335A5032F0EFFA002010BD7F23E6E75D
S21400A2480023E4E72220F8E72120F6E7FC6C040068
S21400A25810B5044610B30378E3B1013BDBB2022B1A
S21400A2681AD8104AD35C6278D340DB0718D532F088
S21400A278D7FA0122617823788A4030214B4342F28C
S21400A288100103F1A04303F570335A5032F0C3FAB5
S21400A298002010BD7F23E6E70023E4E72220F8E746
S21400A2A82120F6E7FC6C040038B50D46044618B3C2
S21400A2B811B30378E3B1013BDBB2022B1AD8104A7C
S21400A2C8D35C6278D340DB0718D532F0A9FA30227F
S21400A2D82378534303F1A04303F570335B69627830
S21400A2E8D34003F001032B7032F095FA002038BDF6
S21400A2F87F23E6E70023E4E72220F8E72120F6E7B5
S21400A308FC6C04002DE9F0410D46164698460446B6
S21400A31800284FD000294DD00178002940D04B1E88
S21400A328DBB2022B3ED8254AD25C6378DA40D207E5
S21400A33801D4FF2940D1022E01D9042E3CD132F097
S21400A3486FFA23780746FF2B05D032462046296841
S21400A35802F0E8FF28602B68013309D12378FF2B29
S21400A36806D1174B6078D3F8241429F0C7F928606B
S21400A37829684B1C18D00C23124A03FB0122069BA3
S21400A388C2F8048093602378FF2B04D001230E4A7A
S21400A3988B40C2F82434384632F03DFA002007E0F5
S21400A3A87F22C2E70022C0E7384632F034FA2D2072
S21400A3B8BDE8F0812220FBE72120F9E7FC6C0400C9
S21400A3C800C003507435002000D0035008B502F0D2
S21400A3D859FF054B00F0553020F05020C3F82004F4
S21400A3E8BDE80840FFF794BE00E0035008B502F049
S21400A3F849FF054B00F0AA3020F0A020C3F820043F
S21400A408BDE80840FFF784BE00E003502DE9F04F92
S21400A418144605460E469B46C36B87B001225B6909
S21400A42802A960689847EB6B01225B6903A930466E
S21400A438984702A828F090FF074648B10023A3755E
S21400A44863754FF0FF33A360002007B0BDE8F08FB8
S21400A45803A828F08EFF0123A375237E04EBC3030D
S21400A468DE611F846368B3420ED1206003A828F01B
S21400A478A2FF4FF0FF332075A360237D043B022B19
S21400A48826D80023A375DFE723681A1A53425341D8
S21400A498A37503A828F08FFF237D834218BFA775EE
S21400A4A803A828F06AFF074602A828F066FF874236
S21400A4B818BF002303A818BFA37528F066FF074631
S21400A4C802A828F062FF87421CBF0023A375D4E7C2
S21400A4D803A828F052FF80B1EB6B022230465B6976
S21400A4E804A9984704A828F057FF0346207D0328A8
S21400A4F839D8DFE800F03838040903A8F3E7CC2297
S21400A508237E04EBC3031A8401F06EFC109B1870BC
S21400A51803A8277E28F025FF04EBC70787F8220044
S21400A528237E03A804EBC303B3F8209093F82270A5
S21400A53828F023FF804603A828F027FF8246B8F1B4
S21400A548000F15D0EB6B022230465B6904A99847CA
S21400A55804A828F0E6FE6075637D6BB90023A37532
S21400A5684FF0000838E0227E04EBC2021384CBE7E3
S21400A57803A828F0C1FEEEE794F81680B8F1000F9D
S21400A588EED0B9F1000F09D1DFB10123E375637E80
S21400A598002B4FD1012F42D1677614E06B6C06EB87
S21400A5A80A015A4286EA010010421CBF0022A27520
S21400A5B85A1E0A409B1A9945D0D8A37D002BE3D192
S21400A5C8CEE7E37D43B94FF000084B465246314686
S21400A5D8284628F00CFCA060A27D12B123694B44E3
S21400A5E823611A49237E097899422AD901332376AA
S21400A5F8BBF1000F27D032B3E37D23B3B8F1000FC9
S21400A60821D1032F1FD0A1684B1C1CD0109B2246BB
S21400A618009328460123FFF7F9FEA07513E095F886
S21400A628343063B9EB6A0133CFD1032FCDD1012380
S21400A638A376C8E7012FCFD0032FC4D1F7E79846F3
S21400A648C3E70023A375A07DFFE600BF206D0400C6
S21400A6582DE9F04F0E46984600238BB004464FF07F
S21400A668FF31104617468DF8133001F0A7FBB6F5F4
S21400A678801F20D2314605AA04F1080028F0BEFD46
S21400A688451C014603D1237CBBB92D2010E0384673
S21400A69801F094FB0122394620460DF1130328F0F9
S21400A6A8F8FB0028EFD09DF8133088F8003000201B
S21400A6B80BB0BDE8F08FB01CE5D1E56A691C36D151
S21400A6C82046616A28F0D9FA0546B31C18BF01234C
S21400A6D8DFF8CC900193636A626C0293236805A93D
S21400A6E802FB053AE36B05225B695046984705A8C6
S21400A6F828F0CDFE28F0F0FE504628F0F8FE4FF081
S21400A708000B824601464B1C05D0636C81EA0A02A0
S21400A7185B42134211D02946204628F0AEFA029B27
S21400A728AB422CD0BBF1000F2CD10546D3E72368EB
S21400A738ED1A636CB5FBF3F5C7E7484601F03EFB38
S21400A7480DF1130349462046019A28F0A2FB03465A
S21400A75890B1B21C03D0D9F80020B2420CD19DF8B3
S21400A768132003930D4B88F8002049461A6838468C
S21400A77813F0E8FB039B9B46D9F80810C3E7BBF128
S21400A788000F82D0B6F5801F91D2314698F8003077
S21400A7987A6804F1080001F03FFA88E71C6D0400A7
S21400A7A8503D00202DE9F3410446174698460E46CC
S21400A7B8184D816AE36A8B4201D04B1C02D102B065
S21400A7C8BDE8F081284601F0F9FA0122294620461C
S21400A7D80DF1070328F05DFB38B1434629462046AD
S21400A7E89DF80720B8470028E9D0A9684A1C04D174
S21400A7F86968204628F0CEFA0146012EDAD16B6841
S21400A80881EA0302636C5B421A4218BF4FF0FF31BD
S21400A818D0E700BF243D00202DE9F04F4FF0FF336E
S21400A8284FF6FF720025044600F10806C0E9092322
S21400A8388BB0C362056205633046884628F0AFFCD5
S21400A848204628F0EAF960BB2046414628F065FA1B
S21400A858204628F0E2F960BB5E200BB0BDE8F08F1A
S21400A8682368E26B606C576900FB0530052205A972
S21400A878B84705A828F00BFE012807460CD129463C
S21400A888204628F01BFA012F024600D1013229463D
S21400A898204628F0E1F903E028F023FE0028EED150
S21400A8A80135E3699D42DBD3204628F0B6F9002837
S21400A8B8CAD000254FF0FF394FF6FF73CA46A846A0
S21400A8C8C4E90853E36998450AD3A5EB0905012DA1
S21400A8D82CD84FF6FF72636A93423CD16720BCE7D8
S21400A8E82368E26B606C576900FB0830052205A9EF
S21400A8F8B84705A828F0CBFD834605A828F09EFD96
S21400A9080746584628F0E8FD68B1574538BFC4F8EA
S21400A9182480B94528BFB946BD4238BF3D46BA4629
S21400A928236A0133236208F10108CBE74FF6FF7369
S21400A93800256362E3699D42CBD2676C2068E36BAF
S21400A948052207FB05005B6905A9984705A828F0B6
S21400A95875FD0135EEE7E26B676C2068694607FB14
S21400A968030055690522A847684628F067FD626A0D
S21400A9782368606C4B4D00FB023028F0B8FD4FF0A2
S21400A988FF33A062E3622A466FF00101204605AB5A
S21400A998FFF75EFE002846D1AD6829462046E562E8
S21400A9A828F017F9206320B92046E16A28F0F2F962
S21400A9B8E0622946204628F0EDF90546A36A9D423E
S21400A9C833D1204628F0D8F800278046B946E369F0
S21400A9D899453CD3B84559D92046616A28F04DF9BF
S21400A9E80026054604F1400AB74212D8626C23686E
S21400A9F8694602FB0539E36B05225B6948469847BA
S21400AA08684628F01BFD534602464946E06B28F088
S21400AA1870FD2946204628F030F90136B04505462F
S21400AA28E2D1642019E7A56AB7E72946204628F048
S21400AA38D0F8236B2946034407462363204628F0AC
S21400AA48A9F90546002FB9D1C4E90B07B6E7636C28
S21400AA582568052203FB0955E36B05A95B692846AB
S21400AA68984705A828F013FD28F036FD58B1284663
S21400AA7828F03DFD0146204628F0ABF8636C143BF1
S21400AA88984208BF013709F10109A0E7304628F0C7
S21400AA9886FB002320461946034AFFF783FE00205C
S21400AAA8DBE600BF7C3D0020892E03002DE9F0413F
S21400AAB8036B9046826B07689A4288BF8363426C32
S21400AAC8436A90B002FB0377C36B0E46052201A9C2
S21400AAD85B6904463846984701A828F0D8FC012840
S21400AAE80146307057D0656CE26B2368606AD2F80E
S21400AAF814C005FB0030052206A9E04706A828F082
S21400AB08C6FC01284FF0000523D0D4E90A320121FB
S21400AB189342CDE90B458DF834800E958DF83C10A0
S21400AB282AD11946204628F035F9236B626C14336F
S21400AB389B1AE06223630C9B53B99DF83C303BB1EB
S21400AB48626A616C2368E06B01FB023128F057FCEF
S21400AB580C9DE36B05225B6901A93846984701A856
S21400AB6828F095FC30702846236BA26B9A4288BF63
S21400AB78A36310B0BDE8F081237C33B91C490BAA47
S21400AB8804F1080001F096F8D5E72046194A0BAB01
S21400AB98FFF708FECFE7237C23BB2246164904F1BD
S21400ABA8080001F087F8616A204628F087F8616A8D
S21400ABB8421C204628F050F8054620B9236B626CE4
S21400ABC81344143B23632046A16A28F0E3F823685D
S21400ABD8A062C01A636CB0FBF3F06062204628F0EF
S21400ABE81CF9B6E700232046044AFFF7DBFDDAE740
S21400ABF859B30000D5B20000232F0300BF2E030070
S21400AC0873B50D46D11E4A421C461B7E4A419A42DF
S21400AC1826D129682368994222D3636899421FD8A7
S21400AC28114E0DF107033246FFF712FDC0B97268E0
S21400AC386B689A4214D19DF80730DA1E5342534186
S21400AC48227E93420CD1636901336361D4E90323FE
S21400AC58934205D22968A26842F82310013323617B
S21400AC68012002B070BD00BF7C3D00202DE9F04FEA
S21400AC789B4689B09DF848309046514A019313691F
S21400AC8807465B450D46C0F09580D9465368009345
S21400AC98B9F1000F7BD0FB6B01225B6905A9009810
S21400ACA8984705A828F065FB454B1B68984240F076
S21400ACB8848005A828F069FB0428064615D105A84F
S21400ACC828F06AFB009B04461E44019B002B3ED1DD
S21400ACD8804512D91C46A8EB00083846009928F08B
S21400ACE859F8A9EB04090090D2E7FB6B02225B69CE
S21400ACF8009806A9984706A8E2E7A0EB08045C4572
S21400AD0828BF5C46032C4644ABEB040B1DD9FB6BF3
S21400AD18294630465B69A208984724F0030304F0E6
S21400AD28030A1E441D44DDF80480BAF1000FD4D08F
S21400AD38FB6B012206A930465B69984752462846AF
S21400AD4806A913F0FFF85544C7E7A246EBE7824684
S21400AD5800F0030302932B1803930644039BA6EB09
S21400AD680A00A3EB0A05029B9A4514D1BAF1000F14
S21400AD78B3D0FB6B012206A95B6998475246284662
S21400AD8806A913F09BFA0028DDD04FF0360948468E
S21400AD9809B0BDE8F08FFB6B012206A95B699847EE
S21400ADA80422284606A913F089FA0028EDD1AAF14C
S21400ADB8040AD3E74FF06309E9E74FF06F09E6E7BF
S21400ADC8A83D00202DE9F0410F4616469846044651
S21400ADD888B060B390F83450FDB1012127F012FF17
S21400ADE800210E9BCDE90511CDE902379DF83C30D0
S21400ADF8CDF804808DF81C30237C04968BB90D4959
S21400AE0801AA04F1080000F055FFDDE90553E06BE0
S21400AE18002E08BF1D4628F08EF8284608B0BDE864
S21400AE28F0812046044A01ABFFF7BCFCEDE7054677
S21400AE38F3E700BFED2E030009AC00007FB590F8DD
S21400AE484260044601920DF10B030A46304611494A
S21400AE5828F079F8012E0546E36B17D132465B6970
S21400AE6803A998479DF80B10039B019A59B19BB20A
S21400AE7843EA0243012228460393E36B03A99B692E
S21400AE88984704B070BD62F30F03F3E701229B698D
S21400AE9801A9F5E7A83D00202DE9F04F99B00E4628
S21400AEA80D920A69416C0B931439D31DB3FBF1F369
S21400AEB8013302EBC302036B04469342C0F00182DF
S21400AEC80023DFF804940893E36A48461946059376
S21400AED800F074FFD6E9033707930B9B022B4DD17E
S21400AEE8CC2F40F0D7810D9B3BB13146204628F049
S21400AEF880F8656C1490012044E00120079B656C7F
S21400AF081B68149300F0010000280CBF04230823D4
S21400AF18782F0E9349D8059A6B1E1340ED1A3B1DE1
S21400AF289D423CD2002F3DD0082D3ED80023042554
S21400AF3806934FF0040A336806990B98C9F8003050
S21400AF48C9F8107028F03BFA4FEA9A030F93059B4E
S21400AF5889F814000393002309930C9304930A9327
S21400AF68616C039B4A1E1A408B1A27B35544AB42A2
S21400AF7823D8236B5B1A134423632FE1782F656C61
S21400AF88B9D8F07D0D9B002BBCD0E36B01225B6922
S21400AF98706816A9984716A828F0EFF9B4E70025B0
S21400AFA80695C6E704250697C3E7012300254FF054
S21400AFB8080A0693BFE75345DBD3A3EB0A0297427A
S21400AFC8039BB84628BF90469742534428D9012287
S21400AFD8D9F8101089F817208F4226D10399C9F896
S21400AFE80410049299F817200AB399F818100398D1
S21400AFF8CA1C09EBC202506004980131A2F8088006
S21400B008907289F81810B8F1000F07D00B9A022A28
S21400B01840F08180099A72B1012209929B46ABE002
S21400B028049A002A18BF0322DBE70222D9E7039A0C
S21400B038C9F80420E7E70C9A4244032AEED9E26BE3
S21400B0481846956914A901220993A847099B05463D
S21400B0580028E1D03D2D40F01E8104F1080303933B
S21400B0682368059A606CA2EB030ABAFBF0FA00FBA9
S21400B0780A3028F03CFAE16A8046204627F08AFE25
S21400B088A26A824200F00F81626CD9F80830511E1D
S21400B0980B40216B2768891A0B442363089BE062E0
S21400B0A8DF1BB7FBF2F7BA4540F0FA80059BB3EB17
S21400B0B8080A12D0E36B4FEA9A0241469B69984702
S21400B0C88346E36A059A5344E362236B03989B1A04
S21400B0D84344236328F063F8DA462368616CE06B20
S21400B0E801FB073128F078F9204627F096FD204620
S21400B0F827F093FE2063BAF1000F00F0D48032697F
S21400B108616CD31D1439B3FBF1F3013302EBC302B0
S21400B1189042A5D2BFE00D9A002A77D1B8F1030F66
S21400B1284FEA98026ED9E16B18468D690799109315
S21400B138A847109B0546C0B918F0030515D0079A0E
S21400B14828F0030B02EB0B019B444FF0FF3215A8C7
S21400B15815922A46109312F0F5FEE26B584695694A
S21400B16815A90122A8470546109B9B46079A424404
S21400B1780792002D40F08B80049B16A80193069B2F
S21400B188009399F814204346316800F0CDFDE36B30
S21400B1980F9A9B69039816A99847039A051E089B59
S21400B1A818BF13460893434652462046039927F08D
S21400B1B81EFE236B08F10302A3EB0A0322F0030228
S21400B1C89B1AC9F808002363002D7FF443AF0C9B35
S21400B1D8A7EB080743440C93CDF80CB02046039918
S21400B1E827F0D8FD00250390002F7FF4B9AE364A25
S21400B1F83168936804F10800E36252680B9B00F01C
S21400B2080BFD49E09B46454607999EE79B4606F197
S21400B21820021092F27D7068A2B1002296F818C03B
S21400B2280A99D5B2AC4511D9109D02F1010E35F830
S21400B23832508D4228D90E9806EBC2020144D069D6
S21400B248084403E00E9A0A990A441044E26B15A9CA
S21400B258556901221193A847159A0A9B1392E26B27
S21400B268043395695846012213A90A93A847119BE7
S21400B278054603EB0802A2EB0B02042A7FF679AF19
S21400B28828B90BF1040BC5E77246491BC9E7CDF888
S21400B29820B088E770252F46384619B0BDE8F08FED
S21400B2A84FF0000A19E73269616CD31D1439B3FBF5
S21400B2B8F1F3013302EBC302236B9342BFF404AEEF
S21400B2C8E9E71C27E8E700BF503D0020032A2DE9E0
S21400B2D8F34106460D4617461C4606D1237A012B2F
S21400B2E823D0012002B0BDE8F081DFF8608009684D
S21400B2F842460DF10703FFF7ABF960600028EDD171
S21400B3089DF80720237A032AE8D0D8F804106A683C
S21400B3189142E3D1012B2969D4F80CC007D1726990
S21400B3280CEB0103934202D92074207CDAE708313B
S21400B3386144E1603B46012229463046FFF7ACFDF2
S21400B34860600028CAD00020CCE700BF7C3D002003
S21400B3582DE9F341089C032A1746266806D1237A66
S21400B368012B24D0012002B0BDE8F081DFF89080E0
S21400B378304642460DF10703FFF76AF96060002879
S21400B388EDD12568D8F80400A96AD5F844C0484025
S21400B398CCF100031840227AE1D1012A09D1E268EB
S21400B3A8D8F8103013447269934202D92074207C6E
S21400B3B8D9E72868EB6A1B1A081AB3FBFCF3B0FB3C
S21400B3C8FCF083420BD1706CF36A421E1340326B5A
S21400B3D8121A13442846336327F0DCFCE862D8F8D0
S21400B3E81020E36808321344E36001223B46044910
S21400B3F82068FFF751FD60600028B0D00020B2E753
S21400B4087C3D00202DE9F0410025604B0E46D3F820
S21400B418008004461D6018B921252846BDE8F0813D
S21400B42890F8347007B30A6803689A4240F0A3801D
S21400B4384A6843689A4240F09E808A6883689A42BF
S21400B44840F09980CA68C3689A4240F094800A69B6
S21400B45843699A4240F08F808A69C36B9A4240F0EB
S21400B4688A804B698361D8E768223946856B12F073
S21400B478D9FBD6E90212336804F108002360736822
S21400B488A5636360336963617369A36127F099FEF6
S21400B498B36904F14000E3639B68984720B9676C7A
S21400B4A817B16368B3FBF7F794F84330E761002BEE
S21400B4B8B2D00023656C2366002D64D0002F62D0BE
S21400B4C82368B3FBF5F205FB1233002B55D16668EB
S21400B4D8B6FBF5F305FB1363002B4ED1204627F089
S21400B4E868FBA369043303449E4248D340F634728B
S21400B4F86369CC3B934244D8B5F5805F43D30321B8
S21400B508204627F07FFBD4E90001E36B1B689847C9
S21400B5180546E36B0220DB689847CDB941462046CE
S21400B528FFF77AF96428054604D141462046FFF716
S21400B53873F90546666C5DB9236A2046143E5E4379
S21400B54827F037FBA369043303449E4238BF5A25C5
S21400B558002D0CBF0123002384F8343007D1D4E92A
S21400B56800010B4A13680133136027F0C4FEE06B32
S21400B57827F0E1FC51E75D254FE759254DE75A25A9
S21400B5884BE75F2549E75B2547E700BFE036002025
S21400B598DC3600202DE9FF410C4616461F460546B8
S21400B5A880B390F834307BB3B1F5801F2ED2DFF825
S21400B5B86080012127F026FB2146424628460DF1E9
S21400B5C80F03FFF745F8044670B99DF80F30012BB6
S21400B5D811D1D8F81030BB4212D10246009031463D
S21400B5E82846FFF743FB0446E86B27F0A4FC2046F2
S21400B5F804B0BDE8F081022B14BF2D246024F3E7C5
S21400B6086324F1E72124F2E71124F0E72924EEE782
S21400B618A83D00202DE9F04385B00C4617461E4687
S21400B6280546DDF8308098B390F8343093B3B1F51A
S21400B638801F31D2DFF86490012127F0E3FA214613
S21400B6484A4628460DF10F03FFF702F8044688B964
S21400B6589DF80F30012B14D1D9F8102006EB0803FB
S21400B6689A4213D300904346324639462846FFF797
S21400B678FDFA0446E86B27F05EFC204605B0BDE8F8
S21400B688F083022B14BF2D246024F3E76324F1E72C
S21400B6982124F2E71124F0E72924EEE7A83D00204C
S21400B6A873B50C461646054630B390F834302BB3BF
S21400B6B8B1F5801F24D2012127F0A4FA2146284696
S21400B6C8104A0DF10703FEF7C3FF044680B99DF83C
S21400B6D80730032B0CD0022B0CD12846094927F03B
S21400B6E888FC3060E86B27F026FC204602B070BD68
S21400B6F82D24F7E76124F5E72124F6E71124F4E77B
S21400B7082924F2E7A83D00202DE9F3411E46002330
S21400B7180C4617460546336050B390F834304BB3A2
S21400B728B1F5801F28D2DFF85480012127F06AFA85
S21400B7382146424628460DF10703FEF789FF0446D0
S21400B748A0B99DF80730032B10D0022B03BF0123A6
S21400B7583B600423D8F8103018BF38603360E86BB5
S21400B76827F0E9FB204602B0BDE8F0812D24F6E775
S21400B7782124F7E71124F5E72924F3E7A83D00205C
S21400B78873B50446056B27F014FA636E03449D42AE
S21400B7982CBF00230123854294BF00252D1A207C48
S21400B7A884F85030656584F85800A8B100230C4E1C
S21400B7B81A4619462046009627F0DFFC0023054661
S21400B7C81A4619462046009627F0E0FCE368284407
S21400B7D8984294BF0020C01AE06502B070BD00BF52
S21400B7E8FFFF0F002DE9F3471E4643690446B342A0
S21400B7F8884617469DF828904ED300258DF80750A2
S21400B808204627F0D6F9D4F830A082450AD2236A13
S21400B818B5EB430F06D2002220460DF10701FFF7CD
S21400B82845F9B8B39DF80730012B05D1002220460C
S21400B8380DF10701FFF73AF9B9F1030F06D03146C3
S21400B848204627F0A6F9256B854227D3144D4FF0DE
S21400B858FF31284600F0B2FA4B4629460022204619
S21400B868C5E90376C5F80080FFF716FB236E054684
S21400B87863B12046FFF784FF94F8503013B994F864
S21400B88858301BB1236E04F150009847284602B082
S21400B898BDE8F0870135B3E76225F7E71C25F5E72D
S21400B8A87C3D00202DE9FF410F4690461E46054682
S21400B8B898B390F8343093B3B1F5801F31D21A4C50
